:020000040001F9
:10B00000283C0020D5B00100EFB00100F1B00100F4
:10B010000000000000000000000000000000000030
:10B02000000000000000000000000000F3B001007C
:10B030000000000000000000F5B00100F7B00100C2
:10B0400089B40100F9B00100C5B50100F9B00100F3
:10B05000F9B0010000000000CDB20100F9B001001C
:10B06000F9B00100F9B00100F9B00100F9B0010038
:10B07000F9B00100F9B00100F9B00100F9B0010028
:10B08000F9B00100DDB40100F9B00100F9B0010030
:10B09000FDB40100F9B0010005B50100F9B00100EF
:10B0A000F9B00100F9B0010000000000000000004C
:10B0B0000000000000000000000000000000000090
:10B0C0000348854600F0A4F800480047F1FD010060
:10B0D000283C00200321094802680A43026008480E
:10B0E00002680A4302600748804707480047FEE7B6
:10B0F000FEE7FEE7FEE7FEE7FEE70000240500406E
:10B100005405004025B50100C1B0010030B50B4623
:10B11000014600202022012409E00D46D5409D4231
:10B1200005D31D469540491B2546954040191546B7
:10B13000521E002DF1DC30BD00487047884A0200E5
:10B1400003460B439B0703D009E008C9121F08C040
:10B15000042AFAD203E00B780370401C491C521EEB
:10B16000F9D27047D2B201E00270401C491EFBD2F6
:10B1700070470022F6E710B513460A460446194602
:10B18000FFF7F0FF204610BD421C0178401C00294B
:10B19000FBD1801A704730B504460020034600E01A
:10B1A0005B1C934203D2E05CCD5C401BF8D030BD09
:10B1B000F0B51FB40646002082B005464024019138
:10B1C00000901BE0019922460F46304600F042F8FD
:10B1D000049A059B801A994110D3104619462246BD
:10B1E00000F028F8361A8F410197224601200021ED
:10B1F000009F00F01FF838184D4100902046641E53
:10B200000028DFDC019B00982946324607B0F0BDDC
:10B21000064C0125064E05E0E36807CC2B430C3CA9
:10B2200098471034B442F7D3FFF74EFFB84C0200F2
:10B23000D84C020010B5202A04DB0146203A914088
:10B24000002010BD914020239C1A0346E34019437F
:10B25000904010BD10B5202A04DB0846203AD040AB
:10B26000002110BD0B46D340D0402024A21A9140AB
:10B270000843194610BD70B58C180578401C6B0743
:10B280005B0F01D10378401C2A1106D10278401CC3
:10B2900003E006780E70401C491C5B1EF9D12B0799
:10B2A00005D40023521E0DD40B70491CFAE7037815
:10B2B000401CCB1A921C03E01D780D70491C5B1CCE
:10B2C000521EF9D5A142D8D3002070BDF0B500249C
:10B2D000FF268BB00136012527460694304605F03F
:10B2E000E7FA002807D054484068284203D0304687
:10B2F00005F0D6FA2C43361D6D007F1CB6B2042F24
:10B30000ECD3FF257D35284605F0D2FA002809D078
:10B31000284605F0C5FA6807044306AA0121002063
:10B3200005F0AAFA454D200714D001270026274230
:10B330000CD04348B200111808690969C004C00E56
:10B340008903AA58890F002A00D090477F00761CF5
:10B35000042EECD3002C6DDA00200890401E63E030
:10B36000281940300778B906890E0091002141560E
:10B37000491C49D009A9009804F01EFF002843D0B9
:10B38000B8090190009802F0FBFB80002F5801984B
:10B39000002F02D0032802D00DE0032834D10098FA
:10B3A00008ABC20841079446985C490F01228A40C5
:10B3B0001043624698540098052109078000401800
:10B3C000072109024018006806A98003800F029037
:10B3D000009804F0F1FE0028029802D0022802D062
:10B3E00012E0032810D10198032808D102980228FE
:10B3F0001ED00221009805F022FA761CF6B2002F2A
:10B4000002D001990098B847641C042CA8D3002EE0
:10B4100010D06A460121002005F02EFA0699009806
:10B42000884207D00690089800263446099097E78E
:10B430000321DFE70BB0F0BD00630040042D0020C6
:10B44000006500408307FF22DB0E9A408907090E42
:10B45000994000280BDA0007000F083883080848D5
:10B460009B001818C36993430B43C361704783085B
:10B4700004489B001B1818689043084318607047E5
:10B4800000ED00E000E400E0F8B5FF20013004F03A
:10B490009BFE002401250E4E0E4F002807D00E48BB
:10B4A00004600120B0607D70002002F0F7FBFF20F7
:10B4B000053004F089FE002808D00748001D04600C
:10B4C0000220B060BD70012002F0E8FBF8BD000072
:10B4D00000030040F02C00200001004010B5064998
:10B4E0000020086048608860C860034940390860EF
:10B4F000486008F055FE10BD4011014010B508F03D
:10B50000C1FD10BD10B506484068002805D0804731
:10B51000002801D000F030FD10BD04F0E5F810BDAA
:10B520007422002010B504F02DF9002805D01F4921
:10B530001D484860C8131E4988611E48018CC9B265
:10B5400001290BD1828C120708D1028D1206120F2D
:10B55000042A03D1828D1206120F0AD0012921D1AB
:10B56000818C09071ED1018D0906090F0A2904D013
:10B5700007E0114A01219160F5E7828D1206120F52
:10B5800005D00D290ED1808D0006000F0AD10B4881
:10B590000168012904D00A49016001680129FCD130
:10B5A000C021416110BD0000DFFF07C00005004061
:10B5B000006C0040C00F00F00006004000EC0640A8
:10B5C0007593000010B50249024808F067FE10BDEF
:10B5D0004C2D0020002000400FB41CB50246002076
:10B5E00007AC00290BD0491E01910092064B6A4618
:10B5F0002146069800F034F8009A002111701CBC16
:10B6000008BC04B018470000D5BA010030B4744635
:10B61000641E2578641CAB4200D21D46635D5B004E
:10B62000E31830BC184702E008C8121F08C1002AFE
:10B63000FAD170477047002001E001C1121F002AB3
:10B64000FBD17047202804DA0121814003480142E0
:10B6500001D001207047002070470000FC06FFBCAD
:10B66000FFB591B00F460546002606E025280AD012
:10B67000149A139990476D1C761C28780028F5D1F0
:10B68000304615B0F0BD002400940121F34A029425
:10B6900000E004436D1C2B780846203B9840104284
:10B6A000F7D128782A280ED0022128780246303A8D
:10B6B000092A15D8009A0A235A43303A80180C43B5
:10B6C0006D1C0090F1E701CF0090002805DA012001
:10B6D00040030443009840420090022004436D1C44
:10B6E00028782E2815D10420044368786D1C2A2858
:10B6F0000AD101CF6D1C02900BE002990A2251433E
:10B70000303940186D1C02902878014630390929DB
:10B71000F3D928786C2810D006DC4C281AD0682879
:10B720000ED06A2817D104E0742813D07A2812D1D9
:10B7300010E00120400504430CE00121090501E06F
:10B74000032109050C436978814203D101200005DA
:10B7500024186D1C6D1C287803906E281ED00CDCFC
:10B76000632831D004DC00288AD0582811D1B2E0F7
:10B7700064287BD069280CD178E073282DD004DCB4
:10B780006F2870D0702804D1A7E075286CD0782875
:10B790006BD0149A13999047761C62E06002400FB8
:10B7A000022807D003280AD0042838680AD0066087
:10B7B0003F1D56E03868F11706604160F8E73868C9
:10B7C0000680F5E70670F3E73878694608740020CC
:10B7D000487404A80390012003E038680390002017
:10B7E000C0433F1D61070FD5002101E00199491CAD
:10B7F000029A0191914213DA8142F7DB019A03998F
:10B80000895C0029F2D10BE0002101E00199491C7B
:10B8100001918142FADB019A0399895C0029F5D1F3
:10B8200001990098139A401A00902146149B00F049
:10B830003BF901998019461807E0039803990078AD
:10B84000491C0391149A139990470198401E019046
:10B85000401CF2D12146149B139A009800F014F971
:10B8600086196D1C09E741E033E034E00A2000212D
:10B87000049005916002410F022905D001CFC21743
:10B880009446032905D007E0FF1DFF08FF0003CF02
:10B8900006E000B2C2179446042902D140B2C11793
:10B8A0008C4600226146944506DA0A460021404251
:10B8B00091418C462D2102E0210504D52B216A46B9
:10B8C0001176012103E0E10701D02021F7E7019182
:10B8D00054E00A200BE0102009E010200490002121
:10B8E0000420044308200591029003E00820002171
:10B8F000059104906002410F022905D001CF00227A
:10B900009446032906D006E0FF1DFF08FF0003CF81
:10B910008C4603E080B2042900D1C0B2002101911D
:10B9200021072BD50399702906D0049A1021059B75
:10B930004A401A4305D00EE040216A4611760121A3
:10B9400008E06146014306D030216A46117603992A
:10B95000517602210191049A0821059B4A401A431D
:10B960000CD16146014301D1610707D530216A46F8
:10B970001176012101910299491E029103995829DA
:10B9800004D037A103910FA90F910DE039A1F9E778
:10B990006146059B049AFFF70BFC039B8C469B5C5E
:10B9A0000F9A521E0F92137061460143F0D10F9807
:10B9B00007A9081A20300390600704D5012000046D
:10B9C0008443029801E0012002900399884201DD3E
:10B9D000401A00E0002041180290019809180098D0
:10B9E000401A0090E00306D42146149B139A009855
:10B9F00000F05AF886190020049008E006A9085CB7
:10BA0000149A139990470498401C761C049001994D
:10BA10008842F3DBE0030CD52146149B139A00986F
:10BA200000F042F8861904E0149A302013999047E8
:10BA3000761C0299481E02900029F5DC08E00F9858
:10BA40000F990078491C0F91149A13999047761C0E
:10BA50000399481E03900029F1DCFBE60928010048
:10BA60003031323334353637383961626364656674
:10BA70000000000030313233343536373839414236
:10BA80004344454600000000F8B5044600251E4624
:10BA90001746880404D405E039462020B0476D1CC1
:10BAA000641EF9D52846F8BDFFB50446002581B0CF
:10BAB0001E46C80301D5302700E02027880404D59E
:10BAC00005E038460399B0476D1C641EF9D5284639
:10BAD00005B0F0BD4A68002A06D00A68531C0B6006
:10BAE00010704868401E4860704710B500280CD0A0
:10BAF00000290AD002780B789A4206D10622401C0F
:10BB0000491CFFF748FB002801D0002010BD012090
:10BB100010BDF7B584B00646002517881580203083
:10BB20000290407B1446002806D03A4621460598EC
:10BB300001F02AF9050009D1B078002823D0059832
:10BB400086462088001DB84202D90C2007B0F0BDFF
:10BB5000684679DF0028F9D12188032072465054C5
:10BB600020881921401C80B2208011542088714601
:10BB7000401C80B2208041186846008808F022FCF2
:10BB8000218840182080F078002817D021880323CE
:10BB90000A46F356C91C0598B942D6D802218154E9
:10BBA00021880122491C89B2218042542188491CE4
:10BBB00089B2218043542088401C2080706800286E
:10BBC00017D021880023C3560A46C91C0598B942DC
:10BBD000BBD80221815421880A22491C89B22180C4
:10BBE00042542188491C89B2218043542088401C3A
:10BBF0002080308900280AD0009430460197062220
:10BC000002210830059B08F037FC05009ED1308AE0
:10BC100000280AD0009430460197072203211030F3
:10BC2000059B08F029FC050090D1308B00280AD034
:10BC3000009430460197152214211830059B08F016
:10BC40001BFC050082D1306A002806D03B46224604
:10BC5000059902F08BF80500D8D1706A002806D04B
:10BC60003B462246059904F0B0F90500CED1029872
:10BC7000007B002807D03B4622463046059907F056
:10BC8000E3FD0500C2D13078002807D03B462246AC
:10BC90003046059904F0F8F90500B7D1284655E774
:10BCA000174A0021535C002B01D0012203E0491CFC
:10BCB0000629F7D300221349012806D002280BD009
:10BCC000032810D0042818D112E04878002803D0A7
:10BCD000002A01D0012070478878002803D0002A6C
:10BCE00001D002207047C878002801D00320704797
:10BCF0000879002801D00420704700207047000018
:10BD0000D9200020A826002010B501220221002001
:10BD100001F012FD002801D0072812D107220221CC
:10BD2000012001F009FD002801D0072809D10021D8
:10BD30000A22084601F000FD002801D0072800D1A2
:10BD4000002010BD10B598B03C2101A8FFF711FAF2
:10BD5000022268460271012406218471C171848225
:10BD600012480690202110A8FFF703FA10A80470CB
:10BD700044700021817012911391C4702820149096
:10BD80001E20159010A804711920C0011690B4202F
:10BD9000179007480090074B10AA01A800F01CFC60
:10BDA000002801D000F0E8F818B010BDF21F002004
:10BDB000D1C50100D50E0200F8B51E4E1021324645
:10BDC0001D48FFF7CFF91D4C082060611A48254631
:10BDD000009014350827304606F032FC0021296017
:10BDE00007E02968009A4B00491C2960D05206F0F0
:10BDF00027FCB04201D07F1EF3D20F48616906F0E4
:10BE000025FE002801D000F0B7F80B48616906F064
:10BE100055FA062803D0002801D000F0ADF8002024
:10BE20002071032000F0FCFC002801D000F0A4F8F1
:10BE3000F8BD0000FFFF0000EC250020E81F0020F7
:10BE4000F0B50F468DB0002116466D460F24621ADC
:10BE5000825C6A54491C1029F9D328460D21103000
:10BE6000FFF787F90020221A395C5219401C11741F
:10BE70000328F8D368464DDF0020211A49192031E4
:10BE800009783154401C0328F7D30DB0F0BD10B52C
:10BE9000022001F0DFFA10BD70B50024064D06E067
:10BEA0006968E000085C012104F022FA641C28782B
:10BEB0008442F5D3002070BDB0210020F8B51546AE
:10BEC0000C460646052A01D20720F8BD04F0E8FA20
:10BED000002803D104F0B6FA0028F6D1104900205A
:10BEE0004E600C70C8608D6008610E4D0DE0E00082
:10BEF00069688019009181786A46517000780A4A11
:10BF0000694604F041FA0028DFD12046641EE4B2FD
:10BF10000028ECD1054A0021024800F0BBF8F8BD2A
:10BF2000B0210020A449020005ED010009DF010055
:10BF300009A1012004F0DEFE04F024FE04F028FE36
:10BF40000028FBD1BFF34F8F0A490948C860BFF3EF
:10BF50004F8F00BFFDE700004150505F4552524FE8
:10BF6000523A4552524F523A466174616C0D0A0082
:10BF70000400FA0500ED00E00EB5002102900091EA
:10BF80006A4601910148FFF7D3FF0EBD0140000052
:10BF9000F7B5244C82B060880E4681423FD8002518
:10BFA0006846214F057000F035F922786078A18845
:10BFB000884201DA401C00E00020C0B2904204D167
:10BFC0006846007800F044F927E065786078884298
:10BFD00001DA401C00E0002060706846007800F044
:10BFE00037F9BD4219D0A068EF000499C1510299F8
:10BFF00000290CD0002E0AD0608832464543E06804
:10C000002818FFF79DF8A0683818868002E0002104
:10C0100038188180002005B0F0BD0420FBE709201E
:10C02000F9E70000C4210020FFFF000010B50D4C0F
:10C0300003E0401C00E000202070207861788142FD
:10C040000FD021786088E26848438018A368CA004E
:10C05000D1189A58898890472078A1888842EADACE
:10C06000E7E710BDC421002030B5CB0008339DB2F6
:10C0700093070024002B01D0072030BD044B9A60A9
:10C080005219DA605C701C7058809980002030BDB5
:10C09000C4210020094B5B68002B07D0002A07D081
:10C0A000002805D00068037C002B03D008207047CF
:10C0B000072070474174426100207047E42100204E
:10C0C00010B50446082902D00020FFF755FF21686B
:10C0D0006068884710BD00001CB501910090034ABC
:10C0E00008216846FFF754FF1CBD0000C1C00100D5
:10C0F000FFB507469007002581B01E46144600286C
:10C1000025D1002C23D007F079F83046114EF0608D
:10C11000304610300570457002998170446075603A
:10C12000357001240C487570240504600321142027
:10C13000FFF788F909480460094CA7600321112022
:10C14000FFF780F96068B060002005B0F0BD0720FF
:10C15000FBE70000D421002080E200E000E100E0E5
:10C1600000150140FEB51F4B5B68002B30D0002846
:10C170002ED0052901D20720FEBD4369002B27D010
:10C18000437C012B26D000270291044600256946F6
:10C1900016460D70684600F03DF801A808F056F903
:10C1A000002819D0012101700F494460496881605D
:10C1B000029907614661C16068460A490079487082
:10C1C0006846007800F044F807F09EFF2846FEBD60
:10C1D0000820FEBD0F46D7E768460425007800F02A
:10C1E00037F8F3E7E42100200015014010B50849B5
:10C1F000496800290AD0002808D04169002905D0E3
:10C2000000210174022107F0A7FF10BD082010BD16
:10C21000E421002030B5EFF3108172B6094A54686A
:10C220000123002C04D00370002900D162B630BD78
:10C230005360054B1D68054C254015601C600022AD
:10C240000270F1E7F821002080E100E0FC06FFBC6D
:10C2500008494A68002A0CD000280AD1EFF3108060
:10C2600072B60A68044B1A6000224A60002800D1A6
:10C2700062B67047F821002000E100E0F8B50746FB
:10C2800008680C460526411C01253602002906D007
:10C290002946814019488160206804F0B5FA606839
:10C2A000411C02D0002104F0A6FA3968A06989195E
:10C2B0004862607D217D3A6808439119C8663868F4
:10C2C00006CC80194261C160207B083C012814D152
:10C2D000A068411C02D0002104F08DFAE068411CE6
:10C2E00005D0854005488560E06804F08DFA3A681D
:10C2F000E1689219A06891601061F8BD00050050D6
:10C30000F0B504468BB0008800F0DAFC0590208878
:10C3100003F0E2F80646A0680090657A6846057466
:10C320001E4F20880022397800F01AFD0598002859
:10C3300031D06079400710D50721304605F0B6FBB3
:10C34000002813D0082269460A7422884A828E8205
:10C35000069004A801F0C8FE08E02088B97800F033
:10C36000EDFC002802D0304603F0A0F80321684617
:10C3700001712188C18060794007C10F6846017250
:10C38000A0794007C10F6846417201788172C57279
:10C3900001A801F0A9FE0BB0F0BD00004C21002067
:10C3A00000B585B014216846FEF7E3FE00210122A6
:10C3B0006846009102710291642101731146203197
:10C3C0004173114620318173002001466846C173D4
:10C3D0001146203101746946044800F011FB002821
:10C3E00001D0FFF7C9FD05B000BD0000C425002045
:10C3F000F0B50546007D002493B00E4600280DD010
:10C40000012001466846103103940173717B41732A
:10C41000817BF92001406846891C81731C2104A896
:10C42000FEF7A7FE6946087C0221084369460874A6
:10C430002A7DEF21002A02D01022104300E008409C
:10C440006A461074059407940894287D002800D04B
:10C4500003A8099001270A9410469771304A8280F8
:10C460000094B27B0270F27B42708078F922104017
:10C47000F722801C1040EF2108404108490068461F
:10C480008170317B017214210BA8FEF772FE01A8A6
:10C490000B9068460C908786C486078702A80F9089
:10C4A000A888AB1D0BAA04A9A2DF002835D1B0686B
:10C4B000002830D0684687711A4981800094317C09
:10C4C000017000200146684641708078F9210840DB
:10C4D000F721801C0840EF210840410849006846C8
:10C4E000817011A8B16800F0C0FE064614210BA8A7
:10C4F000FEF73FFE01A80B9068460C908686C48626
:10C50000068711A80F902A46E8880E320BA9A3DFF0
:10C51000002802D100E0EC81002013B0F0BD000043
:10C52000192A00000829000010B50B490B4807F034
:10C53000C5F8C1B20848183800F028FA002809D018
:10C54000082807D00649884204D00649884201D00D
:10C55000FFF712FD10BD0000DC2500200C2000209C
:10C560000430000001340000F0B50C4693B01F21E8
:10C570006A461180072600279180002809D0C178DB
:10C5800049070DD502A9FFF7C4FA002809D102AD69
:10C5900001E000251780002C0ED0E078002802D0A2
:10C5A000304613B0F0BD01AA0AA92046FFF7B1FA40
:10C5B0000028F6D10AAA02E0684600228780684671
:10C5C0008088C3B268460088C1B2284672DFE8E7B7
:10C5D00010B5FFF7D1FC10BDFFB581B01E460A9F14
:10C5E0001346040047D0002B45D0504D0120287041
:10C5F0000020E870202219464D48FEF7A1FD0020DA
:10C600006F61C0432E612881284607211830FEF74C
:10C61000B0FD47483C212030FEF7ABFD444821786F
:10C6200020300170A1788170E178C170617841702B
:10C630003F4A656923695563114613632031E368F6
:10C64000A268CB608A603A49E369A269CB638A63D6
:10C65000616A00291AD001463C31024648324162E3
:10C660008A60636A1B880B80616A436A8988998043
:10C670000021436A07E00E2005B0F0BD656AAD6891
:10C680006D5C5554491C9D888D42F7D8A16A0029DC
:10C690001CD0274A943211460C398A608162A36A01
:10C6A0009B888B80A16A836A098819800021836A2C
:10C6B00004E0A56AAD686D5C5554491C9D888D42A7
:10C6C000F7D82C210A5D1A4940310A73216A0029E2
:10C6D00009D016490A310162226A52884A80216AC9
:10C6E000026A098811806168002900D04160104AFF
:10C6F0000E490020B3322031C3001B1A85009B185D
:10C700000C68401C63510828F6DB094A0020EB3214
:10C71000030185009B188C68401C63510828F7DBD7
:10C72000034802992030FFF71FFFA5E7C020002033
:10C73000A826002010B50188134C102915D0112906
:10C7400019D01B2910D1007A00280DD1E0780521DD
:10C75000401CFEF7DBFC084600F062F8002803D01E
:10C760006169002900D0884710BD817D0129FBD176
:10C770008088208110BD00216171808821898842D4
:10C78000F8D10120E8E70000C020002010B5022801
:10C7900001D003280ED1084C607800280AD0002070
:10C7A0006070E07800F03CF8002803D0616900294F
:10C7B00000D0884710BD0000C020002010B5084AF6
:10C7C0001179002909D0002111710146044807227E
:10C7D0001830FEF7B5FC002010BD082010BD000089
:10C7E000C020002010B574DF0B4C012060710B4994
:10C7F0000620C87000210948FFF7B6FE002809D1BD
:10C80000E07800F00DF8002803D06169002900D01D
:10C810008847002010BD0000C0200020C82600204E
:10C82000F1B53F4C88B0207800280AD00898E07015
:10C8300006A801F085FF06980125002804D0657040
:10C840006AE0082009B0F0BD3548002707211830FC
:10C85000FEF78FFC334E7078002802D0E078012874
:10C8600007D0B07800280CD0E078012801D0022849
:10C8700007D12169002903D025710820884700E0ED
:10C8800027710898FFF70CFAE0702169002909D098
:10C89000032801D0042805D13078002802D060791F
:10C8A000002811D0A77118216846FEF762FC68467F
:10C8B00007700772E1781A480B001830FEF7A6FEE1
:10C8C000052E080F191D2000A57107208847EAE7EB
:10C8D000A5700190684605704782078213E0022127
:10C8E000A170019068460570B18941823189018249
:10C8F00009E0684607F02AF802E0684607F052F8B7
:10C90000E078002803D0684673DF00289AD12169B7
:10C91000002901D0A0788847002093E7A770F6E7A8
:10C92000C0200020A8260020FFB517480F468179B7
:10C9300081B01E46002907D00021044681712034B1
:10C94000277126730D460DE0082005B0F0BD206864
:10C95000A9004058E9004A1B019951180722FEF727
:10C96000EFFB6D1CBD42F2D3002509E0A068A900D1
:10C97000405803992A0151181022FEF7E1FB6D1C63
:10C98000B542F3D30020E0E7C020002073B586B0A5
:10C9900004002FD06A46217C127F0020914227D0CC
:10C9A00000250126684600950680458007A801906D
:10C9B000E188608A6A46A4DF002819D16846007FB2
:10C9C0002074608A0D49884216D0207D002813D03B
:10C9D0000295039504950595E18868460181867264
:10C9E00041888181049001980590608A02A9A6DFA0
:10C9F00008B070BD0E20FBE70820F9E7FFFF00003C
:10CA000038B50D4604001AD0002D18D028682060D3
:10CA10000020C043608228792075FF202074012106
:10CA20006846817007490180221D69460120A0DF08
:10CA3000002803D129462046FFF7DAFC38BD0E2036
:10CA400038BD00000F18000038B5002824D0002998
:10CA500022D00A88102A1AD0112A1AD0502A1BD1A3
:10CA60000446007D002817D0C8886289891D90423D
:10CA700012D1488902280FD1206800280CD008461E
:10CA80000C3000F0EBFB002807D0002006E089887E
:10CA900001E00021C943418238BD01206946087088
:10CAA00022682046904738BD70B5054601461C22D5
:10CAB0000E48FEF745FB0E4C00262670296800291B
:10CAC00006D00822201DFEF73BFB201D7ADF02E086
:10CAD0000748001D7BDF002807D1401E608066707C
:10CAE000044A00210448FFF7D5FA70BD74280020DD
:10CAF000F0200020D1430200D0480200F8B5214CBC
:10CB00000146028800261E48E589102A13D01E4FD0
:10CB1000112A1FD0122A2BD0502A1AD1881DC98859
:10CB2000A94216D14189022913D10C3000F096FB9D
:10CB300000280CD112E08A8804464280104808225E
:10CB40000C301831FEF7FCFA6670002D01D101F0AF
:10CB500055F9F8BD0021C943418046703868FFF798
:10CB600045FB0028F5D0A1690029F2D08847F8BD1F
:10CB7000034808220C300831FEF7E2FAE7E700002C
:10CB8000F020002074280020D048020010B503498E
:10CB90000A7D091D06F007FC10BD0000902800204A
:10CBA000034B10B50246D97D181D06F0E9FB10BDF8
:10CBB00090280020034B10B50246197E181D06F080
:10CBC000DFFB10BD90280020F0B5044602883A48EB
:10CBD0008DB0014615310191102A09D0112A50D08B
:10CBE0001A2A4AD1217A090901294ED901234DE097
:10CBF000027D417D05468A43011D07A806F0D3FB4F
:10CC0000142207A902A8FEF79BFA00262A483746F5
:10CC1000143008900AE0710002A8081883881D22C9
:10CC20000097281D089906F06BFB761C0298B0420D
:10CC3000F1D8287DA688C043C0B206F085FB1F4905
:10CC4000884217D040004019868001233246281DB3
:10CC5000019906F0CBFB01233246281D089906F006
:10CC6000C5FBA07D02280AD000231349A2881631F3
:10CC7000281D1DE00420FFF77FF90DB0F0BD012352
:10CC8000F3E70023A288001D12E000230A490546AD
:10CC9000A2881731001D06F0A9FB207A000902289E
:10CCA00001D9012300E000230349A2881831281D7F
:10CCB00006F09CFBE1E7000090280020FFFF000049
:10CCC00070B50B4E05460024317D2A46301D06F016
:10CCD00057FB002809D0B17D2A46301D06F050FBD5
:10CCE000002801D0022400E00124204670BD00008D
:10CCF0009028002010B50024204607F09BFB002858
:10CD000005D0641CE4B2182CF6D3182010BD0448DA
:10CD100001220168A24011430160204610BD0000BD
:10CD20009028002010B5044607F084FB002802D0AC
:10CD300001480019407E10BD9028002070B50546BE
:10CD40000C46084607F076FB002806D003482A4622
:10CD50000119497E001D06F013FB70BD90280020CC
:10CD600070B5064615460C46084607F063FB0028DA
:10CD700007D004482B4601193246001D193106F030
:10CD800035FB70BD902800207CB5054608880C4610
:10CD90000930904201D90C207CBD684671DF002823
:10CDA000FAD121880820685420881B21401C80B2B9
:10CDB00020802954208800A9401C80B2208040197E
:10CDC00006220131FEF7BCF920886946801D80B239
:10CDD00020800978002900D0012129542088401C96
:10CDE000208000207CBD00007FB5044601216846FC
:10CDF00081714A4981804A4A01A90120A0DF0028A7
:10CE00007ED1228825463C35002A09D044482B464D
:10CE1000801C00904348616800F0BAFE00287BD176
:10CE20002289002A0AD03E482B460A3000903D480D
:10CE3000E168401F00F0ACFE00286DD1228A002A74
:10CE40000AD037482B461230009036486169001FDF
:10CE500000F09EFE00285FD1228B002A0AD03048C5
:10CE60002B461A3000902F48E169801E00F090FE9A
:10CE7000002851D1228C002A0AD029482B46223082
:10CE800000902848616AC01E00F082FE002843D14D
:10CE9000228D002A0AD022482B462A3000902148B1
:10CEA000E16A401E00F074FE002835D1216B002994
:10CEB0000ED002A807F0BEF819482B463230009079
:10CEC0001848082202A9801F00F062FE002823D122
:10CED000606B00280BD012492B463A310091027941
:10CEE00001681048401C00F053FE002814D1A16BCB
:10CEF000002910D002A805F0B5FD0948423000E035
:10CF00000AE0009007482B46072202A9273000F0CC
:10CF10003FFE002800D1002004B070BD0A180000B8
:10CF200066210020292A000010B50446FFF74CFEB8
:10CF3000204605F093FB204600F018FB204604F045
:10CF400079F82046FFF7F6FB2046FFF7D7FD21468C
:10CF5000034800F01BF921460248FFF775FD10BD9C
:10CF60004C240020C425002030B5FF300C46413051
:10CF7000C18E104B85B0994219D06B461C800021A0
:10CF80000191029103910491C5899D8001259D71B4
:10CF9000198103930492C08E01A9A6DF002804D151
:10CFA00069460988A14200D00C2005B030BD082098
:10CFB000FBE70000FFFF0000FEB50546887A0C463F
:10CFC0000A2805D8207C0A2802D8207E0A2801D900
:10CFD0000720FEBD2068286060686860A07AA87499
:10CFE000217C78204155217EDE204155FF20002103
:10CFF0007730C943415301216846817138498180A6
:10D000002A46083201A90120A0DF0028E1D100262C
:10D010002746203709E0A06B7100415A28896A46EB
:10D02000A1DF0028D5D1761CF6B2B87DB042F2D887
:10D03000207A002802D1607A002806D021463C31AF
:10D04000284605F02BFD0028C3D12146284602F0D2
:10D050000DFB0028BDD12146284604F029FA0028FE
:10D06000B7D12146284601F03FFA0028B1D1214628
:10D07000284605F0E3FF0028ABD1207A002812D023
:10D080002846FF304F30234600904333082215498D
:10D09000284600F02BF900289BD12146284600F0B5
:10D0A0007DF9002895D1607A00280DD02846FF3000
:10D0B0005F300C4923460090403308221131284646
:10D0C00000F014F9002884D12146284601F0B2FF6F
:10D0D00000289BD121463E31284601F065FFFEBD68
:10D0E00012180000222A000030B51546827C87B055
:10D0F0008A422ED90A2251430A18FF304130C18E8C
:10D10000164C1432A14222D069468D80002402942C
:10D1100003940494059412880A8101228A728C81F6
:10D1200001A904910593C08E02A9A6DF6946009566
:10D1300004468B8802460AA1032003F067FE002CF8
:10D1400008D168468088A84204D00C2402E0082454
:10D1500000E00724204607B030BD0000FFFF0000BC
:10D160004150503A494E464F3A6572725F636F6460
:10D17000653D25642C206876785F6C656E3D25647E
:10D180002C206C656E3D25640D0A000030B5044608
:10D190000A88FF30413087B0102A22D0112A39D0B6
:10D1A000502A3BD0512A1AD10D46881D8979012970
:10D1B00015D141886A46204605F0DCFF00280ED0D4
:10D1C0002168204600290AD0072269460A710A8888
:10D1D0000A814A884A810595026801A9904707B0EB
:10D1E00030BD8988C18661890029F8D0012269464D
:10D1F0000A72002300930A804B8002A90191618981
:10D20000C08E6A46A4DF0028E9D061680029E6D014
:10D210008847E4E70021C943C186E0E7204604F0DF
:10D2200085F8DCE77CB500250095069C6D462A80D4
:10D230000A22514309186B8040310194FF3041307C
:10D24000498FC08E6A46A5DF7CBD70B504460D4689
:10D250000846FDF799FF2080656070BD417802782F
:10D2600008021043C007C00F70470A78027049785F
:10D27000417002207047000000B5174887B08068F1
:10D280000590164B4822164905A806F08FFE002887
:10D2900001D0FEF771FE6A460121002006F05AFE19
:10D2A000002801D0FEF768FE684606F001FE00285F
:10D2B00001D0FEF761FE0B4806F0F0FD002801D01A
:10D2C000FEF75AFE084806F0A3FE002801D0FEF73C
:10D2D00053FE07B000BD000090480200913F0200DD
:10D2E0005423002029CF010025400200FFB500246F
:10D2F000601C91B000070F46000F69461030029481
:10D30000087218784872887AF9263040801C887232
:10D310001D461C2103A8FDF72CFF6946087B02214E
:10D32000084369460873A9780A07F721002A02D042
:10D330000822104300E00840102210436A46107390
:10D3400002A804940890069407940994012090710F
:10D350009780009468781070A8785070907830406A
:10D36000801C0840EF2108404008400090701421C4
:10D370000BA8FDF7FEFE01A80B9068466A460C90CC
:10D380009486D4861398108711980F9400890BAA5D
:10D3900003A91A9BA2DF15B0F0BD0000F0B58FB055
:10D3A0000D4606461C216846FDF7E3FE68460178F7
:10D3B0000E200143684601700024019403940494F4
:10D3C0000594012708A806948770164968460184C9
:10D3D00046200794415D68460177433529794177B6
:10D3E000807FF9210840F721801C0840EF21084088
:10D3F0004108490068468177142109A8FDF7B9FE64
:10D4000008A8099007A80A9068468485C4850786FD
:10D4100033460D94FF333089573309AA6946A2DF9A
:10D420000FB0F0BD322A00000149085C70470000CF
:10D43000A04802000549095C05480069C840C007CA
:10D44000C00F00D00120012148407047A0480200D1
:10D450000005005005490B5C05494A6801209840C9
:10D46000034693438B601040C86070479C4802009D
:10D470000005005010B50349085C012103F0F0F9E4
:10D4800010BD00009C48020010B50349085C002153
:10D4900003F0E6F910BD00009C4802000549095C54
:10D4A00005484068C840C007C00F00D001200121D6
:10D4B000484070479C480200000500507CB500249D
:10D4C000074E2546305D0122009500231146019547
:10D4D00003F04CF9641C042CF4D300F003F87CBD79
:10D4E0009C48020010B500242046FFF7C3FF641CCF
:10D4F000042CF9D310BD10B500242046FFF7C4FF5B
:10D50000641C042CF9D310BD0246002010B5C043A2
:10D51000054B00215C5C944201D1084610BD491CBA
:10D520000429F7D310BD0000A048020070B50E4ECC
:10D5300000250C46306000290DD0012000F0AEF827
:10D54000002801D0022005E0002000F0A7F8002804
:10D5500000D00B2020707068002802D1FEF7D4FBA9
:10D560000546284670BD0000B820002010B51C4CB0
:10D570000188606810290DD011290AD1401E606011
:10D5800007D1FEF7C1FB002803D02168002900D095
:10D59000884710BD00281ED100210122084600F056
:10D5A000CBF8002801D0072811D107220221012041
:10D5B00000F0C2F8002801D0072808D10422022177
:10D5C000002000F0B9F8002805D0072803D0216812
:10D5D000002900D088476068401C606010BD0000D2
:10D5E000B820002010B5002000F0E4F9002801D098
:10D5F000062807D1012000F0DDF9002801D0062817
:10D6000000D1002010BD0000F3B581B00D46019897
:10D61000FFF77AFF0446042813D21D481D4F1E4E03
:10D62000002D27D0012D0DD0022D0AD16000201829
:10D63000C0194578002D04D0F168002901D0284692
:10D640008847FEBD610061187D5CCF19797800299B
:10D650000BD071680A2251430F4A8068921CFEF772
:10D6600081FD002801D10198B0700B48B9781030C5
:10D670000155DFE78068FEF7B9FD074861006118D2
:10D680001030C919005D8D78A842D3D0FEBD0000CE
:10D69000A44802007C260020A420002010B5FFF73B
:10D6A000C9FE10BD10B5021F224C2149E0881300AD
:10D6B000FDF7ACFF0E0B0A0A130A0A080A0A0A1A37
:10D6C0002F33390A06F098F910BD132176DF08E0F0
:10D6D0000028F9D0FEF750FC10BD8842FCD1FFF7BE
:10D6E00081F80828F4D110BD8842FCD001202169BE
:10D6F00002F07EF82069401C2061E078401CC0B236
:10D70000E0700E28EFD10B482C3020610020E07033
:10D7100010BD8842FCD0012002E08842F8D04020B1
:10D7200002F088FC10BD8842FCD08020F8E70000A1
:10D73000FFFF0000E81F002070B50023042811D26D
:10D74000440004190D4D012A02D101290DD00022F7
:10D7500046008019094E801900290CD0012906D0F5
:10D76000022906D00723184670BD0E30C2B22A55D2
:10D77000F9E74270F7E78270F5E700007C260020A9
:10D7800010B5054A0146127A0020D20702D0084699
:10D7900000F050F810BD0000A4200020F8B50646A7
:10D7A0001F4800248660C26041600F46B00720D544
:10D7B0000025012211462846FFF7BEFF6D1C0446D6
:10D7C000042D02D2002CF4D013E0002C11D17A08E1
:10D7D00004211448FEF772FB04000AD1FEF75CFB3B
:10D7E000040006D10F48104A0021001FFEF752FC2A
:10D7F0000446F00701D0FFF761FE002C0ED1094866
:10D800000A4A00210C38FEF745FC040006D1054801
:10D81000074A01210838FEF73DFC04462046F8BDC2
:10D82000A4200020B048020011DB010041F80100F3
:10D830008FBE0100F8B55D4C0546607800260028D3
:10D8400003D000206070FFF74DFE0120584F2B00E1
:10D85000FDF7DCFE18970D0D2E3D4A5F64686F687A
:10D860006FA97777777777979A9DA0A9A9950020D8
:10D87000FFF714FE00280AD00020FFF7FBFD022D61
:10D8800002D1E120C0000BE07D20400108E0002033
:10D89000FFF7FAFD022D01D1C82001E0FF209130F1
:10D8A00025706421FDF732FC6168414300222BE0C2
:10D8B0000020FFF7F3FD002805D00020FFF7DAFD78
:10D8C00019204001ECE70020FFF7DEFDE4E700202F
:10D8D000FFF7E4FD002803D00020FFF7CBFDD3E7DE
:10D8E0000020FFF7D1FDD9E70020FFF7D7FD002882
:10D8F00003D00020FFF7BEFD02E00020FFF7C4FDCB
:10D9000025706068410000223868FEF72BFC06464F
:10D9100035E00020FFF79EFD257007E000203FE086
:10D9200025702CE060700120FFF794FD00226168F3
:10D93000EAE760700120FFF78DFD60688100411803
:10D94000E1E77868FEF752FC06461120401B01D043
:10D95000002E03D00220FFF78DFD10E001280BD927
:10D96000C82148436421FDF7D1FB6168002241438F
:10D970007868FEF7F7FB06460220FFF785FD304684
:10D98000F8BDFFF7AFFDCBE7FFF7ACFDC6E7FFF74C
:10D99000A9FD04E0FFF7A6FD0020FFF775FD0120BB
:10D9A000FFF772FDBCE7FFF7A6FDB9E7A420002052
:10D9B000A448020010B5FFF737FD032102F02EFF47
:10D9C000002010BD002901DA0020704702685118BC
:10D9D0000160012070470000F8B50D46461C00208C
:10D9E0006946087001246846FEF714FC134A106863
:10D9F0002860116850689368081A1D1A701C6D1C05
:10DA0000A84212D9002D0ED00D480E4C0088246873
:10DA100080051940800DA402890020438918C86040
:10DA20001068401C1060002401E0881910606846EE
:10DA30000078FEF70DFC2046F8BD00000C300020F9
:10DA4000E0490200702200207CB5194C0146A27FFB
:10DA50000020002A19D0227F0C2326465A43203E5C
:10DA60009519002913D001A800902B786A7869686D
:10DA7000A86805F0B1FD0F49884208D169466A7867
:10DA800089888A4203D329707CBD05207CBD227F12
:10DA90000C235A43002192195160227F521CD3B2A9
:10DAA0002377A27F521EA277052BEFD121777CBD71
:10DAB0001C26002004300000F0B50F4C0646A57F60
:10DAC0000020062D15D0657F0C277D432746203F7B
:10DAD000ED19AE6069602B706A70A17F491CA17757
:10DAE000617F491CC9B26177052901D100216177A5
:10DAF000F0BD0420F0BD00001C260020034803C830
:10DB0000814201D101207047002070470C30002075
:10DB100010B500780221FFF777FD10BD0022D24337
:10DB2000830004490428CA5002D308182030027721
:10DB300070470000042D0020F0B50025ED43002AB9
:10DB400002D00023042601E0042308260B4C04E045
:10DB50009F00E7597F1C04D05B1CB342F8D32846D2
:10DB6000F0BD26185DB2203635709E00A151002A06
:10DB7000F5D1E11820310877F1E70000042D0020ED
:10DB8000024909182020085670470000042D002083
:10DB9000FFB58FB01E4615460F0002D10020FEF7DC
:10DBA000EBF9002D02D10020FEF7E6F91C216846B2
:10DBB000FDF7DFFA684601780220014368460170EC
:10DBC00000240194039404940594012108A8069468
:10DBD000817068460F9901840794317801777178D4
:10DBE0004177807FF9210840F721801C0840EF2110
:10DBF00008404108490068468177142109A8FDF7CB
:10DC0000B8FA08A8099007A80A9068468585C485CF
:10DC1000058604480D9709AA69460088189BA2DF6B
:10DC200013B0F0BD66210020002807D004498142CE
:10DC300004D80449814201D901207047002070476F
:10DC40008C2200209C220020044A0168914201D0CD
:10DC5000083101E00149383901607047642E002025
:10DC600070B50D4D04460A462846AC4208D1FF2443
:10DC700001342146104604F0A1FCA0420AD070BD38
:10DC8000FF2CFCD82146104604F08AFC002801D065
:10DC9000204670BD284670BDFFFF000070B5084CDF
:10DCA000050009D010342168002907D008682060D9
:10DCB000496828468847F6E70834F4E770BD000055
:10DCC000F02C0020F8B52348416800293ED00E68AA
:10DCD00021494C6887688078E11B0D022D0AED1CF4
:10DCE000002814D101201D4A000450601B4A403A0C
:10DCF00050601B49400008601A4908601A49012019
:10DD000008602F2002F068FA124901208870B5429D
:10DD100000D23546E81900020F4B000A4033186064
:10DD20000D4A5168001B091B0902090A0002000A7A
:10DD3000C91C814209D9506818602F2002F04CFAA2
:10DD400001200749400480390860F8BD05F056FA03
:10DD5000F8BD0000D421002000150140401301400F
:10DD600080E200E000E100E000100140F8B5064666
:10DD7000108814468446801D0D46984201D90C2017
:10DD8000F8BD32880720062AFAD31927FF01184B5D
:10DD9000BA4201D99A42F3D171880629F0D3B94227
:10DDA00001D99942ECD19A4203D0994201D08A42DA
:10DDB000E6D805216046295420881221401C80B2F3
:10DDC000208029542088401C80B22080411930884E
:10DDD00006F0F8FA2188401880B220804119708836
:10DDE00006F0F0FA2188401820800020F8BD0000DD
:10DDF000FFFF000010B5FEF7BFF810BDF8B51648DC
:10DE000001F0B2FC144D00260C3D144C002807D044
:10DE1000616900291CD001206A461070684616E02E
:10DE20002878002805D06169002911D0684606705D
:10DE30000DE0687800280DD0A1680948002200682C
:10DE4000FEF790F9002803D0A169002900D0884787
:10DE50002E70F8BD6168F0E7FC20002074280020D7
:10DE6000D0480200F0B585B00C46002802D0012051
:10DE700005B0F0BD207900270126002806D01F4DEF
:10DE8000012820D002282CD00F20F1E70297039719
:10DE9000E0680190694601A804F06EFF00280ED0EA
:10DEA00002988188E18000882081029804F0DEFFDA
:10DEB000694609880A01124951188E7300E00A2048
:10DEC00002212171D4E70F4B6A460021A01D04F006
:10DED00011FF002807D00B4908398F60CF600A284E
:10DEE000C6D12846C4E7019804F0C0FF05498988D7
:10DEF0000A01034951188E73F1E700001D1D00004F
:10DF0000742E002008220020F8B500260124154DAB
:10DF100023E06968F0004718387821462A69814073
:10DF2000114218D08A432A6102F082FA3A782146D7
:10DF3000EB68914019400346934099420BD17978A0
:10DF4000012901D0012100E000217B684140002B24
:10DF500001D010469847761CF6B228788642D8D36E
:10DF6000F8BD0000B021002010B50E4900230A784A
:10DF70004C78A24212D0521CD2B20A70022A00D1AE
:10DF80000B700A78074B920018339A580260886821
:10DF900010180002000A8860012010BD03600020F4
:10DFA00010BD0000D42100203EB5094D38CD0093AE
:10DFB000029501946B46588099809A710549002218
:10DFC0000978FEF7CDFE684600F08EF83EBD0000F1
:10DFD000444902004C21002010B50478002223009F
:10DFE000FDF714FB070605070D1D262C06000A7019
:10DFF00010BD01220A7002898A81828814E00222FF
:10E000000A7002898A818288CA81C2688A60007C1B
:10E01000062802D00020087410BD0120FBE703226F
:10E020000A70C2888A810289CA81C068886010BD6E
:10E0300004230B70C0888881CA8110BD0520087038
:10E0400010BD000070B5064D06460024A0002958FA
:10E05000002901D030468847641C082CF6D370BDD7
:10E06000942D00200EB5002910D011290ED00022C9
:10E07000009202926A46508001910D2907D08629AC
:10E0800007D009201070104600F03CF80EBD0B20A0
:10E09000F8E70A20F6E70000014909680847000090
:10E0A0000C21002070B5054D06460024A00029581B
:10E0B00030468847641C022CF8D370BDEC4802003F
:10E0C000F8B507460024064E064D04E0A00031587E
:10E0D00038468847641CE8788442F7DBF8BD0000C6
:10E0E000A42C00203C21002070B5054D06460024DC
:10E0F000A000295830468847641C022CF8D370BD14
:10E100000C49020001490968084700005049020013
:10E110007FB50446406800280BD00020039020788B
:10E120000026414D0300FDF771FA066D0606304EDC
:10E130007B6D0120F2E7A08900F00CFA002804D1E1
:10E14000E08904F0ABFE00285CD0A08900F0FDF966
:10E15000014668464180E08904F09AFE014668461F
:10E16000017120780128606807D0002809D00420B8
:10E17000694608706068039020E00028F8D003200A
:10E18000F6E70120F4E708463AE0A08900F0E2F95A
:10E19000002804D1E08904F081FE002832D0A08953
:10E1A00000F0D3F969464880E08904F071FE6946C1
:10E1B00008716068002804D005200870A0680290EB
:10E1C000E1E70220F9E7A08900F0C4F9002819D09E
:10E1D000E089002816D1A08900F0B7F96946488087
:10E1E000E08904F055FEFF20694608716068002848
:10E1F0000FD0072008706E70AE7003F031FE6846D5
:10E2000003F0ECFC6878002802D06E7003F028FE62
:10E210007FBD062168460170408803F0AFFEEAE743
:10E22000082069460870AEE72821002000B5104993
:10E2300087B00978890702D4022007B000BD0D49D4
:10E24000884201D10420F8E7052269460A700122BC
:10E250000A71C88000221146684603F0EDF80028D4
:10E2600003D004F023FD0020E7E70820E5E70000E5
:10E2700000220020FFFF000000B50F4887B00078A3
:10E28000800702D4022007B000BD0620694608704E
:10E2900000221146684603F0CFF8002809D007484D
:10E2A0000178002901D00121017304F0FFFC002056
:10E2B000E9E70820E7E7000000220020942E002074
:10E2C00000B58DB014216846FCF753FF1E48007856
:10E2D000810703D56846FFF7B5FE32E0C00730D1AD
:10E2E000012000F05DF900F0D5F903F067F900288E
:10E2F0000ED006280FD001216A4611750300FDF7E4
:10E3000085F90C191119111918191819131613195F
:10E310000B200DB000BD022000F042F9012000F0FA
:10E3200025F9D7E7002000E00320107602E0022064
:10E33000FBE711760022114605A803F07DF804F0F2
:10E34000B5FC0020E5E700000022002038B50400FD
:10E3500014D0694604F010FD002813D068460088E8
:10E360000101094809188889002809D0A27A002AE1
:10E3700006D0401E88810020A07238BD052038BD1F
:10E38000062038BD0A2038BD742E00201FB501A913
:10E39000684604F0AFFC04B010BD07B513460A464A
:10E3A0006946002004F0A6FC0EBD07B513460A46D8
:10E3B0000021684604F09EFC0EBD002805D000290F
:10E3C00003D00068086000207047052070470000F7
:10E3D00038B50D46040017D0002D15D0694604F05D
:10E3E000CBFC002812D0684600886168020108480A
:10E3F00012189089401C9081296060680C30686018
:10E400000120A072002038BD052038BD0A2038BD8B
:10E41000742E002010B5002804D00323002206F03B
:10E4200005F910BD052010BD10B50223002206F02D
:10E43000FDF810BD10B5002A03D0022306F0F6F84F
:10E4400010BD052010BD000010B5064A51780829FE
:10E4500006D08B00044C491CE0505170002010BDC8
:10E460000C2010BD00220020942D002038B5044659
:10E470000A480D460078800701D4022038BD002CE0
:10E480000AD06946284606F0DDF90028F6D169462B
:10E4900009882180658038BD052038BD0022002014
:10E4A00010B504460E480078800701D4022010BD44
:10E4B000002C10D0218802290FD80A4A08018018A0
:10E4C00042896088121A032A07D406F0B1F90020A5
:10E4D0002080608010BD052010BD042010BD00000C
:10E4E00000220020742E00207FB50646087E0D46CF
:10E4F000002827D0E869002824D000241FE0E8691C
:10E50000E1004318002069460390087B0A21084374
:10E5100069460873D9790A2060438019C907C90F71
:10E52000E0301A1D0191029000921A8803A930462A
:10E530009B1C04F0F7FC002805D1641CE4B2287E83
:10E54000A042DCD8002004B070BD03218903401A2A
:10E5500080B2704703218903401A0349884201D8D9
:10E560000120704700207047FE3F000002490A78F2
:10E5700082430A70704700000022002010B5044654
:10E580000078182802D1FEF7B5FB207010BD10B539
:10E5900004460078182802D1FEF7ACFB207010BDAD
:10E5A00002490A7802430A707047000000220020E6
:10E5B00070B5064600200546862906D0112902D0EE
:10E5C000002903D070BD012500E001200E4C002A77
:10E5D00002460FD061793046FEF7C2FB2A46217908
:10E5E0003046FEF7BDFB002261783046FEF7B8FBEF
:10E5F000002204E061783046FEF7B2FB2A4621781B
:10E600003046FEF7ADFB70BD50210020F8B5064640
:10E610001C481F46007815460C46C0070AD03046F5
:10E62000FFF702FB002807D0002C07D0A00507D079
:10E630000620F8BD0120F8BD0220F8BD0320F8BD7A
:10E640003068A04204D8A80271680019884201D934
:10E650000520F8BD002D10D0684604F079FA002896
:10E660000DD000980221C0C00170A101090C818069
:10E67000058104F029FB0020F8BD0420F8BD072027
:10E68000F8BD00001822002010B5084604F07CFAFE
:10E6900010BD0000F0B52648264C001B0309264893
:10E6A00019464069421C03D10120000740698002DD
:10E6B000224A12789646D2070CD00020F0BD1D4C9D
:10E6C00015012C192568002D03D06468002C00D09A
:10E6D000491E521C9A42F2D3002420E0E2B20025E7
:10E6E00094462A460FE0134E1701BE193768002FD3
:10E6F00002D07768002F05D1767BAE4202D935462D
:10E70000D6B2B446521C9A42EDD362461501094A6C
:10E71000AA185060157BAD02401B641C10608C422F
:10E72000DCD306487146012211430170C5E70000A1
:10E730009C2200208C2200200010001018220020B3
:10E74000002804D00349496E01600020704703206F
:10E7500070470000A42E0020F8B507461E481E464C
:10E76000007815460C46C0070ED03846FFF75CFA15
:10E7700000280BD0002D0BD0002C09D028462043B8
:10E78000800707D00620F8BD0120F8BD0220F8BDA3
:10E790000320F8BD3868A04204D8B1007868091990
:10E7A000884201D20520F8BD002E11D0684604F041
:10E7B000CFF900280ED0009806990760416001212A
:10E7C0000172C5600461868204F07EFA0020F8BD03
:10E7D0000420F8BD0720F8BD1822002070B5174BA3
:10E7E0000446186E182148431549C0180A78950741
:10E7F00015D5022C02D0032C1CD102E002F034FD0E
:10E8000018E04A78521CD2B24A70032A12D9002268
:10E810004A70082104F0BCFE04F084F90AE05007B5
:10E8200008D5FB2002400A70586E002802D0022052
:10E8300002430A7004F004FA70BD0000A42E002008
:10E84000182200200EB51120694608720D220FA172
:10E8500002A87CDF002801D0FDF78EFB0F4878DF8F
:10E86000002801D0FDF788FB0020009001900620D1
:10E870006946088018224A8088802B20C880684614
:10E880007ADF002801D0FDF777FB0EBD4D6F786968
:10E890005F4B6579626F617264000000C103000024
:10E8A00070B5002801D0012070BD164C0025207BDA
:10E8B000002801D0257301E000F09CF820780300C7
:10E8C000FCF7A4FE081E05080B0E1E111A1E00F010
:10E8D0001BF870BD00F07EF870BD00F061F870BDEF
:10E8E00000F038F870BD60880649000120394018F2
:10E8F000406802F043FE70BD656002F04DFE70BDE1
:10E900000F2070BD942E002070B5104900208A1C85
:10E910000D460346203D0C18A67A002E08D0A3729F
:10E9200004016419A689002E02D1A47B012C08D011
:10E93000401C80B20228EED30B704B8004484B6021
:10E9400070BD108000F046F870BD0000942E0020CD
:10E950001D1D000010B50F4C6088010120462038B5
:10E960000818818900290BD0052020700A4802214F
:10E9700081800168002301220848FFF747FE10BD8F
:10E980004168002301220548FFF740FE0421217061
:10E9900010BD0000942E0020102200208C220020A8
:10E9A00038B50A4908480B688988426889005918AF
:10E9B0005388032404700020DB1C00909BB20448A1
:10E9C000FFF7CAFE38BD0000942E00201022002060
:10E9D0008C22002010B506494888091D04F01CFA55
:10E9E000002802D0FFF7DCFF10BDFFF7B3FF10BD1A
:10E9F000942E0020F0B51D481D49077802460125D8
:10EA000002268C88203A3B00FCF700FE0805171709
:10EA10001A212C2C16170189491C018100214180E3
:10EA200001730B01D35C002B08D000234418491C50
:10EA300089B2A3720229F4D30570F0BD0123F5E772
:10EA400042685288D21CA2188A800670F0BD4588A0
:10EA50000B682D01AA1855680D60536014818E80D3
:10EA6000062100E007210170F0BD0000942E002077
:10EA700010220020F0B504460088384D8DB0502893
:10EA80001DD0522802D0542826D103E0A08801F0DE
:10EA90001DF921E0062069460870A08800F01CFDE1
:10EAA00069464880A2888A8000F054F9A088002234
:10EAB000E978FEF755F96846FFF7EEFA0CE0207B9F
:10EAC000012809D1A07A012806D120892449884249
:10EAD00002D1A08801F036F9A878FEF723F90028C2
:10EAE00019D008A8FEF752F8142208A903A8FCF7C9
:10EAF00027FB002403AE0BE060008719B888A978D3
:10EB0000FEF71CF9002802D0B88801F0DFF8641C79
:10EB10000398A042F0D86878FEF704F9002819D0CD
:10EB200008A8FEF733F8142208A903A8FCF708FB8D
:10EB3000002403AE0BE060008719B8886978FEF7FF
:10EB4000FDF8002802D0B88801F0FCF8641C039896
:10EB5000A042F0D804F0DEFD0DB0F0BD042100208D
:10EB6000022900003EB50446408869464880207866
:10EB7000002814D001281DD002280FD120790028A8
:10EB80000CD0608800F0DAFB0E49884206D00E49AE
:10EB90000122C978FEF7E4F804F0BCFD3EBD002078
:10EBA00008700846FFF778FA608800F0C7FB01F0AC
:10EBB0008DF83EBD012168460170A1888180FFF774
:10EBC0006BFA3EBDFFFF00000421002010B5044693
:10EBD000007801280DD1608801F078F8608800F095
:10EBE0007DF9002805D0034960880122C978FEF725
:10EBF000B7F810BD0421002010B5104C0020207083
:10EC0000FEF778F86070FEF775F8A070FEF772F8FE
:10EC1000E070FEF76FF82071617818290BD0A178A9
:10EC2000182908D0E178182905D0182803D0012028
:10EC30002070002010BD032010BD00000421002022
:10EC4000F0B585B000F09EF86846FDF79FFF002400
:10EC50006D460C4F0EE060004619B08800F03CFC99
:10EC6000B84205D10849B0880122C978FEF778F882
:10EC7000641CA4B20098A042EDD804F04BFD05B08E
:10EC8000F0BD0000FFFF00000421002010B5017856
:10EC9000072902D1408801F055F810BD10B504468F
:10ECA0000A4841782046FEF749F800280CD0084869
:10ECB00000210C224A4312185288A24201D1C8B244
:10ECC00010BD491C0829F4D3FF2010BD1C210020D1
:10ECD000C428002070B5094D094E00240C20604363
:10ECE000401940887178FEF729F8002804D0641C88
:10ECF000082CF3D3FF2070BDE0B270BDC428002003
:10ED00001C210020F8B50746104E0125BD40306893
:10ED1000FDF76CFA00280DD10D4C2069284207D16F
:10ED2000384601F085FB0028E06804D0284303E062
:10ED3000A8432061F8BDA843E06020690022284371
:10ED40002061A1683068FDF70DFAF8BDA449020002
:10ED5000B02100201CB5054A9168D268019200914B
:10ED60000022694602F002FE1CBD0000D8480200E5
:10ED700003480021C94381800121017000207047B0
:10ED80001021002010B5044802F01CFD03498880C2
:10ED900004F0ECFC10BD0000FFFF0000102100207B
:10EDA000F1B582B0029800F097FB002416490325C4
:10EDB00001272646884209D06A46082102F0ACFDA8
:10EDC000002803D1019886880568841D2B463246A9
:10EDD00021460298A9DF042804D0082804D00B2873
:10EDE00007D002E0112000E00020002F00D10B200E
:10EDF000FEBD0027A80701D50125E7E73443F6D07B
:10EE0000002426460325E1E7FFFF0000F1B582B0AC
:10EE1000029800F061FB07461B48874201D11B485E
:10EE2000FEBD01252A466D1C0026ADB26B460821A9
:10EE3000384602F0A1FD040002D0072C21D021E0C9
:10EE4000019903230B600A1D891D0298AADF0400A3
:10EE500004D00C2C08D0052C08D008E00821384636
:10EE600002F024FE04460DE0012600E00024082103
:10EE7000384602F005FE002800D00324002ED1D130
:10EE800000E00C242046FEBDFFFF00000230000021
:10EE90001FB504460078012813D12079012810D12C
:10EEA000608802AA012102F037FD002809D1022161
:10EEB0006846017061884180012101710549096836
:10EEC00088470448044908388088884201D004F003
:10EED0004DFC1FBD18210020FFFF00001CB500F0F5
:10EEE000FBFA6A46012102F017FD002801D000203C
:10EEF0001CBD019800781CBDF8B5074E074C084DA5
:10EF00000746324661883846A7DFA84203D16088A9
:10EF1000401C6080F5E7F8BDFFFF000010210020D5
:10EF2000033000008188054A914204D000880028FF
:10EF300001D001207047002070470000FFFF000053
:10EF400008B500206946087001466B4601220A4850
:10EF5000FEF7CAF8002809D0082807D007498842D8
:10EF600004D00749884201D0FDF706F805A1032027
:10EF700001F0C0FE08BD00004C2400200430000059
:10EF8000013400004150503A494E464F3A73656E85
:10EF900064206D656469612072656C6561736520CC
:10EFA0006B65792E0A000000F0B58FB00F4605465C
:10EFB0001C216846FCF7DDF868460178042001430F
:10EFC000684601700024019403940494059401267A
:10EFD00008A8069486701649684601840794397813
:10EFE000017779784177807FF9210840F721801CEB
:10EFF0000840EF210840410849006846817708A889
:10F00000047114210AA8FCF7B4F808A80A9007A80C
:10F010000B90684606864486868609A82B460E9085
:10F02000FF3328896F330AAA6946A2DF0FB0F0BD0B
:10F030004C2A000070B590B00C4606461C2168466C
:10F04000FCF797F86A4610780221084310700025F3
:10F050000195039504950595012008AA06959071E0
:10F060001B486A46908434200795005D1077352050
:10F07000005D5077907FF9210840F721801C0840FF
:10F08000EF210840400840009077208E08AA1070B9
:10F09000000A50703034A0789070E078D07004246A
:10F0A00014210AA8FCF765F809A80A9007A80B9094
:10F0B0006A4614865586948608A833460E90FF3318
:10F0C000308967330AAA6946A2DF10B070BD00001C
:10F0D0004A2A0000F0B599B00024129413941694B3
:10F0E000082110A817940182022686740125C57490
:10F0F000601C0107090F10A8203101752946203135
:10F100004175294620318175058384762946C67666
:10F11000203141770120014610A8203181770581F7
:10F120008572C5720120014610A8203101730120AB
:10F13000014610A8203141730120014610A820315A
:10F140008173032748216846FCF713F83248009082
:10F1500032480190684605724472867212A8039084
:10F160006846057416A805906846047682210794BF
:10F1700081842B48FF21089002316846018608A847
:10F180008474C77484750120014608A820310E9448
:10F1900001730020014608A841730120014608A818
:10F1A000203101750020014608A841750120014663
:10F1B00010A82031C1700120014610A82031017132
:10F1C0000020014610A841710120014610A82031FD
:10F1D00081710120014610A82031C1710120014632
:10F1E00008A8203101770120014608A82031417785
:10F1F0000020014608A881770120014608A8203197
:10F20000C17769460748FDF7D7FE002801D0FCF713
:10F21000B3FE19B0F0BD00003D120200D738020065
:10F22000222000204C2400203EB5044600780D46E4
:10F23000022815D10322611C6846FBF781FF0322D7
:10F24000211D02A8FBF77CFF01AA02A92846FCF7B2
:10F25000F7FD032201A96846FBF79DFF002801D0B6
:10F2600000203EBD01203EBD10B50C46FFF716FD47
:10F27000FF280AD00C21484305490722411820469F
:10F28000091DFBF75DFF002010BD052010BD00002B
:10F29000C428002070B5018890B0102949D1011D03
:10F2A0002C2202A8FBF74CFF6846234E007B344615
:10F2B00002AD03282AD002F001FD6846007B002839
:10F2C0000ED001280CD0022820D118E00E99281D5C
:10F2D0001131FCF70AFC002802D06846048815E0CA
:10F2E0000DAA6946072002F0BFFC0028EED10DE010
:10F2F0000E99281D491CFFF797FF0028EDD10DAA94
:10F300006946072002F0B0FC0028F1D16846008968
:10F31000291D00F009FFB4420BD068460089214640
:10F3200000F088F868460189418001210170FEF7EC
:10F33000B9FE10B070BD0000FFFF0000084A0021B8
:10F340000C234B43D35A834204D10C2041438818E9
:10F3500040887047491C0829F2D3024870470000D2
:10F36000C4280020FFFF00000620704710B50E4C97
:10F37000182060700D4A0E4900200C2343435B188F
:10F38000401C5A800828F8D3FDF7B4FC6070182898
:10F3900004D00548C01C71DF002801D0032010BD37
:10F3A00001202070002010BD1C210020FFFF000064
:10F3B000C428002070B504460D46401C00F006FA33
:10F3C000002810D01022691C601CFBF7E4FE002806
:10F3D0000AD000262946204611311130FCF785FB62
:10F3E00001463046084370BD0126F3E70188002935
:10F3F00003D142189278002A01D001207047491C9D
:10F400000829F6D30020704710B50C460346FFF7D5
:10F41000EDFF00280BD018882188884206D10822E9
:10F42000A11C981CFBF7B7FE002801D0002010BDDE
:10F43000012010BD10B502F0FDFD10BD10B5044651
:10F44000007888B0002826D12079072823D1608849
:10F4500001AA072102F060FA00281CD102F02EFC5C
:10F460001BE0694660880988884216D00499029892
:10F47000FFF7A0FF002810D06088FFF75FFF01466C
:10F480006846C1820021017561880183018841833A
:10F4900005A8FEF707FE08B010BD03AA69460720BD
:10F4A00002F0E2FB0028DCD1F5E7000070B504466D
:10F4B000FFF744FF0546204602F033FA05490446AB
:10F4C0008D4204D0002C02D1284602F0B3FD204624
:10F4D00070BD0000FFFF000010B5FFF7DFFBFF2845
:10F4E00004D00C2148430249085A10BD014810BD00
:10F4F000C4280020FFFF00003EB5044602F0DEFBFA
:10F5000010E0019920464631FFF77EFF002806D122
:10F51000019920462A31FFF777FF002802D068467C
:10F5200000893EBD6A4602A9072002F09DFB002823
:10F53000E7D101483EBD0000FFFF00007CB5144646
:10F540000A000A49897802D015688D4204D3002B3D
:10F5500004D01D688D4201D204207CBD0193134666
:10F5600002460094024802F0B5FD7CBD1C2100203B
:10F570002429002070B50C46054610210948FBF7E8
:10F58000F8FD0948002D09D0002C07D084706200D6
:10F5900029460448FBF7D4FD002070BD002181708E
:10F5A000FAE70000242900201C210020F8B50F46AE
:10F5B000002804D00120FEF7D9FF0120F8BD3979D9
:10F5C00000290AD00026254D01290BD0244C022900
:10F5D00020681FD003293BD125E001F0DDFF012188
:10F5E000397133E000200101695C02290BD0401C15
:10F5F00080B20228F7D30220FEF7D2FF0120FEF7E7
:10F60000B5FF1848F8BD04016019406801F0B6FF65
:10F610002E551BE00146002301221348FEF7F6FF9A
:10F620000221A18011E001F0A9FF0C4923682031DB
:10F6300049880A01094951184D6825604B60A38823
:10F640000B810221A18005498E543E710028D9D03A
:10F650000120FEF78BFF0E20F8BD0000742E002065
:10F66000102200201D1D00008C2200207FB50646C0
:10F67000887A0D46002833D0E868002830D000246E
:10F680002BE0E868E1004318002069460390087BFE
:10F6900002210843694608739979090702D00821B5
:10F6A000084301E0F7210840102108436946087328
:10F6B0000A2060438119D8791431C007C00F1A1D80
:10F6C0000291019000921A8803A930469B1C03F016
:10F6D00029FC002805D1641CE4B2A87AA042D0D845
:10F6E000002004B070BD0000F8B51E4C2078002842
:10F6F00036D0E068002600280CD00025607800286D
:10F700002ED1684652DF052806D0002806D0FCF727
:10F7100033FC0BE00125F1E7012607E0009800F03B
:10F72000B1FD2169002901D000988847002D13D12F
:10F730006078002814D1608869460880A06861DF7D
:10F74000052804D0002804D0FCF716FC04E00125AD
:10F7500002E0E168A0688847002ECFD0002DE5D0F8
:10F76000F8BD0000742200204188054802889142BB
:10F7700004D34088814201D801207047002070479F
:10F78000F42000201048018CC9B2012917D1818CC6
:10F79000090714D1018D09060A0F03D1828D1206C3
:10F7A000120F0ED0090F012903D1828D1206120FFC
:10F7B00007D0032903D1808D0006000F01D000205F
:10F7C0007047012070470000C00F00F00021425C2C
:10F7D000002A01D001207047491C1029F7D30020CE
:10F7E0007047800701D0002070470120704700005B
:10F7F0007CB5044601A800900D46002322460D4822
:10F8000003F0EAFE0C49884209D168468388A34286
:10F8100004D8224629460748FEF74EF97CBD002849
:10F82000FCD00828FAD005498842F7D0FCF7A4FBA1
:10F830007CBD00004C240020043000000134000096
:10F8400010B50448017AC90702D00078FDF7F2FF2D
:10F8500010BD0000A4200020FFB5244D81B0287AFF
:10F860001F460E46084304D0039A002E04D0002100
:10F8700004E0052005B0F0BD1C491031019804F0EA
:10F880000FFA0446014600220198FEF791FE002F70
:10F8900003D021460198FEF7E5FB112C0FD006DCC2
:10F8A000002C0AD0082C08D00D2C05D105E0862CA0
:10F8B00011D00F48C44200D003242046DAE7324674
:10F8C000E9780198FDF74CFAA978039A0198FDF7B9
:10F8D00047FA0024F1E73246E9780198FDF740FA4B
:10F8E000A978039A0198FDF73BFAE6E7502100203A
:10F8F000FECFFFFFFEB517460C00064604D0207869
:10F90000C00704D0012003E000217EDFFEBD0220FD
:10F91000694608713046FFF7DFFD17490546884202
:10F9200008D001A800902B463A462146304600F008
:10F9300025F806E020782146C007304603D000F0C5
:10F9400081F804460BE07EDF044600200090002C86
:10F9500008D0002201232946304603F0E5FD002CA3
:10F9600002D006E00122F5E768460179304603F04F
:10F9700001FE2046FEBD0000FFFF0000FFB585B080
:10F9800000252E4601AA07210E9F089801F0C4FF0A
:10F99000040008D1029D4420405D1835C607F60FCB
:10F9A00001D0029D34350798204312D1002D10D08C
:10F9B000002E05D128461230FFF718FD002808D088
:10F9C00029462A461231059885DF04460020387002
:10F9D00023E0002C01D0052C1FD106980078C00729
:10F9E0000DD003AB01220721089801F0C5FF0400E8
:10F9F0000AD10721089802F0BDF8040004D1069945
:10FA000005987EDF040008D00721089802F038F836
:10FA1000002802D0052800D0032400200090387868
:10FA2000002801D0012300E00023002C07D0002291
:10FA30000899059803F078FD204609B0F0BD012231
:10FA4000F6E70000FEB50F46064601F059FF0546F1
:10FA50001848854220D001AB01220721284601F039
:10FA60008BFF04000AD10721284602F083F8040026
:10FA700004D1394630467EDF040008D007212846ED
:10FA800001F0FEFF002802D0052800D00324012049
:10FA90000090002C0BD002E00324002000900022F4
:10FAA00001232946304603F03FFD2046FEBD0122DA
:10FAB000F6E70000FFFF0000F7B5114D0F461646B0
:10FAC00029780098FDF73AF9002812D00098FFF73E
:10FAD00003FD04460B4884420BD069780098FDF77B
:10FAE0002DF9002806D033463A462146009801F009
:10FAF000DDFDFEBD324639460098FEF755FAFEBDE3
:10FB00004C210020FFFF0000F1B586B00698FDF7FC
:10FB100009F9002821D06846FDF738F800246E4620
:10FB200018E060008519A8880699FDF707F90028F4
:10FB30000FD00B4FA888B978FDF700F90590A88879
:10FB4000F978FDF7FBF80146A8880123059AFFF72D
:10FB500083FE641C0098A042E3D807B0F0BD00000B
:10FB600050210020F0B5284C2146103948688B6898
:10FB7000227886469C46CF78667836E01823534331
:10FB80006168521CC918A378D2B2934200D10022F6
:10FB90000B78022B02D0032B27D123E003464D68BC
:10FBA000194603E0A94204D00B46C96900291CD0BC
:10FBB000F8E7002919D08B4208D1C069002805D187
:10FBC000124F0125BD600025AC4601270D68C969AB
:10FBD000D961002909D00B685B190B6005E001743D
:10FBE000C06900E000210028F9D19642C6D106493B
:10FBF000624610398A604860CF70704501D001209C
:10FC0000F0BD0020F0BD0000E42100200010014004
:10FC1000F8B52C4E044670680025009041E0002C99
:10FC200002D02046E46920E02648182310300178ED
:10FC300042684B43491CC9B2D2180170837899427B
:10FC400000D105701178506801292CD1017C002960
:10FC500029D191684160D16881601169C1605169A1
:10FC60008161F178002900D045604368B268164F81
:10FC7000991A0902090AB94202D28268891806E073
:10FC8000D11A09028268090A8A4202D9511A01600E
:10FC900000E005604560012185600174C56104F0E4
:10FCA0003BFA002CBBD107481030017840788142E4
:10FCB000BAD171680098814201D00120F8BD0020BE
:10FCC000F8BD0000D4210020FFFF7F00FEB50446F0
:10FCD0001948002684422DD02046FFF761F8050020
:10FCE00012D00B2D14D0112D10D01448C5421BD0AA
:10FCF0000921684601702046FFF7EEFB0146684681
:10FD00004180848002950DE0022102E001260BE093
:10FD10000321684601702046FFF7DEFB0146684676
:10FD200041808480FEF7B8F9054832468178204644
:10FD3000FDF716F8FEBD0000FFFF0000FECFFFFF3D
:10FD400004210020FEB504460026FFF75FF80546B3
:10FD5000112818D004DC002D13D00C2D05D114E08F
:10FD6000862D25D01348C5421BD009216846017055
:10FD70002046FFF7B1FB014668464180848002952A
:10FD80000DE0012102E001260BE007216846017029
:10FD900084802046FFF7A0FB014668464180FEF7BD
:10FDA0007BF90548324641782046FCF7D9FFFEBD75
:10FDB0000821EBE7FECFFFFF04210020F8B5054640
:10FDC00000780C46002620420FD1002069460870BA
:10FDD0006846FCF71FFA2878204202D12043287099
:10FDE000012668460078FCF733FA3046F8BD00007B
:10FDF00088B0002001F04EF8002801D0FCF7BCF8D4
:10FE0000544B554A05210020FCF772F9002801D017
:10FE1000FCF7B2F8514A01215148FCF73BF90028A0
:10FE200001D0FCF7A9F84E484E4A0021001DFCF70E
:10FE300031F9002801D0FCF79FF84B4A4B490320C9
:10FE4000FDF7ACFC002801D0FCF796F801A90020D2
:10FE5000FDF76CFB002801D0FCF78EF868460079AE
:10FE6000022874D0002069460870FDF705FA3A4A66
:10FE70000A21C0320820FCF7F7F8002801D0FCF76F
:10FE80007BF86846007802F0E9F8684600780028B8
:10FE900003D037A1032000F02DFFFEF7D3FCFBF7C2
:10FEA00051FF03F01DFD394851210160642141607B
:10FEB0000121816001730146354803F0F3FB1C21E9
:10FEC0006846FBF756F90520C00301900F20000497
:10FED000002402900094032168460173C4810474D5
:10FEE0002C48069005946846FCF7DEFD002801D0FA
:10FEF000FCF742F825482549403004774477847759
:10FF0000002020310C2242435218401C5460052826
:10FF1000F8D321A1032000F0EDFE114801210022B9
:10FF200009040068FCF71EF9002801D0FCF724F84A
:10FF3000FBF742FFFCF77AF800F02AFE0028F9D11F
:10FF400048DF0028F6D0FCF717F8F3E7FFE70120B9
:10FF500089E70000D9C00100DC22002029C501008A
:10FF60009048020041EF0100A5D60100CD0C000031
:10FF70004150503A494E464F3A426F6E6473206585
:10FF80007261736564210D0A00000000DC25002009
:10FF90000C200020F5DD01004150503A494E464FFB
:10FFA0003A484944204B6579626F6172642053740A
:10FFB000617274210D0A000008B5002300936B469E
:10FFC00018809970DA70009808BD70B51446828860
:10FFD0000E4605462088111D4118921C994201D8F1
:10FFE000FE2A01D90C2070BD521C32542088FF21FA
:10FFF000401C80B2208031542088401C80B2208078
:020000040002F8
:100000008119288804F0DEF92188401880B2208008
:10001000AA88002A09D0A968002908D08019FBF70E
:100020008FF82088A98840182080002070BD072004
:1000300070BD000008B500210091694608706B464C
:10004000012200210B48FDF74FF800280AD00828AC
:1000500008D00949884205D00849884202D0FBF7F8
:100060008BFF08BD0748002205494068FCF77AF875
:1000700008BD00004C2400200430000001340000C2
:100080006606000090480200F8B50F460178144655
:100090000546012902D16878002806D02088821CF4
:1000A0009A422DD8012902D006E00720F8BD6978D0
:1000B0004118891C994223D8181A801E86B26846B6
:1000C00006802188B81C081869467DDF0028EDD11C
:1000D0002878022805D169460988B14201D809214A
:1000E0000AE00821012805D16878B04202D86A46A2
:1000F000108001E06846068068460088FE2801D925
:100100000C20F8BD2288401CB8542088401C80B2C6
:100110002080395420886946401C20800988401876
:1001200020800020F8BD0000F8B5FF240F460546EA
:1001300000291FD0104EB5421CD010480122417832
:100140002846FCF70DFE2846FEF7A8FD0446FF28CA
:1001500004D1FEF7BFFD0446FF280BD00C21484315
:1001600007490246401845808E5207223946001D35
:10017000FAF7E6FF2046F8BDFFFF00001C21002033
:10018000C428002070B50B4D0E46A84201D10020B6
:1001900000E0401C84B209E02146304602F028FA13
:1001A000002801D0204670BD641CA4B2FF2CF3D9F6
:1001B000284670BDFFFF0000C20843075B0F012007
:1001C000895C984008407047012189074018006801
:1001D000002800D00120704700280FD00849094AA4
:1001E000096800BF00BF00BF00BF00BF00BF00BF65
:1001F00000BF914200D000BF401EF2D17047000006
:10020000882200200024F40070B50E4C00252078D0
:10021000002801D0852513E00021A16061602161E3
:10022000E160094800680126304002D1032100F056
:100230002FF803F0E7FE002801D1044886612670FC
:10024000284670BDF02C002000E100E000050040D1
:1002500038B50020694608706846FBF7DBFF084C9C
:100260002078002801D1FFF7CFFFE068401CE06054
:100270000120A07068460078FBF7EAFF38BD000057
:10028000F02C002010B5002801D1FDF707FD10BDAE
:100290008207D30EFF229A408907090E10B59940B4
:1002A00000280BDA03071B0F083B9C080C4BA4002B
:1002B000E318DC6994430C43DC6107E08408094BD4
:1002C000A400E418236893430B432360C106C90EBE
:1002D00001208840044908600449086010BD0000FE
:1002E00000ED00E000E400E080E200E000E100E07A
:1002F000F3B581B0054601F049FF1F4F002828469D
:1003000017D0FDF73DFCC0192030007F800903287D
:1003100002D001280BD005E018480069E840C0076A
:10032000C00F04D00321284600F089FAFEBD022147
:10033000F9E701F037FF0028F8D02846FDF720FC48
:1003400004468000C11D0E4AF9318018026989B245
:10035000012632430261084600F0A2FA0298002802
:10036000E4D02846FDF70CFC800038580028DDD08A
:100370000448A6404660FEBD042D00200005005044
:100380000065004000630040FEB5044625480E4667
:100390000019202141560027C8171346401C01D0E0
:1003A00008273CE0F27819462046FDF7C5FB0546D4
:1003B000401C33D0B07800280BD005200007A100E6
:1003C00009180720000209180868022290430860F3
:1003D00007E000217378204600910A46019100F061
:1003E000D9F9F078002810D00F48AA0010183178F9
:1003F00002690E4B1A400261E206D20C8907890B92
:100400000A4301690A43026109E00648327840194B
:100410002030017F92011143017700E00427384624
:10042000FEBD0000042D002000650040FFE0FCFF41
:1004300003490969C140C807C00F00D001207047B7
:100440000005005070B5144D2879002801D008200F
:1004500070BD114900204039421E0B182033401C4A
:10046000C0B21A702028F8D300242046FDF756FBAE
:10047000641CE4B2082CF8D303210620FFF708FF20
:10048000FF207D3000F00CFA01200449C0074860CD
:1004900001202871002070BD442D00200063004021
:1004A00002480079002800D001207047442D002028
:1004B000F8B506460F4600791C21484321491546E8
:1004C0004418E07E002809D01F480824036A1F4A08
:1004D0001FA1022000F064FC2046F8BD39463046DA
:1004E000FBF7CCFE656038692060284600250028AF
:1004F00013D0FF223068397F1D328550FF223068CB
:1005000045328550032330681B021D4AC0184260E3
:100510003068000B40B2FFF7BBFE052230680421B3
:10052000120280180160E5752576A5750120E07638
:100530000548A5760368054A05A1022000F030FCB5
:100540002846F8BD4C2D00201C22002058490200EE
:10055000554152543A5741524E494E473A46756EAC
:100560006374696F6E3A2025732C206572726F7206
:1005700020636F64653A2025732E0D0A0000000089
:100580008000020070B505460C4600791C214843E6
:100590000C494318284600F079F8002809D00A4889
:1005A0001124436C094A0AA1022000F0F9FB2046FD
:1005B00070BD9A7500209C609882284600F020F853
:1005C00070BD00004C2D00201C2200206A49020052
:1005D000554152543A5741524E494E473A46756E2C
:1005E0006374696F6E3A2025732C206572726F7286
:1005F00020636F64653A2025732E0D0A0000000009
:10060000F8B5044600791C2148431F4900264518C7
:10061000FF2720681D37C6512068012181602946C7
:10062000206803F017FE6968002913D027E0FF2730
:100630000137FF211D31206800F03EFC002802D167
:10064000A88AB842F5D1A88AB84203D029462068C2
:1006500003F000FEA88AA97D8842E8D3A98AC81FB2
:10066000F9380ED0FF271D373946206800F024FCEA
:100670000028F9D020680121C1600020A87530460B
:10068000F8BD0F26F9E700004C2D002000791C2151
:10069000484303494018807D002800D0012070475E
:1006A0004C2D0020F8B5044600791C21484322490E
:1006B00005234618206800211B02C01801607068DD
:1006C00000280CD00322206812021C498018816087
:1006D0002068C003C10E01208840194908602068C5
:1006E000C018C26841690091876805690021C94343
:1006F0004161C1602068C01881600161501C02D056
:10070000104600F06FF80098401C02D0009800F0EE
:1007100069F8681C02D0284600F064F8781C02D002
:10072000384600F05FF80020F0767060227905A16D
:10073000032000F005FBF8BD4C2D002084020200D0
:1007400080E100E0554152543A494E464F3A496ED5
:100750007374616E636520756E696E697469616C2E
:10076000697A65643A2025642E0D0A0070B552003E
:100770000A439900049D0A432902059E0A43310455
:1007800005240A43240780000721001909024018A4
:10079000026070BD70B552000A439900049D0A437F
:1007A0002902059E0A43310405240A4324078000D8
:1007B0000721001909024018026070BD70B552008F
:1007C0000A439900049D0A432902059E0A43310405
:1007D00005240A4324078000072100190902401854
:1007E000026070BD1CB5002100910B4601220191F1
:1007F000FFF7E4FF1CBD1CB500220B46009211461A
:100800000192FFF7DBFF1CBD1CB5002100910B46D8
:10081000012201911146FFF7D1FF1CBD05221207ED
:1008200080008218072000021018026803231B04AE
:100830009A430260026809040A4302607047052275
:100840001207800082180720000210180268032394
:100850001B049A430260026809040A43026070475D
:10086000012282400348002901D082607047C260A3
:10087000704700000005005038B5084B05241B6880
:10088000009324026B46411805E085005D592D193F
:100890002D69401C20C28142F7D838BD544902005E
:1008A00002494018002101607047000000600040CC
:1008B000034940180068012800D00020704700005C
:1008C00000600040004870474509020030B5194CEF
:1008D0000546207889B0002805D06078854202D18D
:1008E000002009B030BD202213496846FAF728FCE1
:1008F000002069460875092000900B20019008200F
:1009000003900A2002900D4806900A48001DFFF748
:10091000C9FE002D01D0002200E0094A05486946C1
:10092000001DFFF7C5FD0028DBD101202070657098
:10093000D6E7000064220020C049020000E0D70191
:100940008D420200F0B5C5B00C46002100914D98D3
:100950004B991E46081817460390002C01D00A2018
:1009600000E00020019002F0B7FE00287ED104AD27
:10097000002E17D100986A462918204603F050FC33
:10098000002875D03846FAF7FFFBC22800D9C220EC
:1009900004460098224628183946FAF7D1FB0098F9
:1009A00000190090009901980A1804A844183132DF
:1009B0008518002003E020212170401C641C01994F
:1009C0008842F8D300270398864207D3202020705E
:1009D0006070A0702870E41C6D1C2CE04B9886425F
:1009E00002D24A98805D02E0311A4C98405C22465F
:1009F0008446012102908B006046D8400007000F1A
:100A0000092801D9373000E0303001235B1AD05477
:100A1000491EF0D220209070D41CFAF78DFB01689B
:100A20000298085C8006C00E01D0029800E02E20DB
:100A300028706D1C761C7F1C102FC4D30D202870CD
:100A40000A2068702020207000990198091843310D
:100A500004A8009102F048FE002809D002F03CFEF4
:100A6000002805D100900398864200E000E099D369
:100A7000304645B0F0BDFFB5C7B00025509F1C46BD
:100A8000059502F029FE002875D1059806AE3118AB
:100A900005AA489803F0C4FB002836D03846FF2743
:100AA00001370300FAF7B2FD0705131B333F4B571D
:100AB00025004998FAF768FB059905464018FF2874
:100AC00017D870182A464999FAF73AFB11E00598A9
