:020000040001F9
:10B00000083F0020D5B00100EFB00100F1B0010011
:10B010000000000000000000000000000000000030
:10B02000000000000000000000000000F3B001007C
:10B030000000000000000000F5B00100F7B00100C2
:10B040000DB60100F9B001005DB7010081B6010045
:10B05000F9B001000000000051B40100F9B0010096
:10B06000F9B00100F9B00100F9B00100F9B0010038
:10B07000F9B00100F9B00100F9B00100F9B0010028
:10B08000F9B0010061B60100F9B00100F9B00100AA
:10B0900095B60100F9B001009DB60100F9B00100BC
:10B0A000F9B00100F9B0010000000000000000004C
:10B0B0000000000000000000000000000000000090
:10B0C0000348854600F0A4F8004800471D0B020025
:10B0D000083F00200321094802680A43026008482B
:10B0E00002680A4302600748804707480047FEE7B6
:10B0F000FEE7FEE7FEE7FEE7FEE70000240500406E
:10B1000054050040BDB60100C1B0010030B50B468A
:10B11000014600202022012409E00D46D5409D4231
:10B1200005D31D469540491B2546954040191546B7
:10B13000521E002DF1DC30BD0048704784670200CC
:10B1400003460B439B0703D009E008C9121F08C040
:10B15000042AFAD203E00B780370401C491C521EEB
:10B16000F9D27047D2B201E00270401C491EFBD2F6
:10B1700070470022F6E710B513460A460446194602
:10B18000FFF7F0FF204610BD421C0178401C00294B
:10B19000FBD1801A704730B504460020034600E01A
:10B1A0005B1C934203D2E05CCD5C401BF8D030BD09
:10B1B000F0B51FB40646002082B005464024019138
:10B1C00000901BE0019922460F46304600F042F8FD
:10B1D000049A059B801A994110D3104619462246BD
:10B1E00000F028F8361A8F410197224601200021ED
:10B1F000009F00F01FF838184D4100902046641E53
:10B200000028DFDC019B00982946324607B0F0BDDC
:10B21000064C0125064E05E0E36807CC2B430C3CA9
:10B2200098471034B442F7D3FFF74EFFF869020095
:10B23000186A020010B5202A04DB0146203A91402A
:10B24000002010BD914020239C1A0346E34019437F
:10B25000904010BD10B5202A04DB0846203AD040AB
:10B26000002110BD0B46D340D0402024A21A9140AB
:10B270000843194610BD70B58C180578401C6B0743
:10B280005B0F01D10378401C2A1106D10278401CC3
:10B2900003E006780E70401C491C5B1EF9D12B0799
:10B2A00005D40023521E0DD40B70491CFAE7037815
:10B2B000401CCB1A921C03E01D780D70491C5B1CCE
:10B2C000521EF9D5A142D8D3002070BD70B5434BB2
:10B2D00086B00FCB6C460FC441A1032006F038FEA8
:10B2E000032046490226002508603C49444A4C395F
:10B2F000C96904916946487404A9012006F0D2F88E
:10B300000121084606F082F8344800233D4A694688
:10B310002C3806F06BF9002801D000F0F5FE2F481C
:10B320002C3806F053F90021022006F0BBFB142054
:10B3300005F0AEFF0121022006F0B4FB322005F03B
:10B34000A7FF314C38202070A570E5702348667047
:10B35000257221462C3803F08FFF2048A425A570C4
:10B3600021462C3803F088FFA5701620E0701B489A
:10B3700021462C3803F080FF8820A0700C20E0705C
:10B38000164821462C3803F077FFA120A070012039
:10B3900060702072114821462C3803F06DFF0F4871
:10B3A000667021462C3803F02FFF6379227917A1AC
:10B3B000032006F023FEA320A070084821462C3865
:10B3C00003F05AFF054821462C3803F01DFF22796F
:10B3D00017A1032006F0E2FD06B070BD7C650200F7
:10B3E0004150503A494E464F3A4654353230365F16
:10B3F000696E6974282029200D0A00000807005092
:10B4000069EE01003DF00100422000204150503A19
:10B41000494E464F3A4657206C69622076657273F2
:10B42000696F6E3A20253278202532780D0A0000A7
:10B430004150503A494E464F3A436869702076650C
:10B440006E646F722049443A202532780D0A00005C
:10B45000F0B50024FF268BB001360125274606945F
:10B46000304606F053FB002807D054484068284275
:10B4700003D0304606F042FB2C43361D6D007F1C86
:10B48000B6B2042FECD3FF257D35284606F03EFBEF
:10B49000002809D0284606F031FB6807044306AAB5
:10B4A0000121002006F016FB454D200714D001278E
:10B4B000002627420CD04348B200111808690969D8
:10B4C000C004C00E8903AA58890F002A00D09047F3
:10B4D0007F00761C042EECD3002C6DDA002008903F
:10B4E000401E63E0281940300778B906890E0091A4
:10B4F00000214156491C49D009A9009805F0B8FE21
:10B50000002843D0B8090190009802F04FFC800059
:10B510002F580198002F02D0032802D00DE00328F5
:10B5200034D1009808ABC20841079446985C490F93
:10B5300001228A4010436246985400980521090769
:10B5400080004018072109024018006806A98003FE
:10B55000800F0290009805F08BFE0028029802D020
:10B56000022802D012E0032810D10198032808D144
:10B57000029802281ED00221009806F07AFA761C62
:10B58000F6B2002F02D001990098B847641C042C31
:10B59000A8D3002E10D06A460121002006F09AFAA6
:10B5A00006990098884207D00690089800263446ED
:10B5B000099097E70321DFE70BB0F0BD006300407F
:10B5C000C02F0020006500408307FF22DB0E9A4059
:10B5D0008907090E994000280BDA0007000F083888
:10B5E000830808489B001818C36993430B43C36141
:10B5F0007047830804489B001B1818689043084351
:10B600001860704700ED00E000E400E0F8B5FF20AE
:10B61000013005F035FE002401250E4E0E4F0028A6
:10B6200007D00E4804600120B0607D70002002F059
:10B630004BFCFF20053005F023FE002808D007480A
:10B64000001D04600220B060BD70012002F03CFCCF
:10B65000F8BD000000030040AC2F002000010040B6
:10B6600010B506490020086048608860C86003493A
:10B670004039086048600AF0ADF910BD4011014042
:10B6800010B50249024804F031FE10BD24300020FC
:10B690000030004010B50AF00FF910BD10B5064893
:10B6A0004068002805D08047002801D000F02CFD1C
:10B6B00010BD04F0DBFD10BDE822002010B504F041
:10B6C00079FE002805D01F491D484860C8131E494F
:10B6D00088611E48018CC9B201290BD1828C1207E6
:10B6E00008D1028D1206120F042A03D1828D120690
:10B6F000120F0AD0012921D1818C09071ED1018D99
:10B700000906090F0A2904D007E0114A01219160B6
:10B71000F5E7828D1206120F05D00D290ED1808D0E
:10B720000006000F0AD10B480168012904D00A491C
:10B73000016001680129FCD1C021416110BD0000F8
:10B74000DFFF07C000050040006C0040C00F00F0A4
:10B750000006004000EC06407593000010B5024959
:10B7600002480AF0EBFB10BD08300020002000402A
:10B770000FB41CB50A46521E0192009007A9064B51
:10B780006A46069800F034F8009A002111701CBC3B
:10B7900008BC04B01847000065BC010030B4744612
:10B7A000641E2578641CAB4200D21D46635D5B00BD
:10B7B000E31830BC184702E008C8121F08C1002A6D
:10B7C000FAD170477047002001E001C1121F002A22
:10B7D000FBD17047202804DA01218140034801424F
:10B7E00001D001207047002070470000FC06FFBC1C
:10B7F000FFB591B00F460546002606E025280AD081
:10B80000149A139990476D1C761C28780028F5D15E
:10B81000304615B0F0BD002400940121F34A029493
:10B8200000E004436D1C2B780846203B98401042F2
:10B83000F7D128782A280ED0022128780246303AFB
:10B84000092A15D8009A0A235A43303A80180C4323
:10B850006D1C0090F1E701CF0090002805DA01206F
:10B8600040030443009840420090022004436D1CB2
:10B8700028782E2815D10420044368786D1C2A28C6
:10B880000AD101CF6D1C02900BE002990A225143AC
:10B89000303940186D1C029028780146303909294A
:10B8A000F3D928786C2810D006DC4C281AD06828E8
:10B8B0000ED06A2817D104E0742813D07A2812D148
:10B8C00010E00120400504430CE00121090501E0DE
:10B8D000032109050C436978814203D10120000549
:10B8E00024186D1C6D1C287803906E281ED00CDC6B
:10B8F000632831D004DC00288AD0582811D1B2E066
:10B9000064287BD069280CD178E073282DD004DC22
:10B910006F2870D0702804D1A7E075286CD07828E3
:10B920006BD0149A13999047761C62E06002400F26
:10B93000022807D003280AD0042838680AD00660F5
:10B940003F1D56E03868F11706604160F8E7386837
:10B950000680F5E70670F3E738786946087400203A
:10B96000487404A80390012003E038680390002085
:10B97000C0433F1D61070FD5002101E00199491C1B
:10B98000029A0191914213DA8142F7DB019A0399FD
:10B99000895C0029F2D10BE0002101E00199491CEA
:10B9A00001918142FADB019A0399895C0029F5D162
:10B9B00001990098139A401A00902146149B00F0B8
:10B9C0003BF901998019461807E00398039900781C
:10B9D000491C0391149A139990470198401E0190B5
:10B9E000401CF2D12146149B139A009800F014F9E0
:10B9F00086196D1C09E741E033E034E00A2000219C
:10BA0000049005916002410F022905D001CFC217B1
:10BA10009446032905D007E0FF1DFF08FF0003CF70
:10BA200006E000B2C2179446042902D140B2C11701
:10BA30008C4600226146944506DA0A4600214042BF
:10BA400091418C462D2102E0210504D52B216A4627
:10BA50001176012103E0E10701D02021F7E70191F0
:10BA600054E00A200BE0102009E01020049000218F
:10BA70000420044308200591029003E008200021DF
:10BA8000059104906002410F022905D001CF0022E8
:10BA90009446032906D006E0FF1DFF08FF0003CFF0
:10BAA0008C4603E080B2042900D1C0B2002101918C
:10BAB00021072BD50399702906D0049A1021059BE4
:10BAC0004A401A4305D00EE040216A461176012112
:10BAD00008E06146014306D030216A461176039999
:10BAE000517602210191049A0821059B4A401A438C
:10BAF0000CD16146014301D1610707D530216A4667
:10BB00001176012101910299491E02910399582948
:10BB100004D037A103910FA90F910DE039A1F9E7E6
:10BB20006146059B049AFFF743FB039B8C469B5C95
:10BB30000F9A521E0F92137061460143F0D10F9875
:10BB400007A9081A20300390600704D501200004DB
:10BB50008443029801E0012002900399884201DDAC
:10BB6000401A00E00020411802900198091800983E
:10BB7000401A0090E00306D42146149B139A0098C3
:10BB800000F05AF886190020049008E006A9085C25
:10BB9000149A139990470498401C761C04900199BC
:10BBA0008842F3DBE0030CD52146149B139A0098DE
:10BBB00000F042F8861904E0149A30201399904757
:10BBC000761C0299481E02900029F5DC08E00F98C7
:10BBD0000F990078491C0F91149A13999047761C7D
:10BBE0000399481E03900029F1DCFBE609280100B7
:10BBF00030313233343536373839616263646566E3
:10BC000000000000303132333435363738394142A4
:10BC10004344454600000000F8B5044600251E4692
:10BC20001746880404D405E039462020B0476D1C2F
:10BC3000641EF9D52846F8BDFFB50446002581B03D
:10BC40001E46C80301D5302700E02027880404D50C
:10BC500005E038460399B0476D1C641EF9D52846A7
:10BC600005B0F0BD4A68002A06D00A68531C0B6074
:10BC700010704868401E4860704710B500280CD00E
:10BC800000290AD002780B789A4206D10622401C7D
:10BC9000491CFFF780FA002801D0002010BD0120C8
:10BCA00010BDF7B584B006460025178815802030F2
:10BCB0000290407B1446002806D03A46214605985B
:10BCC00001F02AF9050009D1B078002823D00598A1
:10BCD00086462088001DB84202D90C2007B0F0BD6E
:10BCE000684679DF0028F9D1218803207246505434
:10BCF00020881921401C80B2208011542088714670
:10BD0000401C80B220804118684600880AF0AAF9D9
:10BD1000218840182080F078002817D0218803233C
:10BD20000A46F356C91C0598B942D6D80221815457
:10BD300021880122491C89B2218042542188491C52
:10BD400089B2218043542088401C208070680028DC
:10BD500017D021880023C3560A46C91C0598B9424A
:10BD6000BBD80221815421880A22491C89B2218032
:10BD700042542188491C89B2218043542088401CA8
:10BD80002080308900280AD000943046019706228E
:10BD900002210830059B0AF0BFF905009ED1308AC8
:10BDA00000280AD000943046019707220321103062
:10BDB000059B0AF0B1F9050090D1308B00280AD01C
:10BDC000009430460197152214211830059B0AF083
:10BDD000A3F9050082D1306A002806D03B462246EE
:10BDE000059902F0D9F80500D8D1706A002806D06C
:10BDF0003B462246059904F060FF0500CED102982B
:10BE0000007B002807D03B4622463046059909F0C2
:10BE100035F90500C2D13078002807D03B462246CC
:10BE20003046059905F08CF90500B7D1284655E74D
:10BE3000174A0021535C002B01D0012203E0491C6A
:10BE40000629F7D300221349012806D002280BD077
:10BE5000032810D0042818D112E04878002803D015
:10BE6000002A01D0012070478878002803D0002ADA
:10BE700001D002207047C878002801D00320704705
:10BE80000879002801D00420704700207047000086
:10BE90004D2100206429002010B50122022100203C
:10BEA00001F060FD002801D0072812D107220221ED
:10BEB000012001F057FD002801D0072809D10021F9
:10BEC0000A22084601F04EFD002801D0072800D1C3
:10BED000002010BD10B598B03C2101A8FFF749F92A
:10BEE000022268460271012406218471C171848294
:10BEF00012480690202110A8FFF73BF910A8047003
:10BF000044700021817012911391C4702820149004
:10BF10001E20159010A804711920C0011690B4209D
:10BF2000179007480090074B10AA01A800F01CFCCE
:10BF3000002801D000F0E8F818B010BDF81F00206C
:10BF400061C701005D220200F8B51E4E1021324685
:10BF50001D48FFF707F91D4C0820E0611A482546E7
:10BF600000901C350827304607F072FF0021296039
:10BF700007E02968009A4B00491C2960D05207F05D
:10BF800067FFB04201D07F1EF3D20F48E16908F08D
:10BF900065F9002801D000F0B7F80B48E16907F017
:10BFA00095FD062803D0002801D000F0ADF8002050
:10BFB000A072032000F0FCFC002801D000F0A4F8DF
:10BFC000F8BD0000FFFF0000A8280020E81F0020A7
:10BFD000F0B50F468DB0002116466D460F24621A4B
:10BFE000825C6A54491C1029F9D328460D2110306F
:10BFF000FFF7BFF80020221A395C5219401C117457
:10C000000328F8D368464DDF0020211A4919203152
:10C0100009783154401C0328F7D30DB0F0BD10B59A
:10C02000022001F0F5FA10BD70B50024064D06E0BF
:10C030006968E000085C012105F0E8F9641C2878D3
:10C040008442F5D3002070BD24220020F8B51546A7
:10C050000C460646052A01D20720F8BD05F0AEFAC7
:10C06000002803D105F07CFA0028F6D11049002001
:10C070004E600C70C8608D6008610E4D0DE0E000F0
:10C0800069688019009181786A46517000780A4A7F
:10C09000694605F007FA0028DFD12046641EE4B2A5
:10C0A0000028ECD1054A0021024800F0BBF8F8BD99
:10C0B00024220020A066020055F8010035E10100AD
:10C0C00009A1012005F044FF05F08AFE05F08EFE6F
:10C0D0000028FBD1BFF34F8F0A490948C860BFF35E
:10C0E0004F8F00BFFDE700004150505F4552524F57
:10C0F000523A4552524F523A466174616C0D0A00F1
:10C100000400FA0500ED00E00EB500210290009158
:10C110006A4601910148FFF7D3FF0EBD01400000C0
:10C12000F7B5244C82B060880E4681423FD8002586
:10C130006846214F057000F035F922786078A188B3
:10C14000884201DA401C00E00020C0B2904204D1D5
:10C150006846007800F044F927E065786078884206
:10C1600001DA401C00E0002060706846007800F0B2
:10C1700037F9BD4219D0A068EF000499C151029966
:10C1800000290CD0002E0AD0608832464543E06872
:10C190002818FEF7D5FFA0683818868002E0002135
:10C1A00038188180002005B0F0BD0420FBE709208D
:10C1B000F9E7000038220020FFFF000010B50D4C09
:10C1C00003E0401C00E0002020702078617881426C
:10C1D0000FD021786088E26848438018A368CA00BD
:10C1E000D1189A58898890472078A1888842EADA3D
:10C1F000E7E710BD3822002030B5CB0008339DB2F0
:10C2000093070024002B01D0072030BD044B9A6017
:10C210005219DA605C701C7058809980002030BD23
:10C2200038220020094B5B68002B07D0002A07D07A
:10C23000002805D00068037C002B03D0082070473D
:10C240000720704741744261002070475822002047
:10C2500010B50446082902D00020FFF755FF2168D9
:10C260006068884710BD00001CB501910090034A2A
:10C2700008216846FFF754FF1CBD000051C20100B1
:10C28000FFB507469007002581B01E4614460028DA
:10C2900025D1002C23D008F0B9FB3046114EF060B8
:10C2A00030461030057045700299817044607560A9
:10C2B000357001240C487570240504600321142096
:10C2C000FFF782F909480460094CA7600321112097
:10C2D000FFF77AF96068B060002005B0F0BD072074
:10C2E000FBE700004822002080E200E000E100E0DF
:10C2F00000150140FEB51F4B5B68002B30D00028B5
:10C300002ED0052901D20720FEBD4369002B27D07E
:10C31000437C012B26D00027029104460025694664
:10C3200016460D70684600F03DF801A809F0DEFEE3
:10C33000002819D0012101700F49446049688160CB
:10C34000029907614661C16068460A4900794870F0
:10C350006846007800F044F809F0F0FA2846FEBD7F
:10C360000820FEBD0F46D7E768460425007800F098
:10C3700037F8F3E7582200200015014010B50849AE
:10C38000496800290AD0002808D04169002905D051
:10C3900000210174022109F0F9FA10BD082010BD36
:10C3A0005822002030B5EFF3108172B6094A546864
:10C3B0000123002C04D00370002900D162B630BDE7
:10C3C0005360054B1D68054C254015601C6000221C
:10C3D0000270F1E76C22002080E100E0FC06FFBC67
:10C3E00008494A68002A0CD000280AD1EFF31080CF
:10C3F00072B60A68044B1A6000224A60002800D115
:10C4000062B670476C22002000E100E0F8B50746F4
:10C4100008680C460526411C01253602002906D075
:10C420002946814019488160206805F007FB606853
:10C43000411C02D0002105F0F8FA3968A069891979
:10C440004862607D217D3A6808439119C866386862
:10C4500006CC80194261C160207B083C012814D1C0
:10C46000A068411C02D0002105F0DFFAE068411C01
:10C4700005D0854005488560E06805F0DFFA3A6838
:10C48000E1689219A06891601061F8BD0005005044
:10C49000F0B504468BB0008800F0DAFC05902088E7
:10C4A00003F0DCFD0646A0680090657A68460574D6
:10C4B0001E4F20880022397800F01AFD05980028C8
:10C4C00031D06079400710D50721304606F0F6FEDE
:10C4D000002813D0082269460A7422884A828E8274
:10C4E000069004A801F016FF08E02088B97800F053
:10C4F000EDFC002802D0304603F09AFD0321684687
:10C5000001712188C18060794007C10F68460172BE
:10C51000A0794007C10F6846417201788172C572E7
:10C5200001A801F0F7FE0BB0F0BD0000C021002013
:10C5300000B585B014216846FEF71BFE00210122DC
:10C540006846009102710291642101731146203105
:10C550004173114620318173002001466846C17342
:10C560001146203101746946044800F011FB00288F
:10C5700001D0FFF7C9FD05B000BD000080280020F4
:10C58000F0B50546007D002493B00E4600280DD07E
:10C59000012001466846103103940173717B417399
:10C5A000817BF92001406846891C81731C2104A805
:10C5B000FEF7DFFD6946087C0221084369460874DE
:10C5C0002A7DEF21002A02D01022104300E008400B
:10C5D0006A461074059407940894287D002800D0BA
:10C5E00003A8099001270A9410469771304A828067
:10C5F0000094B27B0270F27B42708078F922104086
:10C60000F722801C1040EF2108404108490068468D
:10C610008170317B017214210BA8FEF7AAFD01A8DD
:10C620000B9068460C908786C486078702A80F90F7
:10C63000A888AB1D0BAA04A9A2DF002835D1B068D9
:10C64000002830D0684687711A4981800094317C77
:10C65000017000200146684641708078F921084049
:10C66000F721801C0840EF21084041084900684636
:10C67000817011A8B16800F0D6FE064614210BA8FF
:10C68000FEF777FD01A80B9068460C908686C4865D
:10C69000068711A80F902A46E8880E320BA9A3DF5F
:10C6A000002802D100E0EC81002013B0F0BD0000B2
:10C6B000192A00000829000010B50B490B4808F0A2
:10C6C00017FCC1B20848183800F028FA002809D031
:10C6D000082807D00649884204D00649884201D07C
:10C6E000FFF712FD10BD0000982800202C2000202C
:10C6F0000430000001340000F0B50C4693B01F2157
:10C700006A461180072600279180002809D0C17849
:10C7100049070DD502A9FFF7C4FA002809D102ADD7
:10C7200001E000251780002C0ED0E078002802D010
:10C73000304613B0F0BD01AA0AA92046FFF7B1FAAE
:10C740000028F6D10AAA02E06846002287806846DF
:10C750008088C3B268460088C1B2284672DFE8E725
:10C7600010B5FFF7D1FC10BDFFB581B01E460A9F82
:10C770001346040047D0002B45D0504D01202870AF
:10C780000020E870202219464D48FEF7D9FC002011
:10C790006F61C0432E612881284607211830FEF7BB
:10C7A000E8FC47483C212030FEF7E3FC4448217870
:10C7B00020300170A1788170E178C170617841709A
:10C7C0003F4A656923695563114613632031E36865
:10C7D000A268CB608A603A49E369A269CB638A6345
:10C7E000616A00291AD001463C3102464832416252
:10C7F0008A60636A1B880B80616A436A89889980B2
:10C800000021436A07E00E2005B0F0BD656AAD68FF
:10C810006D5C5554491C9D888D42F7D8A16A00294A
:10C820001CD0274A943211460C398A608162A36A6F
:10C830009B888B80A16A836A098819800021836A9A
:10C8400004E0A56AAD686D5C5554491C9D888D4215
:10C85000F7D82C210A5D1A4940310A73216A002950
:10C8600009D016490A310162226A52884A80216A37
:10C87000026A098811806168002900D04160104A6D
:10C880000E490020B3322031C3001B1A85009B18CB
:10C890000C68401C63510828F6DB094A0020EB3283
:10C8A000030185009B188C68401C63510828F7DB46
:10C8B000034802992030FFF71FFFA5E7342100202D
:10C8C0006429002010B50188134C102915D01129B6
:10C8D00019D01B2910D1007A00280DD1E07805214C
:10C8E000401CFEF713FC084600F062F8002803D055
:10C8F0006169002900D0884710BD817D0129FBD1E5
:10C900008088208110BD0021617180882189884242
:10C91000F8D10120E8E700003421002010B50228FA
:10C9200001D003280ED1084C607800280AD00020DE
:10C930006070E07800F03CF8002803D061690029BD
:10C9400000D0884710BD00003421002010B5084AEF
:10C950001179002909D000211171014604480722EC
:10C960001830FEF7EDFB002010BD082010BD0000C0
:10C970003421002010B574DF0B4C012060710B498D
:10C980000620C87000210948FFF7B6FE002809D12B
:10C99000E07800F00DF8002803D06169002900D08C
:10C9A0008847002010BD0000342100208429002089
:10C9B000F1B53F4C88B0207800280AD00898E07084
:10C9C00006A801F0D3FF06980125002804D0657061
:10C9D0006AE0082009B0F0BD35480027072118306B
:10C9E000FEF7C7FB334E7078002802D0E0780128AC
:10C9F00007D0B07800280CD0E078012801D00228B8
:10CA000007D12169002903D025710820884700E05B
:10CA100027710898FFF70CFAE0702169002909D006
:10CA2000032801D0042805D13078002802D060798D
:10CA3000002811D0A77118216846FEF79AFB6846B6
:10CA400007700772E1781A480B001830FEF7A6FE4F
:10CA5000052E080F191D2000A57107208847EAE759
:10CA6000A5700190684605704782078213E0022195
:10CA7000A170019068460570B189418231890182B7
:10CA800009E0684608F07CFB02E0684608F0A4FB79
:10CA9000E078002803D0684673DF00289AD1216926
:10CAA000002901D0A0788847002093E7A770F6E717
:10CAB0003421002064290020FFB517480F468179F2
:10CAC00081B01E46002907D0002104468171203420
:10CAD000277126730D460DE0082005B0F0BD2068D3
:10CAE000A9004058E9004A1B019951180722FEF796
:10CAF00027FB6D1CBD42F2D3002509E0A068A90008
:10CB0000405803992A0151181022FEF719FB6D1C99
:10CB1000B542F3D30020E0E73421002073B586B09E
:10CB200004002FD06A46217C127F0020914227D03A
:10CB300000250126684600950680458007A80190DB
:10CB4000E188608A6A46A4DF002819D16846007F20
:10CB50002074608A0D49884216D0207D002813D0A9
:10CB60000295039504950595E188684601818672D2
:10CB700041888181049001980590608A02A9A6DF0E
:10CB800008B070BD0E20FBE70820F9E7FFFF0000AA
:10CB900038B50D4604001AD0002D18D02868206042
:10CBA0000020C043608228792075FF202074012175
:10CBB0006846817007490180221D69460120A0DF77
:10CBC000002803D129462046FFF7DAFC38BD0E20A5
:10CBD00038BD00000F18000038B5002824D0002907
:10CBE00022D00A88102A1AD0112A1AD0502A1BD112
:10CBF0000446007D002817D0C8886289891D9042AC
:10CC000012D1488902280FD1206800280CD008468C
:10CC10000C3000F001FC002807D0002006E08988D5
:10CC200001E00021C943418238BD012069460870F6
:10CC300022682046904738BD70B5054601461C2243
:10CC40000E48FEF77DFA0E4C002626702968002952
:10CC500006D00822201DFEF773FA201D7ADF02E0BD
:10CC60000748001D7BDF002807D1401E60806670EA
:10CC7000044A00210448FFF7D5FA70BD302B00208C
:10CC80006421002071600200C0650200F8B5214CEB
:10CC90000146028800261E48E589102A13D01E4F3F
:10CCA000112A1FD0122A2BD0502A1AD1881DC988C8
:10CCB000A94216D14189022913D10C3000F0ACFBF6
:10CCC00000280CD112E08A880446428010480822CD
:10CCD0000C301831FEF734FA6670002D01D101F0E6
:10CCE000A3F9F8BD0021C943418046703868FFF7B9
:10CCF00045FB0028F5D0A1690029F2D08847F8BD8E
:10CD0000034808220C300831FEF71AFAE7E7000062
:10CD100064210020302B0020C065020010B50349BB
:10CD20000A7D091D07F047FF10BD00004C2B0020B5
:10CD3000034B10B50246D97D181D07F029FF10BD21
:10CD40004C2B0020034B10B50246197E181D07F02E
:10CD50001FFF10BD4C2B0020F0B5044602883A4856
:10CD60008DB0014615310191102A09D0112A50D0F9
:10CD70001A2A4AD1217A090901294ED901234DE005
:10CD8000027D417D05468A43011D07A807F013FF78
:10CD9000142207A902A8FEF7D3F900262A4837462D
:10CDA000143008900AE0710002A8081883881D2238
:10CDB0000097281D089907F0ABFE761C0298B04238
:10CDC000F1D8287DA688C043C0B207F0C5FE1F4930
:10CDD000884217D040004019868001233246281D22
:10CDE000019907F00BFF01233246281D089907F02F
:10CDF00005FFA07D02280AD000231349A28816311E
:10CE0000281D1DE00420FFF77FF90DB0F0BD0123C0
:10CE1000F3E70023A288001D12E000230A4905461B
:10CE2000A2881731001D07F0E9FE207A00090228C8
:10CE300001D9012300E000230349A2881831281DED
:10CE400007F0DCFEE1E700004C2B0020FFFF0000B4
:10CE500070B50B4E05460024317D2A46301D07F083
:10CE600097FE002809D0B17D2A46301D07F090FEBC
:10CE7000002801D0022400E00124204670BD0000FB
:10CE80004C2B002010B50024204609F023F900287F
:10CE900005D0641CE4B2182CF6D3182010BD044849
:10CEA00001220168A24011430160204610BD00002C
:10CEB0004C2B002010B5044609F00CF9002802D0D4
:10CEC00001480019407E10BD4C2B002070B505466E
:10CED0000C46084609F0FEF8002806D003482A460A
:10CEE0000119497E001D07F053FE70BD4C2B002038
:10CEF00070B5064615460C46084609F0EBF80028C2
:10CF000007D004482B4601193246001D193107F09D
:10CF100075FE70BD4C2B00207CB5054608880C467C
:10CF20000930904201D90C207CBD684671DF002891
:10CF3000FAD121880820685420881B21401C80B227
:10CF400020802954208800A9401C80B220804019EC
:10CF500006220131FEF7F4F820886946801D80B270
:10CF600020800978002900D0012129542088401C04
:10CF7000208000207CBD00007FB50446012168466A
:10CF800081714A4981804A4A01A90120A0DF002815
:10CF90007ED1228825463C35002A09D044482B46BC
:10CFA000801C00904348616800F008FF00287BD196
:10CFB0002289002A0AD03E482B460A3000903D487C
:10CFC000E168401F00F0FAFE00286DD1228A002A95
:10CFD0000AD037482B461230009036486169001F4E
:10CFE00000F0ECFE00285FD1228B002A0AD03048E6
:10CFF0002B461A3000902F48E169801E00F0DEFEBB
:10D00000002851D1228C002A0AD029482B462230F0
:10D0100000902848616AC01E00F0D0FE002843D16D
:10D02000228D002A0AD022482B462A30009021481F
:10D03000E16A401E00F0C2FE002835D1216B0029B4
:10D040000ED002A808F010FC19482B463230009090
:10D050001848082202A9801F00F0B0FE002823D142
:10D06000606B00280BD012492B463A3100910279AF
:10D0700001681048401C00F0A1FE002814D1A16BEB
:10D08000002910D002A807F0F5F80948423000E066
:10D090000AE0009007482B46072202A9273000F03B
:10D0A0008DFE002800D1002004B070BD0A180000D9
:10D0B000DA210020292A000010B50446FFF74CFEB3
:10D0C000204606F0D3FE204600F02EFB204605F059
:10D0D00075F92046FFF7F6FB2046FFF7D7FD2146FE
:10D0E000034800F031F921460248FFF775FD10BDF5
:10D0F000082700208028002030B5FF300C46413042
:10D10000C18E104B85B0994219D06B461C8000210E
:10D110000191029103910491C5899D8001259D7122
:10D12000198103930492C08E01A9A6DF002804D1BF
:10D1300069460988A14200D00C2005B030BD082006
:10D14000FBE70000FFFF0000F0B50546FF35413565
:10D1500089B01646E88E174C0E9AA04228D0D41CEF
:10D16000A0B26F46388008281FD839717E71BB7114
:10D1700001AE002A03D0F01C0F99FDF7E1FF00205B
:10D180000490059006900790EA8B69460A82012276
:10D190008A74888206910796E88E04A9A6DF002883
:10D1A00004D169460988A14200D00C2009B0F0BD25
:10D1B0000820FBE7FFFF0000FEB50546887A0C4615
:10D1C0000A2805D8207C0A2802D8207E0A2801D9FE
:10D1D0000720FEBD2068286060686860A07AA87497
:10D1E000217C78204155217EDE204155FF20002101
:10D1F0007730C943415301216846817138498180A4
:10D200002A46083201A90120A0DF0028E1D100262A
:10D210002746203709E0A06B7100415A28896A46E9
:10D22000A1DF0028D5D1761CF6B2B87DB042F2D885
:10D23000207A002802D1607A002806D021463C31AD
:10D24000284607F033F80028C3D12146284602F0CB
:10D25000CFFF0028BDD12146284605F0EDFA002871
:10D26000B7D12146284601F055FA0028B1D1214610
:10D27000284607F0EBFA0028ABD1207A002812D01C
:10D280002846FF304F30234600904333082215498B
:10D29000284600F009F900289BD12146284600F0D5
:10D2A0005BF9002895D1607A00280DD02846FF3020
:10D2B0005F300C4923460090403308221131284644
:10D2C00000F0F2F8002884D12146284602F05AFCEA
:10D2D00000289BD121463E31284602F00DFCFEBDC0
:10D2E00012180000222A000030B51446827C85B056
:10D2F0008A4225D90A2251430A18FF304130C18E93
:10D30000104D1432A94219D069460C8000250195B0
:10D3100002950395049512888A8001228A710D81F5
:10D3200003910493C08E01A9A6DF002804D16946A9
:10D330000988A14200D00C2005B030BD0820FBE7D1
:10D340000720F9E7FFFF000030B504460A88FF30E8
:10D35000413087B0102A22D0112A39D0502A3BD030
:10D36000512A1AD10D46881D8979012915D1418884
:10D370006A46204607F006FB00280ED021682046AA
:10D3800000290AD0072269460A710A880A814A8858
:10D390004A810595026801A9904707B030BD898888
:10D3A000C18661890029F8D0012269460A720023EA
:10D3B00000930A804B8002A901916189C08E6A4660
:10D3C000A4DF0028E9D061680029E6D08847E4E7B7
:10D3D0000021C943C186E0E7204605F06BF9DCE790
:10D3E0007CB500250095069C6D462A800A22514393
:10D3F00009186B8040310194FF304130498FC08E55
:10D400006A46A5DF7CBD70B504460D460846FDF7AB
:10D41000BBFE2080656070BD417802780802104331
:10D42000C007C00F70470A78027049784170022027
:10D430007047000000B5174887B080690590164B0B
:10D440004822164905A808F0CBF9002801D0FEF7BC
:10D450005BFE6A460121002008F096F9002801D001
:10D46000FEF752FE684608F03DF9002801D0FEF7AD
:10D470004BFE0B4808F02CF9002801D0FEF744FEC3
:10D48000084808F0DFF9002801D0FEF73DFE07B09C
:10D4900000BD000030650200C557020010260020C4
:10D4A000B9D0010059580200FFB50024601C91B0AA
:10D4B00000070F46000F6946103002940872187872
:10D4C0004872887AF9263040801C88721D461C21DB
:10D4D00003A8FDF74EFE6946087B02210843694612
:10D4E0000873A9780A07F721002A02D008221043FE
:10D4F00000E00840102210436A46107302A804940A
:10D5000008900694079409940120907197800094E4
:10D5100068781070A878507090783040801C08406F
:10D52000EF21084040084000907014210BA8FDF73F
:10D5300020FE01A80B9068466A460C909486D4861B
:10D540001398108711980F9400890BAA03A91A9BAE
:10D55000A2DF15B0F0BD0000F0B58FB00D46064655
:10D560001C216846FDF705FE684601780E20014340
:10D5700068460170002401940394049405940127E3
:10D5800008A80694877016496846018446200794C7
:10D59000415D68460177433529794177807FF921DC
:10D5A0000840F721801C0840EF210840410849004D
:10D5B00068468177142109A8FDF7DBFD08A80990CA
:10D5C00007A80A9068468485C485078633460D946B
:10D5D000FF333089573309AA6946A2DF0FB0F0BD87
:10D5E000322A00000149085C704700009065020083
:10D5F0000549095C05480069C840C007C00F00D054
:10D60000012001214840704790650200000500504C
:10D6100005490B5C05494A6801209840034693433D
:10D620008B601040C86070478C6502000005005098
:10D6300010B50349085C012104F040FA10BD000058
:10D640008C65020010B50349085C002104F036FA2D
:10D6500010BD00008C6502000549095C0548406862
:10D66000C840C007C00F00D00120012148407047CA
:10D670008C650200000500507CB50024074E25464D
:10D68000305D0122009500231146019504F088F9D0
:10D69000641C042CF4D300F003F87CBD8C650200FC
:10D6A00010B500242046FFF7C3FF641C042CF9D3F7
:10D6B00010BD10B500242046FFF7C4FF641C042CE5
:10D6C000F9D310BD0246002010B5C043054B002120
:10D6D0005C5C944201D1084610BD491C0429F7D373
:10D6E00010BD00009065020070B50E4E00250C467E
:10D6F000306000290DD0012000F0AEF8002801D0E4
:10D70000022005E0002000F0A7F8002800D00B2040
:10D7100020707068002802D1FEF7BEFB054628463F
:10D7200070BD00002C21002010B51C4C01886068E1
:10D7300010290DD011290AD1401E606007D1FEF7D3
:10D74000ABFB002803D02168002900D0884710BD1A
:10D7500000281ED100210122084600F003F900280C
:10D7600001D0072811D107220221012000F0FAF888
:10D77000002801D0072808D104220221002000F04F
:10D78000F1F8002805D0072803D02168002900D02F
:10D7900088476068401C606010BD00002C2100209C
:10D7A00010B5002000F01CFA002801D0062807D18F
:10D7B000012000F015FA002801D0062800D1002031
:10D7C00010BD0000F3B581B00D460198FFF77AFF58
:10D7D0000446042813D21D481D4F1E4E002D27D08D
:10D7E000012D0DD0022D0AD160002018C0194578F6
:10D7F000002D04D0F168002901D028468847FEBDDD
:10D80000610061187D5CCF19797800290BD07168AF
:10D810000A2251430F4A8068921CFEF76BFD0028D4
:10D8200001D10198B0700B48B97810300155DFE78D
:10D830008068FEF7A3FD0748610061181030C91920
:10D84000005D8D78A842D3D0FEBD00009465020033
:10D85000382900201821002010B5FFF7C9FE10BD9F
:10D8600070B5021F3C4C00253A490126A0891300DF
:10D87000FDF794FF0E0B0A0A130A0A080A0A0A1A8D
:10D880002E555D0A07F0D2FC70BD132176DF08E04B
:10D890000028F9D0FEF738FC70BD8842FCD1FFF7B4
:10D8A00069F80828F4D170BD8842FCD00120A16934
:10D8B00002F034FEA069401CA061207A401CC0B276
:10D8C00020720E28EFD124484C30A061257270BD23
:10D8D0008842FCD0607A00280CD001280FD00228A2
:10D8E00012D0032816D00428F1D1082003F06AFAD8
:10D8F000657270BD012003F065FA667270BD20206C
:10D9000003F060FA022003E0102003F05BFA03202A
:10D91000607270BD042003F055FA0420F8E78842D5
:10D92000F7D0002211461E2003F08AFA70BD88420B
:10D9300005D000221D201146C04303F081FA074C98
:10D9400026702146064801F083FB60780028EDD15F
:10D95000257070BDFFFF0000E81F00201C24002080
:10D960005065020070B50023042811D24400041948
:10D970000D4D012A02D101290DD000224600801947
:10D98000094E801900290CD0012906D0022906D0A1
:10D990000723184670BD0E30C2B22A55F9E742700F
:10D9A000F7E78270F5E700003829002010B5054A36
:10D9B0000146127A0020D20702D0084600F050F843
:10D9C00010BD000018210020F8B506461F480024AD
:10D9D0008660C26041600F46B00720D50025012255
:10D9E00011462846FFF7BEFF6D1C0446042D02D2E7
:10D9F000002CF4D013E0002C11D17A080421144833
:10DA0000FEF724FB04000AD1FEF70EFB040006D14A
:10DA10000F48104A0021001FFEF704FC0446F007DF
:10DA200001D0FFF729FE002C0ED109480A4A002137
:10DA30000C38FEF7F7FB040006D10548074A012120
:10DA40000838FEF7EFFB04462046F8BD18210020F9
:10DA5000A06502003DDD01006D0502001FC0010050
:10DA6000F8B55D4C054660780026002803D00020FC
:10DA70006070FFF715FE0120584F2B00FDF78EFE5A
:10DA800018970D0D2E3D4A5F64686F686FA9777710
:10DA9000777777979A9DA0A9A9950020FFF7DCFDDD
:10DAA00000280AD00020FFF7C3FD022D02D1E1209B
:10DAB000C0000BE07D20400108E00020FFF7C2FD20
:10DAC000022D01D1C82001E0FF2091302570642192
:10DAD000FDF71CFB6168414300222BE00020FFF7AB
:10DAE000BBFD002805D00020FFF7A2FD1920400152
:10DAF000ECE70020FFF7A6FDE4E70020FFF7ACFD10
:10DB0000002803D00020FFF793FDD3E70020FFF7A4
:10DB100099FDD9E70020FFF79FFD002803D00020E2
:10DB2000FFF786FD02E00020FFF78CFD257060689E
:10DB3000410000223868FEF7DDFB064635E0002094
:10DB4000FFF766FD257007E000203FE025702CE020
:10DB500060700120FFF75CFD00226168EAE76070F9
:10DB60000120FFF755FD606881004118E1E7786802
:10DB7000FEF704FC06461120401B01D0002E03D006
:10DB80000220FFF755FD10E001280BD9C8214843BA
:10DB90006421FDF7BBFA6168002241437868FEF713
:10DBA000A9FB06460220FFF74DFD3046F8BDFFF702
:10DBB00077FDCBE7FFF774FDC6E7FFF771FD04E0E3
:10DBC000FFF76EFD0020FFF73DFD0120FFF73AFD56
:10DBD000BCE7FFF76EFDB9E718210020946502004D
:10DBE00010B5FFF7FFFC032103F032FF002010BD4A
:10DBF000002901DA002070470268511801600120F5
:10DC000070470000F8B50D46461C002069460870B4
:10DC100001246846FEF7C6FB134A106828601168A5
:10DC200050689368081A1D1A701C6D1CA84212D9FE
:10DC3000002D0ED00D480E4C008824688005194038
:10DC4000800DA402890020438918C8601068401C18
:10DC50001060002401E08819106068460078FEF723
:10DC6000BFFB2046F8BD0000F0320020DC66020059
:10DC7000E42200207CB5194C0146A27F0020002A36
:10DC800019D0227F0C2326465A43203E951900299D
:10DC900013D001A800902B786A786968A86807F00B
:10DCA000A3F80F49884208D169466A7889888A4270
:10DCB00003D329707CBD05207CBD227F0C235A43F1
:10DCC000002192195160227F521CD3B22377A27F88
:10DCD000521EA277052BEFD121777CBDD8280020DA
:10DCE00004300000F0B50F4C0646A57F0020062D3D
:10DCF00015D0657F0C277D432746203FED19AE6088
:10DD000069602B706A70A17F491CA177617F491CF3
:10DD1000C9B26177052901D100216177F0BD0420E6
:10DD2000F0BD0000D8280020034803C8814201D17B
:10DD30000120704700207047F032002010B50078B5
:10DD40000221FFF73FFD10BD0022D24383000449AA
:10DD50000428CA5002D30818203002777047000008
:10DD6000C02F0020F0B50025ED43002A02D000238B
:10DD7000042601E0042308260B4C04E09F00E75929
:10DD80007F1C04D05B1CB342F8D32846F0BD261894
:10DD90005DB2203635709E00A151002AF5D1E11800
:10DDA00020310877F1E70000C02F00200249091850
:10DDB0002020085670470000C02F0020FFB58FB00C
:10DDC0001E4615460F0002D10020FEF79DF9002DDA
:10DDD00002D10020FEF798F91C216846FDF7C9F929
:10DDE00068460178022001436846017000240194CE
:10DDF000039404940594012108A806948170684650
:10DE00000F99018407943178017771784177807F89
:10DE1000F9210840F721801C0840EF210840410803
:10DE2000490068468177142109A8FDF7A2F908A8DE
:10DE3000099007A80A9068468585C4850586044828
:10DE40000D9709AA69460088189BA2DF13B0F0BDA0
:10DE5000DA210020002807D00449814204D804496F
:10DE6000814201D901207047002070470023002023
:10DE700010230020044A0168914201D0083101E0DA
:10DE800001493839016070474831002070B50D4DA7
:10DE900004460A462846AC4208D1FF2401342146F4
:10DEA000104605F093FFA0420AD070BDFF2CFCD8AD
:10DEB0002146104605F07CFF002801D0204670BDA9
:10DEC000284670BDFFFF000070B5084C050009D062
:10DED00010342168002907D0086820604968284666
:10DEE0008847F6E70834F4E770BD0000AC2F002047
:10DEF000F8B52348416800293ED00E6821494C6896
:10DF000087688078E11B0D022D0AED1C002814D1D2
:10DF100001201D4A000450601B4A403A50601B49D2
:10DF2000400008601A4908601A49012008602F2043
:10DF300003F0E0F9124901208870B54200D235465D
:10DF4000E81900020F4B000A403318600D4A51686F
:10DF5000001B091B0902090A0002000AC91C8142B0
:10DF600009D9506818602F2003F0C4F9012007492F
:10DF7000400480390860F8BD06F048FDF8BD000097
:10DF800048220020001501404013014080E200E0DB
:10DF900000E100E000100140F8B506461088144684
:10DFA0008446801D0D46984201D90C20F8BD328868
:10DFB0000720062AFAD31927FF01184BBA4201D9C4
:10DFC0009A42F3D171880629F0D3B94201D9994216
:10DFD000ECD19A4203D0994201D08A42E6D8052179
:10DFE0006046295420881221401C80B22080295488
:10DFF0002088401C80B220804119308808F032F817
:10E000002188401880B220804119708808F02AF8D1
:10E010002188401820800020F8BD0000FFFF00008C
:10E0200010B5FEF771F810BDF8B5164802F0B4F956
:10E03000144D00260C3D144C002807D061690029BE
:10E040001CD001206A461070684616E02878002827
:10E0500005D06169002911D0684606700DE0687826
:10E0600000280DD0A168094800220068FEF742F997
:10E07000002803D0A169002900D088472E70F8BD80
:10E080006168F0E770210020302B0020C06502009D
:10E09000F0B585B00C46002802D0012005B0F0BDD7
:10E0A000207900270126002806D01F4D012820D006
:10E0B00002282CD00F20F1E702970397E068019027
:10E0C000694601A806F060FA00280ED002988188FF
:10E0D000E18000882081029806F0D0FA694609881C
:10E0E0000A01124951188E7300E00A2002212171A1
:10E0F000D4E70F4B6A460021A01D06F003FA002862
:10E1000007D00B4908398F60CF600A28C6D128464E
:10E11000C4E7019806F0B2FA054989880A01034963
:10E1200051188E73F1E700001D1D000058310020CA
:10E130007C220020F8B500260124154D23E06968F3
:10E14000F0004718387821462A698140114218D0DA
:10E150008A432A6103F0FAF93A782146EB68914044
:10E1600019400346934099420BD17978012901D097
:10E17000012100E000217B684140002B01D01046C6
:10E180009847761CF6B228788642D8D3F8BD0000AE
:10E190002422002010B50E4900230A784C78A242B0
:10E1A00012D0521CD2B20A70022A00D10B700A7827
:10E1B000074B920018339A580260886810180002C2
:10E1C000000A8860012010BD0360002010BD00001F
:10E1D000482200203EB5094D38CD009302950194A8
:10E1E0006B46588099809A71054900220978FEF79C
:10E1F0007FFE684600F08EF83EBD000034660200E7
:10E20000C021002010B5047800222300FDF7C6FAD3
:10E21000070605070D1D262C06000A7010BD0122F9
:10E220000A7002898A81828814E002220A700289B7
:10E230008A818288CA81C2688A60007C062802D0EE
:10E240000020087410BD0120FBE703220A70C28879
:10E250008A810289CA81C068886010BD04230B705E
:10E26000C0888881CA8110BD0520087010BD0000DB
:10E2700070B5064D06460024A0002958002901D09B
:10E2800030468847641C082CF6D370BD78300020D7
:10E290000EB5002910D011290ED000220092029252
:10E2A0006A46508001910D2907D0862907D00920A0
:10E2B0001070104600F03CF80EBD0B20F8E70A2065
:10E2C000F6E70000014909680847000080210020A6
:10E2D00070B5054D06460024A000295830468847F1
:10E2E000641C022CF8D370BDDC650200F8B507464B
:10E2F0000024064E064D04E0A000315838468847F9
:10E30000641CE8788442F7DBF8BD0000602F002031
:10E31000B021002070B5054D06460024A000295804
:10E3200030468847641C022CF8D370BDFC6502009F
:10E330000149096808470000406602007FB50446AD
:10E34000406800280BD00020039020780026414D23
:10E350000300FDF723FA066D0606304E7B6D0120A3
:10E36000F2E7A08900F00CFA002804D1E08906F059
:10E370009DF900285CD0A08900F0FDF901466846AF
:10E380004180E08906F08CF90146684601712078E9
:10E390000128606807D0002809D004206946087069
:10E3A0006068039020E00028F8D00320F6E7012001
:10E3B000F4E708463AE0A08900F0E2F9002804D129
:10E3C000E08906F073F9002832D0A08900F0D3F973
:10E3D00069464880E08906F063F96946087160681B
:10E3E000002804D005200870A0680290E1E7022010
:10E3F000F9E7A08900F0C4F9002819D0E0890028C5
:10E4000016D1A08900F0B7F969464880E08906F086
:10E4100047F9FF2069460871606800280FD007207F
:10E4200008706E70AE7005F023F9684604F0DEFFE8
:10E430006878002802D06E7005F01AF97FBD0621B9
:10E4400068460170408805F0A1F9EAE708206946AE
:10E450000870AEE79C21002000B5104987B009780C
:10E46000890702D4022007B000BD0D49884201D1BE
:10E470000420F8E7052269460A7001220A71C88063
:10E4800000221146684604F09BF9002803D006F0EC
:10E4900015F80020E7E70820E5E7000074220020D7
:10E4A000FFFF000000B50F4887B00078800702D456
:10E4B000022007B000BD0620694608700022114600
:10E4C000684604F07DF9002809D007480178002942
:10E4D00001D00121017305F0F1FF0020E9E70820D8
:10E4E000E7E70000742200207831002000B58DB0ED
:10E4F00014216846FCF73DFE1E480078810703D5CD
:10E500006846FFF7B5FE32E0C00730D1012000F0C9
:10E510005DF900F0D5F904F015FA00280ED00628B0
:10E520000FD001216A4611750300FDF737F90C1968
:10E530001119111918191819131613190B200DB0E8
:10E5400000BD022000F042F9012000F025F9D7E7D4
:10E55000002000E00320107602E00220FBE71176A5
:10E560000022114605A804F02BF905F0A7FF0020B2
:10E57000E5E700007422002038B5040014D0694695
:10E5800006F002F8002813D0684600880101094807
:10E5900009188889002809D0A27A002A06D0401ECE
:10E5A00088810020A07238BD052038BD062038BD06
:10E5B0000A2038BD583100201FB501A9684605F072
:10E5C000A1FF04B010BD07B513460A4669460020F6
:10E5D00005F098FF0EBD07B513460A4600216846B0
:10E5E00005F090FF0EBD002805D0002903D000687B
:10E5F00008600020704705207047000038B50D46C0
:10E60000040017D0002D15D0694605F0BDFF002885
:10E6100012D0684600886168020108481218908983
:10E62000401C9081296060680C3068600120A072F5
:10E63000002038BD052038BD0A2038BD58310020E3
:10E6400010B5002804D00323002207F03FFE10BDC0
:10E65000052010BD10B50223002207F037FE10BDC3
:10E6600010B5002A03D0022307F030FE10BD0520AC
:10E6700010BD000010B5064A5178082906D08B005D
:10E68000044C491CE0505170002010BD0C2010BDFE
:10E69000742200207830002038B504460A480D4620
:10E6A0000078800701D4022038BD002C0AD06946CA
:10E6B000284607F017FF0028F6D16946098821800F
:10E6C000658038BD052038BD7422002010B5044691
:10E6D0000E480078800701D4022010BD002C10D015
:10E6E000218802290FD80A4A0801801842896088C7
:10E6F000121A032A07D407F0EBFE00202080608066
:10E7000010BD052010BD042010BD000074220020A3
:10E71000583100207FB50646087E0D46002827D0D8
:10E72000E869002824D000241FE0E869E1004318CC
:10E73000002069460390087B0A2108436946087354
:10E74000D9790A2060438019C907C90FE0301A1D22
:10E750000191029000921A8803A930469B1C05F093
:10E76000E9FF002805D1641CE4B2287EA042DCD871
:10E77000002004B070BD03218903401A80B27047A5
:10E7800003218903401A0349884201D801207047B8
:10E7900000207047FE3F000002490A7882430A7059
:10E7A000704700007422002010B504460078182835
:10E7B00002D1FEF767FB207010BD10B5044600784B
:10E7C000182802D1FEF75EFB207010BD02490A78BE
:10E7D00002430A70704700007422002070B506469C
:10E7E00000200546862906D0112902D0002903D031
:10E7F00070BD012500E001200E4C002A02460FD01A
:10E8000061793046FEF774FB2A4621793046FEF7DF
:10E810006FFB002261783046FEF76AFB002204E0BD
:10E8200061783046FEF764FB2A4621783046FEF7D1
:10E830005FFB70BDC4210020F8B506461C481F468A
:10E84000007815460C46C0070AD03046FFF702FB99
:10E85000002807D0002C07D0A00507D00620F8BD5F
:10E860000120F8BD0220F8BD0320F8BD3068A042A9
:10E8700004D8A80271680019884201D90520F8BDA2
:10E88000002D10D0684605F06BFD00280DD00098D3
:10E890000221C0C00170A101090C8180058105F031
:10E8A0001BFE0020F8BD0420F8BD0720F8BD0000C5
:10E8B0008C22002010B5084605F06EFD10BD00004A
:10E8C000F0B52648264C001B030926481946406926
:10E8D000421C03D10120000740698002224A1278BD
:10E8E0009646D2070CD00020F0BD1D4C15012C1906
:10E8F0002568002D03D06468002C00D0491E521CEE
:10E900009A42F2D3002420E0E2B2002594462A463F
:10E910000FE0134E1701BE193768002F02D0776839
:10E92000002F05D1767BAE4202D93546D6B2B44629
:10E93000521C9A42EDD362461501094AAA1850604A
:10E94000157BAD02401B641C10608C42DCD3064872
:10E950007146012211430170C5E700001023002019
:10E9600000230020001000108C220020002804D07A
:10E970000349496E01600020704703207047000082
:10E9800088310020F8B507461E481E460078154617
:10E990000C46C0070ED03846FFF75CFA00280BD0B3
:10E9A000002D0BD0002C09D028462043800707D02B
:10E9B0000620F8BD0120F8BD0220F8BD0320F8BDF7
:10E9C0003868A04204D8B10078680919884201D299
:10E9D0000520F8BD002E11D0684605F0C1FC0028C6
:10E9E0000ED0009806990760416001210172C56050
:10E9F0000461868205F070FD0020F8BD0420F8BD9A
:10EA00000720F8BD8C22002070B5174B0446186E05
:10EA1000182148431549C0180A78950715D5022CC6
:10EA200002D0032C1CD102E003F0E2FD18E04A788A
:10EA3000521CD2B24A70032A12D900224A7008210D
:10EA400006F0AEF905F076FC0AE0500708D5FB2089
:10EA500002400A70586E002802D0022002430A7059
:10EA600005F0F6FC70BD0000883100208C220020EB
:10EA7000FEB5002637460121304600F097FE04001F
:10EA80007DD03F4D00203F49A8710872E91D887173
:10EA900008463338007802285ED322463AA1032084
:10EAA00003F07CFA58E00C20704301190620085E40
:10EAB00002900820085E019001200743029881B26D
:10EAC00001980B4682B2FF3BFF20103B4A2B03D23A
:10EAD000104604F003F82AE00B46FF3B6A3B4F2B3D
:10EAE00003D2104604F05AF821E00B46FF3BD83B16
:10EAF000452B03D2104604F0B7F818E02B4BCB1887
:10EB0000592B03D2104604F00FF910E0274B6E3B4F
:10EB1000CB184F2B03D2104604F066F907E0234BC5
:10EB2000DC3BC91831290AD2104604F0C3F9FF288A
:10EB300005D0062169566854A979491CA971104964
:10EB40002C390978022906D3009019A10320019BD2
:10EB5000029A03F089FA761C01202056B042A2DC0A
:10EB6000F80703D0A879064901F0D8FC18484021DD
:10EB70000160002020706070154880380160FEBD83
:10EB800014200020102400204150503A494E464F96
:10EB90003A0D0A0D0A636F6E73756D6520717565A8
:10EBA00075653A2025780D0A00000000CFFDFFFFB3
:10EBB0004150503A494E464F3A783D25642C2079D1
:10EBC0003D25642C206B65793D2532780D0A0000C7
:10EBD00080E100E0FEB501210027084600F0E6FDD7
:10EBE00004007DD0754E3078032804D3224674A1EA
:10EBF000032003F0D3F9CBE00C207843051906225B
:10EC000008233078AA5EEB5E032807D37169E868B1
:10EC10000191009073A1032003F064FA01202056B3
:10EC2000012802D0022846D0B1E07069E9680246A6
:10EC3000801E814210D12879202108432871281D87
:10EC4000012102F0E9F9281D002102F0E5F93078F0
:10EC50000228E9D36DA123E0501E814201D09142E8
:10EC6000E2D1F07900281FD0AA6868680192029169
:10EC700000906C4BE98858882A89081A9988E8809E
:10EC8000511A480008182881281D002102F0C4F9F3
:10EC900069460EC963480EC03078022877D362A156
:10ECA000032003F055F972E00C2047435D48391901
:10ECB0002438091D34E07069E968421E914201D090
:10ECC000814264D1002F62D1F079002825D000253F
:10ECD000201D07C86B4607C36A465088514900E0AB
:10ECE0006AE04A888988801A6A46928800B2511A76
:10ECF00009B2021E0B4601DA424212B2002901DAC1
:10ED00004B421BB29A4220DA227910231A43227115
:10ED1000E58000290ADD01200AE042482438211D4F
:10ED20000EC924300EC00120F07136E00020C0432F
:10ED30002081201D002102F06FF93078022822D3B3
:10ED40003FA1032003F004F91DE000280BDD1B4860
:10ED50003A300178002916D1022101704F218170CB
:10ED60000121417009E015493A31087800280AD19B
:10ED70000120087050228A704870384800223649B5
:10ED80004069FDF7B7FA6D460ECD26480EC07F1CD0
:10ED900001202056B84200DD2EE7314840210160B5
:10EDA0000020207060702E48803801602B480022BF
:10EDB0002C49C068FDF79EFAFEBD0000E81F002048
:10EDC0004150503A494E464F3A0D0A0D0A636F6E54
:10EDD00073756D65206D6F7573653A2025780D0A22
:10EDE000000000004150503A494E464F3A783D25C8
:10EDF000642C20793D25642C206964783D25642CA1
:10EE000020636E743D25640D0A0000004150503AA5
:10EE1000494E464F3A6D6F75736520636C69636B3D
:10EE20000D0A00000C2100204150503A494E464F37
:10EE30003A6D6F757365206D6F76650D0A00000081
:10EE40004150503A494E464F3A6D6F757365207286
:10EE50006F6C6C0D0A000000662600003065020031
:10EE600080E100E066060000F8B501275449402023
:10EE70000860384602F06AFB524E002810D07069D4
:10EE8000514C401C70610020F071A068FDF776FACB
:10EE90002069FDF773FA307803281FD34BA18AE06D
:10EEA000504C277048482146203000F0D1F8607857
:10EEB000002811D0012000210090084600F076FCC7
:10EEC00005460021012000F071FC2F7007703D4ABB
:10EED00000215269944639E000202070F8BD0C22D0
:10EEE0004A4312190623D35EFF26FF3BFE36103B32
:10EEF000B3421CD20823D35E9B26B600B34216DD74
:10EF0000394EB34213DA0123C3560C267343121D44
:10EF1000C4CA1B181B1DC4C3012282560C235A43AA
:10EF200066461218D6604278521C42700DE00023EB
:10EF300000930123EB560C267343121DC4CA5B19C0
:10EF40001B1DC4C36A78521C6A70491C0122A25658
:10EF50008A42C4DC0021617021706A78002A00D1E5
:10EF600029704278002A00D101700098002817D03B
:10EF7000144D6046401C144C6861E068FDF7FEF9D2
:10EF80001A4E00223146E068FDF7B4F900223146FE
:10EF90002069FDF7AFF9287803289FD314A10AE070
:10EFA000094800221B498068FDF7A4F9054800784C
:10EFB000032893D318A1032002F0CAFFF8BD000074
:10EFC00000E100E0E81F0020306502004150503AA7
:10EFD000494E464F3A2D2D73746F702074696D65DC
:10EFE000720D0A004C2500202A0300003313000094
:10EFF0004150503A494E464F3A0D0A0D0A2B2B7399
:10F0000074617274206D6F7573652074696D6572BB
:10F010000D0A0000CD4C00004150503A494E464F79
:10F020003A0D0A0D0A2B2B7374617274206B65798B
:10F030002074696D65720D0A0000000000780028D8
:10F0400002D102490120087170470000E81F00202A
:10F05000F3B5464C83B00220A07001276770277279
:10F0600000262146039800F007F9677021460398AF
:10F0700000F0CAF820793E4D0207120FAA7101D0A4
:10F08000052A09DD2878022803D33AA1032002F0DB
:10F0900085FF002005B0F0BD287803280AD30120A1
:10F0A00002F054FA00900623EB563A4A3A490320FC
:10F0B00002F0DAFF0320A07051E0677027722B493D
:10F0C000039800F0D9F8042060702849039800F0F4
:10F0D0009BF820798209032A09D00498012141561E
:10F0E00006290BDB2DA1032002F032FF36E0324669
:10F0F00032A1032002F052FF3046CBE751083046E0
:10F100000C225043049A490080184171A1790909E1
:10F110000171217962790907090D1143C180A17933
:10F12000E2790907090D114301810499049A49788C
:10F13000491C5170297802290DD308230622C35E89
:10F14000825E01790192009102934379324623A1B4
:10F15000032003F00DF8A078801DA070761C062017
:10F1600028568642A9DB0620285693E74220002035
:10F17000E81F00204150503A494E464F3A0D0A20B0
:10F1800066696E6765725F6E756D203D2025640D42
:10F190000A0000006C650200D06702004150503A3E
:10F1A000494E464F3A746F75636820717565756591
:10F1B000206F766572666C6F770D0A004150503A89
:10F1C000494E464F3A66696E6765722025642C2069
:10F1D0006E6F206576656E740D0A00004150503ADE
:10F1E000494E464F3A25643A20655F66673D25647F
:10F1F0002C20745F69643D25642C20783D25642CA7
:10F2000020793D25640D0A0070B5114D8A780024DF
:10F210006A710E784B780A1D314602F02BFAFF26F0
:10F22000F5360EE0012002F033F8641CB44208DD2C
:10F230003346084A08A1032002F0E0FE0020C04344
:10F2400070BD28790028EDD00020287170BD000025
:10F25000E81F0020626502004150503A494E464F77
:10F260003A0D0A25733A2074696D656F757420250F
:10F27000646D730D0A000000F8B5124D8A78002401
:10F280006A710A7A00920E784B788A1C314602F035
:10F2900003FAFF26F5360EE0012001F0F9FF641CA9
:10F2A000B44208DB3346084A08A1032002F0A6FE58
:10F2B0000020C043F8BD28790028EDD00020287137
:10F2C000F8BD0000E81F0020586502004150503A88
:10F2D000494E464F3A0D0A25733A2074696D656FA1
:10F2E00075742025646D730D0A0000000EB51120A1
:10F2F000694608720D220FA102A87CDF002801D008
:10F30000FCF702FF0F4878DF002801D0FCF7FCFE75
:10F3100000200090019006206946088018224A804B
:10F3200088802B20C88068467ADF002801D0FCF74F
:10F33000EBFE0EBD4D6F78695F4B6579626F617250
:10F3400064000000C103000070B5002801D0012056
:10F3500070BD164C0025207B002801D0257301E0EC
:10F3600000F09CF820780300FCF718FA081E050846
:10F370000B0E1E111A1E00F01BF870BD00F07EF877
:10F3800070BD00F061F870BD00F038F870BD6088A5
:10F390000649000120394018406803F0B3FA70BDF7
:10F3A000656003F0BDFA70BD0F2070BD783100209C
:10F3B00070B5104900208A1C0D460346203D0C18EC
:10F3C000A67A002E08D0A37204016419A689002E23
:10F3D00002D1A47B012C08D0401C80B20228EED3BD
:10F3E0000B704B8004484B6070BD108000F046F8F5
:10F3F00070BD0000783100201D1D000010B50F4CBD
:10F4000060880101204620380818818900290BD026
:10F41000052020700A480221818001680023012212
:10F420000848FFF709FA10BD41680023012205488A
:10F43000FFF702FA0421217010BD0000783100208E
:10F44000842200200023002038B50A4908480B68B0
:10F450008988426889005918538803240470002061
:10F46000DB1C00909BB20448FFF78CFA38BD00000B
:10F4700078310020842200200023002010B50649A6
:10F480004888091D05F0D0F8002802D0FFF7DCFFFE
:10F4900010BDFFF7B3FF10BD78310020F0B51D4857
:10F4A0001D4907780246012502268C88203A3B0038
:10F4B000FCF774F9080517171A212C2C1617018967
:10F4C000491C01810021418001730B01D35C002B99
:10F4D00008D000234418491C89B2A3720229F4D32E
:10F4E0000570F0BD0123F5E742685288D21CA218CE
:10F4F0008A800670F0BD45880B682D01AA185568F2
:10F500000D60536014818E80062100E00721017098
:10F51000F0BD00007831002084220020F0B50446C0
:10F520000088384D8DB050281DD0522802D0542864
:10F5300026D103E0A08801F05FFA21E006206946A9
:10F540000870A08800F08AFD69464880A2888A80F9
:10F5500000F0A8F9A0880022E978FDF7C9FC684608
:10F56000FEF7B0FE0CE0207B012809D1A07A01282B
:10F5700006D120892449884202D1A08801F078FA76
:10F58000A878FDF797FC002819D008A8FDF7C6FB5E
:10F59000142208A903A8FBF7D3FD002403AE0BE057
:10F5A00060008719B888A978FDF790FC002802D080
:10F5B000B88801F021FA641C0398A042F0D868785A
:10F5C000FDF778FC002819D008A8FDF7A7FB142246
:10F5D00008A903A8FBF7B4FD002403AE0BE060000C
:10F5E0008719B8886978FDF771FC002802D0B888BF
:10F5F00001F03EFA641C0398A042F0D805F0A4FC88
:10F600000DB0F0BD78210020022900003EB504466F
:10F610004088694648802078002814D001281DD0F1
:10F6200002280FD1207900280CD0608800F048FC17
:10F630000E49884206D00E490122C978FDF758FCD0
:10F6400005F082FC3EBD002008700846FEF73AFE39
:10F65000608800F035FC01F0CFF93EBD012168461D
:10F660000170A1888180FEF72DFE3EBDFFFF0000E6
:10F670007821002010B50446007801280DD160885B
:10F6800001F0BAF9608800F0D1F9002805D00349EB
:10F6900060880122C978FDF72BFC10BD782100207D
:10F6A00010B5104C00202070FDF7ECFB6070FDF7EA
:10F6B000E9FBA070FDF7E6FBE070FDF7E3FB2071CE
:10F6C000617818290BD0A178182908D0E178182979
:10F6D00005D0182803D001202070002010BD032081
:10F6E00010BD000078210020F0B585B000F0F2F8E0
:10F6F0006846FDF713FB00246D460C4F0EE06000DA
:10F700004619B08800F0AAFCB84205D10849B08873
:10F710000122C978FDF7ECFB641CA4B20098A0425A
:10F72000EDD805F011FC05B0F0BD0000FFFF0000B2
:10F730007821002010B50178072902D1408801F016
:10F7400097F910BD10B504460A4841782046FDF7E8
:10F75000BDFB00280CD0084800210C224A43121897
:10F760005288A24201D1C8B210BD491C0829F4D365
:10F77000FF2010BD90210020802B002070B5094D86
:10F78000094E00240C206043401940887178FDF731
:10F790009DFB002804D0641C082CF3D3FF2070BD0F
:10F7A000E0B270BD802B00209021002070B5174A78
:10F7B00000241278002812D001280FD1144D4C20BB
:10F7C0006043285C88421DD1032A04D3224611A13C
:10F7D000032002F0E3FB4C204443601970BD0C4D44
:10F7E000983D4C206043285C884204D1032AF2D320
:10F7F000224610A1ECE7641C022CF2DB022CEDD1B6
:10F80000002070BD641C022CD9DBF7E7E81F002044
:10F81000B42400204150503A494E464F3A6765742F
:10F82000206D6F7573652071756575655B25645D09
:10F830000D0A00004150503A494E464F3A676574F0
:10F84000206B65792071756575655B25645D0D0AB2
:10F8500000000000F8B50746104E0125BD40306895
:10F86000FCF78CFD00280DD10D4C2069284207D1F2
:10F87000384601F06BFE0028E06804D0284303E01E
:10F88000A8432061F8BDA843E06020690022284316
:10F890002061A1683068FCF72DFDF8BDA06602006C
:10F8A000242200201CB5054A9168D268019200917B
:10F8B0000022694603F062FC1CBD0000C86502001E
:10F8C00003480021C9438180012101700020704755
:10F8D0008421002010B5044803F07CFB0349888094
:10F8E00005F05EFB10BD0000FFFF0000842100203A
:10F8F000F1B582B0029800F0B1FB0024164903254F
:10F9000001272646884209D06A46082103F00CFCEC
:10F91000002803D1019886880568841D2B4632464D
:10F9200021460298A9DF042804D0082804D00B2817
:10F9300007D002E0112000E00020002F00D10B20B2
:10F94000FEBD0027A80701D50125E7E73443F6D01F
:10F95000002426460325E1E7FFFF0000F1B582B051
:10F96000029800F07BFB07461B48874201D11B48E9
:10F97000FEBD01252A466D1C0026ADB26B4608214E
:10F98000384603F001FC040002D0072C21D021E00E
:10F99000019903230B600A1D891D0298AADF040048
:10F9A00004D00C2C08D0052C08D008E008213846DB
:10F9B00003F084FC04460DE0012600E00024082149
:10F9C000384603F065FC002800D00324002ED1D176
:10F9D00000E00C242046FEBDFFFF000002300000C6
:10F9E0001FB504460078012813D12079012810D1D1
:10F9F000608802AA012103F097FB002809D10221A7
:10FA000068460170618841800121017105490968DA
:10FA100088470448044908388088884201D005F0A6
:10FA2000BFFA1FBD8C210020FFFF00001CB500F0B5
:10FA300015FB6A46012103F077FB002801D0002066
:10FA40001CBD019800781CBDF8B5074E074C084D49
:10FA50000746324661883846A7DFA84203D160884E
:10FA6000401C6080F5E7F8BDFFFF00008421002006
:10FA7000033000008188054A914204D000880028A4
:10FA800001D001207047002070470000FFFF0000F8
:10FA900008B500206946087001226B4611460A48E5
:10FAA000FDF722FC002809D0082807D00749884222
:10FAB00004D00749884201D0FCF726FB012205A1AA
:10FAC000032002F06BFA08BD082700200430000074
:10FAD000013400004150503A494E464F3A6D65643A
:10FAE00069612072656C656173652C206964783D7D
:10FAF00025640D0A00000000F0B58FB00F460546E2
:10FB00001C216846FBF735FB684601780420014359
:10FB1000684601700024019403940494059401261E
:10FB200008A80694867016496846018407943978B7
:10FB3000017779784177807FF9210840F721801C8F
:10FB40000840EF210840410849006846817708A82D
:10FB5000047114210AA8FBF70CFB08A80A9007A857
:10FB60000B90684606864486868609A82B460E902A
:10FB7000FF3328896F330AAA6946A2DF0FB0F0BDB0
:10FB80004C2A000070B590B00C4606461C21684611
:10FB9000FBF7EFFA6A46107802210843107000253F
:10FBA0000195039504950595012008AA0695907185
:10FBB0001B486A46908434200795005D10773520F5
:10FBC000005D5077907FF9210840F721801C0840A4
:10FBD000EF210840400840009077208E08AA10705E
:10FBE000000A50703034A0789070E078D07004240F
:10FBF00014210AA8FBF7BDFA09A80A9007A80B90E0
:10FC00006A4614865586948608A833460E90FF33BC
:10FC1000308967330AAA6946A2DF10B070BD0000C0
:10FC20004A2A000070B59AB00024139412941894D4
:10FC3000082110A81994018101258572C572601CE4
:10FC40000107090F10A820310173601C0107090F7B
:10FC500010A820314173294620318173058418A8EA
:10FC600084700221C1700120024618A8203242711E
:10FC70000120024618A82032827110A805828174E2
:10FC8000C5740120014610A82031017501200146EC
:10FC900010A8203141750120014610A8203181753E
:10FCA0000621018303268676C5760120014610A829
:10FCB000203101770120014610A820314177012031
:10FCC000014610A82031817748216846FBF751FA98
:10FCD000324800903248019068460572447286723C
:10FCE00012A803906846057418A805906846047623
:10FCF000C021079481842B48FF2108900231684677
:10FD0000018608A88474C67484750120014608A879
:10FD100020310E9401730020014608A84173012090
:10FD2000014608A8203101750020014608A8417548
:10FD30000120014610A82031C1700120014610A801
:10FD4000203101710020014610A8417101200146B7
:10FD500010A8203181710120014610A82031C17105
:10FD60000120014608A8203101770120014608A89A
:10FD7000203141770020014608A881770120014603
:10FD800008A82031C17769460748FDF715FA002811
:10FD900001D0FCF7B9F91AB070BD0000C52502000A
:10FDA0000B5102004B200020082700203EB50446DE
:10FDB00000780D46022815D10322611C6846FBF726
:10FDC000BFF90322211D02A8FBF7BAF901AA02A973
:10FDD0002846FCF7FDF8032201A96846FBF7DBF98A
:10FDE000002801D000203EBD01203EBD10B50C46CC
:10FDF000FFF7A8FCFF280AD00C2148430549072239
:10FE000041182046091DFBF79BF9002010BD052075
:10FE100010BD0000802B002070B5018890B0102923
:10FE200049D1011D2C2202A8FBF78AF96846234E0E
:10FE3000007B344602AD03282AD003F047FB684616
:10FE4000007B00280ED001280CD0022820D118E019
:10FE50000E99281D1131FBF710FF002802D06846CB
:10FE6000048815E00DAA6946072003F005FB002869
:10FE7000EED10DE00E99281D491CFFF797FF0028D1
:10FE8000EDD10DAA6946072003F0F6FA0028F1D15A
:10FE900068460089291D01F0A3F9B4420BD06846D9
:10FEA0000089214600F088F86846018941800121D7
:10FEB0000170FEF70DFA10B070BD0000FFFF0000EA
:10FEC000084A00210C234B43D35A834204D10C200F
:10FED0004143881840887047491C0829F2D30248DA
:10FEE00070470000802B0020FFFF000006207047B5
:10FEF00010B50E4C182060700D4A0E4900200C23DE
:10FF000043435B18401C5A800828F8D3FCF7BAFF1B
:10FF10006070182804D00548C01C71DF002801D08B
:10FF2000032010BD01202070002010BD9021002072
:10FF3000FFFF0000802B002070B504460D46401CDA
:10FF400000F05CFA002810D01022691C601CFBF73E
:10FF500022F900280AD00026294620461131113006
:10FF6000FBF78BFE01463046084370BD0126F3E7E0
:10FF70000188002903D142189278002A01D001207B
:10FF80007047491C0829F6D30020704710B50C466D
:10FF90000346FFF7EDFF00280BD018882188884220
:10FFA00006D10822A11C981CFBF7F5F8002801D007
:10FFB000002010BD012010BD10B503F043FC10BDA2
:10FFC00010B50446007888B0002826D1207907288B
:10FFD00023D1608801AA072103F0A6F800281CD1CC
:10FFE00003F074FA1BE0694660880988884216D0DD
:10FFF00004990298FFF7A0FF002810D06088FFF74F
:020000040002F8
:100000005FFF01466846C182002101756188018356
:100010000188418305A8FEF75BF908B010BD03AA6B
:100020006946072003F028FA0028DCD1F5E7000034
:1000300070B50446FFF744FF0546204603F079F803
:10004000054904468D4204D0002C02D1284603F015
:10005000F9FB204670BD0000FFFF000010B5FFF760
:1000600071FBFF2804D00C2148430249085A10BDF7
:10007000014810BD802B0020FFFF00003EB5044664
:1000800003F024FA10E0019920464631FFF77EFF85
:10009000002806D1019920462A31FFF777FF002872
:1000A00002D0684600893EBD6A4602A9072003F0D7
:1000B000E3F90028E7D101483EBD0000FFFF000042
:1000C0007CB514460A000A49897802D015688D4229
:1000D00004D3002B04D01D688D4201D204207CBDC6
:1000E0000193134602460094024803F0FBFB7CBDDB
:1000F00090210020E02B002070B50C460546102111
:100100000948FBF736F80948002D09D0002C07D024
:100110008470620029460448FBF712F8002070BD85
:1001200000218170FAE70000E02B002090210020E0
:10013000F8B50F46002804D00120FEF72DFB012062
:10014000F8BD397900290AD00026254D01290BD0A8
:10015000244C022920681FD003293BD125E002F05E
:10016000DFFB0121397133E000200101695C0229C4
:100170000BD0401C80B20228F7D30220FEF726FBEA
:100180000120FEF709FB1848F8BD0401601940681A
:1001900002F0B8FB2E551BE0014600230122134854
:1001A000FEF74AFB0221A18011E002F0ABFB0C49F3
:1001B0002368203149880A01094951184D68256092
:1001C0004B60A3880B810221A18005498E543E71AA
:1001D0000028D9D00120FEF7DFFA0E20F8BD00007C
:1001E00058310020842200201D1D00000023002023
:1001F0007FB50646887A0D46002833D0E868002887
:1002000030D000242BE0E868E10043180020694664
:100210000390087B0221084369460873997909070E
:1002200002D00821084301E0F721084010210843CB
:10023000694608730A2060438119D8791431C007D0
:10024000C00F1A1D0291019000921A8803A930462E
:100250009B1C04F06FFA002805D1641CE4B2A87A54
:10026000A042D0D8002004B070BD0000F8B51E4CEC
:100270002078002836D0E068002600280CD0002521
:10028000607800282ED1684652DF052806D0002865
:1002900006D0FBF739FF0BE00125F1E7012607E067
:1002A000009801F07DF82169002901D00098884765
:1002B000002D13D16078002814D160886946088029
:1002C000A06861DF052804D0002804D0FBF71CFFDC
:1002D00004E0012502E0E168A0688847002ECFD045
:1002E000002DE5D0F8BD0000E82200207FB50C46C7
:1002F0000D462035064669782878019100902246FF
:100300002632D11E3046E36905F0DBFC002819D106
:10031000E87800281DD1207B022801D0032818D1BD
:100320002269E169914214D16269E261E37B2B7039
:10033000217E8906C90F6970032804D03146204602
:1003400005F058FC7FBD00913146204605F03EFD8A
:100350007FBD20460C3007C801AB07C3E8780021F9
:1003600000280ED00920C0013218506C506482075A
:1003700001D5012002E0400705D502206A46107031
:1003800001E0684601702971207E4007E0D42268B0
:100390006846616890477FBD418805480288914260
:1003A00004D34088814201D8012070470020704763
:1003B000682100201048018CC9B2012917D1818C15
:1003C000090714D1018D09060A0F03D1828D120687
:1003D000120F0ED0090F012903D1828D1206120FC0
:1003E00007D0032903D1808D0006000F01D0002023
:1003F0007047012070470000C00F00F00021425CF0
:10040000002A01D001207047491C1029F7D3002091
:100410007047800701D0002070470120704700001E
:10042000F8B5012001F092F800284CD100210846CF
:10043000FFF7BCF9040010D00120207021462248AB
:10044000FEF706FE6078214D002809D06969FF2378
:100450000020FE338C46C0261EE01DA1012030E0A6
:10046000002020701CE00C214143091906228A5EFD
:10047000FF3A103A9A420BD208228A5E9B27BF00AD
:10048000BA4205DD1B4FBA4202DA6246CA6002E098
:100490004A7932434A71401C012161568142E2DCB3
:1004A000012001F053F800280DD107480022203820
:1004B00011498068FBF71EFF2878022803D30FA19B
:1004C000032001F045FDF8BD50650200E81F002043
:1004D0004150503A4552524F523A74696D65723AE2
:1004E000206E6F20667265652071756575650D0AF1
:1004F000000000002A030000660600004150503A48
:10050000494E464F3A726573746172742074696D16
:10051000657220616761696E0D0A00007CB5044652
:1005200001A800900D46002322460D4804F05CFC13
:100530000C49884209D168468388A34204D82246E0
:1005400029460748FDF7CEFB7CBD0028FCD00828D3
:10055000FAD005498842F7D0FBF7D6FD7CBD0000F4
:1005600008270020043000000134000010B50448C2
:10057000017AC90702D00078FDF772FA10BD0000B9
:1005800018210020FFB5244D81B0287A1F460E4661
:10059000084304D0039A002E04D0002104E0052073
:1005A00005B0F0BD1C491031019804F093FF0446DA
:1005B000014600220198FEF711F9002F03D02146D1
:1005C0000198FDF765FE112C0FD006DC002C0AD037
:1005D000082C08D00D2C05D105E0862C11D00F4831
:1005E000C44200D003242046DAE73246E978019875
:1005F000FCF77EFCA978039A0198FCF779FC0024AB
:10060000F1E73246E9780198FCF772FCA978039A81
:100610000198FCF76DFCE6E7C4210020FECFFFFF48
:10062000FEB517460C00064604D02078C00704D05B
:10063000012003E000217EDFFEBD02206946087133
:100640003046FFF70BFD17490546884208D001A840
:1006500000902B463A462146304600F025F806E049
:1006600020782146C007304603D000F081F80446C8
:100670000BE07EDF044600200090002C08D0002212
:1006800001232946304604F057FB002C02D006E037
:100690000122F5E768460179304604F073FB2046F5
:1006A000FEBD0000FFFF0000FFB585B000252E460F
:1006B00001AA07210E9F089802F036FD040008D118
:1006C000029D4420405D1835C607F60F01D0029DFB
:1006D00034350798204312D1002D10D0002E05D1BB
:1006E00028461230FFF744FC002808D029462A4645
:1006F0001231059885DF04460020387023E0002C75
:1007000001D0052C1FD106980078C0070DD003AB8F
:1007100001220721089802F037FD04000AD10721C1
:10072000089802F02FFE040004D1069905987EDF98
:10073000040008D00721089802F0AAFD002802D082
:10074000052800D00324002000903878002801D02C
:10075000012300E00023002C07D00022089905980F
:1007600004F0EAFA204609B0F0BD0122F6E70000E5
:10077000FEB50F46064602F0CBFC054618488542FA
:1007800020D001AB01220721284602F0FDFC040025
:100790000AD10721284602F0F5FD040004D13946AC
:1007A00030467EDF040008D00721284602F070FDA5
:1007B000002802D0052800D0032401200090002C3E
:1007C0000BD002E0032400200090002201232946E0
:1007D000304604F0B1FA2046FEBD0122F6E70000E3
:1007E000FFFF0000F7B5114D0F4616462978009817
:1007F000FCF76CFB002812D00098FFF72FFC044692
:100800000B4884420BD069780098FCF75FFB002806
:1008100006D033463A462146009802F00BF9FEBD59
:10082000324639460098FDF7D5FCFEBDC0210020B8
:10083000FFFF0000F1B586B00698FCF73BFB0028EF
:1008400021D06846FCF76AFA00246E4618E0600082
:100850008519A8880699FCF739FB00280FD00B4FA3
:10086000A888B978FCF732FB0590A888F978FCF7DE
:100870002DFB0146A8880123059AFFF783FE641C1F
:100880000098A042E3D807B0F0BD0000C4210020CA
:10089000F0B5284C2146103948688B682278864686
:1008A0009C46CF78667836E0182353436168521C23
:1008B000C918A378D2B2934200D100220B78022B40
:1008C00002D0032B27D123E003464D68194603E0ED
:1008D000A94204D00B46C96900291CD0F8E70029B9
:1008E00019D08B4208D1C069002805D1124F0125CB
:1008F000BD600025AC4601270D68C969D961002992
:1009000009D00B685B190B6005E00174C06900E059
:1009100000210028F9D19642C6D106496246103915
:100920008A604860CF70704501D00120F0BD002082
:10093000F0BD00005822002000100140F8B52C4EF8
:10094000044670680025009041E0002C02D020464B
:10095000E46920E0264818231030017842684B43B0
:10096000491CC9B2D21801708378994200D1057030
:100970001178506801292CD1017C002929D1916876
:100980004160D16881601169C16051698161F1780C
:10099000002900D045604368B268164F991A0902D1
:1009A000090AB94202D28268891806E0D11A0902FE
:1009B0008268090A8A4202D9511A016000E0056082
:1009C0004560012185600174C56104F0BFFF002C02
:1009D000BBD107481030017840788142BAD17168A4
:1009E0000098814201D00120F8BD0020F8BD000030
:1009F00048220020FFFF7F00FEB50446194800266C
:100A000084422DD02046FEF773FF050012D00B2D37
:100A100014D0112D10D01448C5421BD009216846AE
:100A200001702046FFF71AFB01466846418084802A
:100A300002950DE0022102E001260BE00321684649
:100A400001702046FFF70AFB01466846418084801A
:100A5000FDF738FC0548324681782046FCF748FA15
:100A6000FEBD0000FFFF0000FECFFFFF7821002049
:100A7000FEB504460026FEF771FF0546112818D082
:100A800004DC002D13D00C2D05D114E0862D25D0CB
:100A90001348C5421BD00921684601702046FFF764
:100AA000DDFA014668464180848002950DE001210F
:100AB00002E001260BE00721684601708480204691
:100AC000FFF7CCFA014668464180FDF7FBFB05487D
