:020000040001F9
:10B0000058360020D5B00100EFB00100F1B00100CA
:10B010000000000000000000000000000000000030
:10B02000000000000000000000000000F3B001007C
:10B030000000000000000000F5B00100F7B00100C2
:10B04000E1B30100F9B001001DB50100F9B0010044
:10B05000F9B001000000000025B20100F9B00100C4
:10B06000F9B00100F9B00100F9B00100F9B0010038
:10B07000F9B00100F9B00100F9B00100F9B0010028
:10B08000F9B0010035B40100F9B00100F9B00100D8
:10B0900055B40100F9B001005DB40100F9B0010040
:10B0A000F9B00100F9B0010000000000000000004C
:10B0B0000000000000000000000000000000000090
:10B0C0000348854600F070F800480047DDF60100AF
:10B0D000583600200321094802680A4302600848E4
:10B0E00002680A4302600748804707480047FEE7B6
:10B0F000FEE7FEE7FEE7FEE7FEE70000240500406E
:10B10000540500407DB40100C1B0010030B50B46CC
:10B11000014600202022012409E00D46D5409D4231
:10B1200005D31D469540491B2546954040191546B7
:10B13000521E002DF1DC30BD03460B439B0703D0AC
:10B1400009E008C9121F08C0042AFAD203E00B78EC
:10B150000370401C491C521EF9D27047D2B201E064
:10B160000270401C491EFBD270470022F6E710B562
:10B1700013460A4604461946FFF7F0FF204610BD65
:10B18000421C0178401C0029FBD1801A704730B561
:10B1900004460020034600E05B1C934203D2E05CBF
:10B1A000CD5C401BF8D030BD064C0125064E05E0B5
:10B1B000E36807CC2B430C3C98471034B442F7D3D8
:10B1C000FFF782FF283502004835020070B58C1861
:10B1D0000578401C6B075B0F01D10378401C2A11D6
:10B1E00006D10278401C03E006780E70401C491C12
:10B1F0005B1EF9D12B0705D40023521E0DD40B7012
:10B20000491CFAE70378401CCB1A921C03E01D7816
:10B210000D70491C5B1C521EF9D5A142D8D30020E9
:10B2200070BD0000F0B50024FF268BB0013601256B
:10B2300027460694304604F021FE002807D05448E3
:10B240004068284203D0304604F010FE2C43361DDF
:10B250006D007F1CB6B2042FECD3FF257D35284648
:10B2600004F00CFE002809D0284604F0FFFD680712
:10B27000044306AA0121002004F0E4FD454D200707
:10B2800014D00127002627420CD04348B2001118E1
:10B2900008690969C004C00E8903AA58890F002AE9
:10B2A00000D090477F00761C042EECD3002C6DDA82
:10B2B00000200890401E63E0281940300778B90646
:10B2C000890E009100214156491C49D009A90098D6
:10B2D00004F0E6FB002843D0B8090190009802F082
:10B2E000E5F880002F580198002F02D0032802D0E3
:10B2F0000DE0032834D1009808ABC20841079446FA
:10B30000985C490F01228A40104362469854009885
:10B31000052109078000401807210902401800682C
:10B3200006A98003800F0290009804F0B9FB002862
:10B33000029802D0022802D012E0032810D101980E
:10B34000032808D1029802281ED00221009804F098
:10B350005CFD761CF6B2002F02D001990098B84728
:10B36000641C042CA8D3002E10D06A4601210020B2
:10B3700004F068FD06990098884207D00690089866
:10B3800000263446099097E70321DFE70BB0F0BDB4
:10B3900000630040502C0020006500408307FF221E
:10B3A000DB0E9A408907090E994000280BDA000746
:10B3B000000F0838830808489B001818C369934396
:10B3C0000B43C3617047830804489B001B1818682F
:10B3D000904308431860704700ED00E000E400E08F
:10B3E000F8B5FF20013004F063FB002401250E4E68
:10B3F0000E4F002807D00E4804600120B0607D7019
:10B40000002002F0E1F8FF20053004F051FB002895
:10B4100008D00748001D04600220B060BD70012004
:10B4200002F0D2F8F8BD0000000300403C2C0020E0
:10B430000001004010B5064900200860486088609F
:10B44000C860034940390860486007F07BFC10BDC4
:10B450004011014010B507F0E7FB10BD10B50648DC
:10B460004068002805D08047002801D000F0BCFAD1
:10B4700010BD03F0D7FD10BDE021002010B503F092
:10B480001FFE002805D01F491D484860C8131E49EB
:10B4900088611E48018CC9B201290BD1828C120728
:10B4A00008D1028D1206120F042A03D1828D1206D2
:10B4B000120F0AD0012921D1818C09071ED1018DDB
:10B4C0000906090F0A2904D007E0114A01219160F9
:10B4D000F5E7828D1206120F05D00D290ED1808D51
:10B4E0000006000F0AD10B480168012904D00A495F
:10B4F000016001680129FCD1C021416110BD00003B
:10B50000DFFF07C000050040006C0040C00F00F0E6
:10B510000006004000EC06407593000010B502499B
:10B52000024807F098FC10BD982C00200020004035
:10B5300030B47446641E2578641CAB4200D21D46AC
:10B54000635D5B00E31830BC184702E008C8121FB7
:10B5500008C1002AFAD170477047002001E001C1FC
:10B56000121F002AFBD17047202804DA01218140F4
:10B570000348014201D001207047002070470000BD
:10B58000FC06FFBC10B500280CD000290AD00278B8
:10B590000B789A4206D10622401C491CFFF7F7FDA2
:10B5A000002801D0002010BD012010BDF7B584B0E7
:10B5B000064600251788158020300290407B1446EF
:10B5C000002806D03A462146059801F0D3F8050038
:10B5D00009D1B078002823D0059886462088001D20
:10B5E000B84202D90C2007B0F0BD684679DF0028C8
:10B5F000F9D1218803207246505420881921401C1B
:10B6000080B22080115420887146401C80B2208076
:10B6100041186846008807F0B2FC21884018208055
:10B62000F078002817D0218803230A46F356C91C56
:10B630000598B942D6D80221815421880122491C9B
:10B6400089B2218042542188491C89B22180435407
:10B650002088401C20807068002817D02188002393
:10B66000C3560A46C91C0598B942BBD80221815469
:10B6700021880A22491C89B2218042542188491C10
:10B6800089B2218043542088401C208030890028C2
:10B690000AD0009430460197062202210830059B0B
:10B6A00007F0C6FC05009ED1308A00280AD000941D
:10B6B00030460197072203211030059B07F0B8FCA4
:10B6C000050090D1308B00280AD0009430460197B5
:10B6D000152214211830059B07F0AAFC050082D121
:10B6E000306A002806D03B462246059901F0D4FF77
:10B6F0000500D8D1706A002806D03B46224605993D
:10B7000004F08BF80500CED10298007B002807D00A
:10B710003B4622463046059906F0E6FE0500C2D1BA
:10B720003078002807D03B4622463046059904F081
:10B730001FF90500B7D1284655E70000174A002138
:10B74000535C002B01D0012203E0491C0629F7D3EA
:10B7500000221349012806D002280BD0032810D05C
:10B76000042818D112E04878002803D0002A01D01C
:10B77000012070478878002803D0002A01D00220D9
:10B780007047C878002801D0032070470879002846
:10B7900001D0042070470020704700009D20002049
:10B7A000F425002010B501220221002001F0DEFC6A
:10B7B000002801D0072812D107220221012001F020
:10B7C000D5FC002801D0072809D100210A2208460B
:10B7D00001F0CCFC002801D0072800D1002010BDCA
:10B7E00010B598B03C2101A8FFF7BFFC02226846C3
:10B7F0000271012405218471C1718482124806906E
:10B80000202110A8FFF7B1FC10A80470447000219B
:10B81000817012911391C470282014901E201590ED
:10B8200010A804711920C0011690B4201790074881
:10B830000090074B10AA01A800F0C4FB002801D01B
:10B8400000F0D2F818B010BDF21F0020BDBF0100FB
:10B85000ADFE0100F8B51E4E102132461D48FFF71F
:10B860007DFC1D4C082060611A4825460090143567
:10B870000827304605F06CFD0021296007E02968A3
:10B88000009A4B00491C2960D05205F061FDB0427E
:10B8900001D07F1EF3D20F48616905F05FFF0028D9
:10B8A00001D000F0A1F80B48616905F003FC0628FF
:10B8B00003D0002801D000F097F80020A0700320EA
:10B8C00000F0A4FC002801D000F08EF8F8BD0000C4
:10B8D000FFFF000038250020E81F0020F0B50F46CC
:10B8E0008DB0002116466D460F24621A825C6A54A0
:10B8F000491C1029F9D328460D211030FFF735FCDB
:10B900000020221A395C5219401C11740328F8D304
:10B9100068464DDF0020211A491920310978315439
:10B92000401C0328F7D30DB0F0BD10B5022001F084
:10B9300089FA10BD70B50024064D06E06968E00084
:10B94000085C012104F048F9641C28788442F5D38E
:10B95000002070BD74210020F8B515460C4606463F
:10B96000052A01D20720F8BD04F00EFA002803D101
:10B9700004F0DCF90028F6D1104900204E600C706C
:10B98000C8608D6008610E4D0DE0E00069688019A7
:10B99000009181786A46517000780A4A694604F03D
:10B9A00067F90028DFD12046641EE4B20028ECD1FC
:10B9B000054A0021024800F0A5F8F8BD74210020D6
:10B9C0000C350200A1E6010035D80100BFF34F8F0E
:10B9D00004490348C860BFF34F8F00BFFDE7000074
:10B9E0000400FA0500ED00E00EB500210290009180
:10B9F0006A4601910148FFF7E9FF0EBD01400000D2
:10BA0000F7B5244C82B060880E4681423FD80025AD
:10BA10006846214F057000F035F922786078A188DA
:10BA2000884201DA401C00E00020C0B2904204D1FC
:10BA30006846007800F044F927E06578607888422D
:10BA400001DA401C00E0002060706846007800F0D9
:10BA500037F9BD4219D0A068EF000499C15102998D
:10BA600000290CD0002E0AD0608832464543E06899
:10BA70002818FFF761FBA0683818868002E00021D3
:10BA800038188180002005B0F0BD0420FBE70920B4
:10BA9000F9E7000088210020FFFF000010B50D4CE1
:10BAA00003E0401C00E00020207020786178814293
:10BAB0000FD021786088E26848438018A368CA00E4
:10BAC000D1189A58898890472078A1888842EADA64
:10BAD000E7E710BD8821002030B5CB0008339DB2C8
:10BAE00093070024002B01D0072030BD044B9A603F
:10BAF0005219DA605C701C7058809980002030BD4B
:10BB000088210020094B5B68002B07D0002A07D052
:10BB1000002805D00068037C002B03D00820704764
:10BB2000072070474174426100207047A82100201F
:10BB300010B50446082902D00020FFF755FF216800
:10BB40006068884710BD00001CB501910090034A51
:10BB500008216846FFF754FF1CBD000031BB0100FF
:10BB6000FFB507469007002581B01E461446002801
:10BB700025D1002C23D006F0C1F93046114EF060DB
:10BB800030461030057045700299817044607560D0
:10BB9000357001240C4875702405046003211420BD
:10BBA000FFF7FCFB09480460094CA7600321112042
:10BBB000FFF7F4FB6068B060002005B0F0BD07201F
:10BBC000FBE700009821002080E200E000E100E0B7
:10BBD00000150140FEB51F4B5B68002B30D00028DC
:10BBE0002ED0052901D20720FEBD4369002B27D0A6
:10BBF000437C012B26D0002702910446002569468C
:10BC000016460D70684600F03DF801A807F0FAF9F5
:10BC1000002819D0012101700F49446049688160F2
:10BC2000029907614661C16068460A490079487017
:10BC30006846007800F044F807F038F82846FEBD62
:10BC40000820FEBD0F46D7E768460425007800F0BF
:10BC500037F8F3E7A82100200015014010B5084986
:10BC6000496800290AD0002808D04169002905D078
:10BC700000210174022107F041F810BD082010BD19
:10BC8000A821002030B5EFF3108172B6094A54683C
:10BC90000123002C04D00370002900D162B630BD0E
:10BCA0005360054B1D68054C254015601C60002243
:10BCB0000270F1E7BC21002080E100E0FC06FFBC3F
:10BCC00008494A68002A0CD000280AD1EFF31080F6
:10BCD00072B60A68044B1A6000224A60002800D13C
:10BCE00062B67047BC21002000E100E0F0B50446D8
:10BCF0008BB0008800F0DAFC0590208803F08AF809
:10BD00000646A0680090657A684605741E4F208834
:10BD10000022397800F01AFD0598002831D06079AA
:10BD2000400710D50721304604F0BCFD002813D091
:10BD3000082269460A7422884A828E82069004A8E4
:10BD400001F09EFE08E02088B97800F0EDFC0028A4
:10BD500002D0304603F048F803216846017121887B
:10BD6000C18060794007C10F68460172A079400721
:10BD7000C10F6846417201788172C57201A801F055
:10BD80007FFE0BB0F0BD00001021002000B585B093
:10BD900014216846FFF7E9F9002101226846009165
:10BDA00002710291642101731146203141731146E1
:10BDB00020318173002001466846C173114620314D
:10BDC00001746946044800F011FB002801D0FFF718
:10BDD0000BFE05B000BD000010250020F0B50546A3
:10BDE000007D002493B00E4600280DD001200146AE
:10BDF0006846103103940173717B4173817BF92094
:10BE000001406846891C81731C2104A8FFF7ADF925
:10BE10006946087C02210843694608742A7DEF219F
:10BE2000002A02D01022104300E008406A46107435
:10BE3000059407940894287D002800D003A8099051
:10BE400001270A9410469771304A82800094B27B91
:10BE50000270F27B42708078F9221040F722801C39
:10BE60001040EF2108404108490068468170317B4D
:10BE7000017214210BA8FFF778F901A80B9068460E
:10BE80000C908786C486078702A80F90A888AB1DF0
:10BE90000BAA04A9A2DF002835D1B068002830D051
:10BEA000684687711A4981800094317C01700020B6
:10BEB0000146684641708078F9210840F721801CCE
:10BEC0000840EF210840410849006846817011A8E8
:10BED000B16800F0C3FE064614210BA8FFF745F930
:10BEE00001A80B9068460C908686C486068711A828
:10BEF0000F902A46E8880E320BA9A3DF002802D152
:10BF000000E0EC81002013B0F0BD0000192A000011
:10BF10000829000010B50B490B4806F03DFAC1B2E4
:10BF20000848183800F028FA002809D0082807D057
:10BF30000649884204D00649884201D0FFF754FDE3
:10BF400010BD000028250020002000200430000043
:10BF500001340000F0B50C4693B01F216A461180F1
:10BF6000072600279180002809D0C17849070DD500
:10BF700002A9FFF71BFB002809D102AD01E0002553
:10BF80001780002C0ED0E078002802D0304613B085
:10BF9000F0BD01AA0AA92046FFF708FB0028F6D148
:10BFA0000AAA02E068460022878068468088C3B2F9
:10BFB00068460088C1B2284672DFE8E710B5FFF78F
:10BFC00013FD10BDFFB581B01E460A9F1346040045
:10BFD00047D0002B45D0504D012028700020E8703C
:10BFE000202219464D48FFF7A7F800206F61C04393
:10BFF0002E612881284607211830FFF7B6F84748F8
:10C000003C212030FFF7B1F84448217820300170FE
:10C01000A1788170E178C170617841703F4A6569AB
:10C0200023695563114613632031E368A268CB602E
:10C030008A603A49E369A269CB638A63616A00292D
:10C040001AD001463C310246483241628A60636A36
:10C050001B880B80616A436A898899800021436A42
:10C0600007E00E2005B0F0BD656AAD686D5C555403
:10C07000491C9D888D42F7D8A16A00291CD0274A07
:10C08000943211460C398A608162A36A9B888B8046
:10C09000A16A836A098819800021836A04E0A56A7D
:10C0A000AD686D5C5554491C9D888D42F7D82C2194
:10C0B0000A5D1A4940310A73216A002909D01649DC
:10C0C0000A310162226A52884A80216A026A09881A
:10C0D00011806168002900D04160104A0E4900209B
:10C0E000B3322031C3001B1A85009B180C68401C1A
:10C0F00063510828F6DB094A0020EB320301850072
:10C100009B188C68401C63510828F7DB0348029990
:10C110002030FFF71FFFA5E784200020F425002032
:10C1200010B50188134C102915D0112919D01B29DD
:10C1300010D1007A00280DD1E0780521401CFEF7CF
:10C14000E5FF084600F062F8002803D06169002985
:10C1500000D0884710BD817D0129FBD180882081D6
:10C1600010BD00216171808821898842F8D10120A9
:10C17000E8E700008420002010B5022801D0032841
:10C180000ED1084C607800280AD000206070E0785A
:10C1900000F03CF8002803D06169002900D08847EE
:10C1A00010BD00008420002010B5084A1179002934
:10C1B00009D0002111710146044807221830FEF70A
:10C1C000BBFF002010BD082010BD0000842000200F
:10C1D00010B574DF0B4C012060710B490620C8704C
:10C1E00000210948FFF7B6FE002809D1E07800F0E9
:10C1F0000DF8002803D06169002900D0884700208D
:10C2000010BD00008420002014260020F1B53F4C12
:10C2100088B0207800280AD00898E07006A801F0BD
:10C220005BFF06980125002804D065706AE00820AD
:10C2300009B0F0BD3548002707211830FEF795FFFB
:10C24000334E7078002802D0E078012807D0B0780B
:10C2500000280CD0E078012801D0022807D12169FC
:10C26000002903D025710820884700E0277108982D
:10C27000FFF764FAE0702169002909D0032801D092
:10C28000042805D13078002802D06079002811D028
:10C29000A77118216846FEF768FF684607700772A5
:10C2A000E1781A480B001830FFF742F9052E080F05
:10C2B000191D2000A57107208847EAE7A5700190A5
:10C2C000684605704782078213E00221A170019041
:10C2D00068460570B18941823189018209E068466A
:10C2E00006F04EF902E0684606F076F9E07800289C
:10C2F00003D0684673DF00289AD12169002901D054
:10C30000A0788847002093E7A770F6E784200020F4
:10C31000F4250020FFB517480F46817981B01E46ED
:10C32000002907D00021044681712034277126732B
:10C330000D460DE0082005B0F0BD2068A90040586A
:10C34000E9004A1B019951180722FEF7F5FE6D1C02
:10C35000BD42F2D3002509E0A068A9004058039926
:10C360002A0151181022FEF7E7FE6D1CB542F3D3E7
:10C370000020E0E78420002073B586B004002FD0B1
:10C380006A46217C127F0020914227D00025012699
:10C39000684600950680458007A80190E188608A7C
:10C3A0006A46A4DF002819D16846007F2074608A9D
:10C3B0000D49884216D0207D002813D002950395A0
:10C3C00004950595E18868460181867241888181DE
:10C3D000049001980590608A02A9A6DF08B070BD9C
:10C3E0000E20FBE70820F9E7FFFF000038B50D46F7
:10C3F00004001AD0002D18D0286820600020C04307
:10C40000608228792075FF202074012168468170A0
:10C4100007490180221D69460120A0DF002803D1C1
:10C4200029462046FFF7DAFC38BD0E2038BD000053
:10C430000F18000038B5002824D0002922D00A881F
:10C44000102A1AD0112A1AD0502A1BD10446007D76
:10C45000002817D0C8886289891D904212D1488966
:10C4600002280FD1206800280CD008460C3000F0BC
:10C47000EEFB002807D0002006E0898801E00021BB
:10C48000C943418238BD01206946087022682046B0
:10C49000904738BD70B5054601461C220E48FEF790
:10C4A0004BFE0E4C002626702968002906D0082273
:10C4B000201DFEF741FE201D7ADF02E00748001D27
:10C4C0007BDF002807D1401E60806670044A00218F
:10C4D0000448FFF717FB70BDC0270020B4200020E0
:10C4E000892F020084340200F8B5214C01460288ED
:10C4F00000261E48E589102A13D01E4F112A1FD08E
:10C50000122A2BD0502A1AD1881DC988A94216D1C7
:10C510004189022913D10C3000F099FB00280CD17D
:10C5200012E08A8804464280104808220C301831F4
:10C53000FEF702FE6670002D01D101F0F5F8F8BD9E
:10C540000021C943418046703868FFF787FB002807
:10C55000F5D0A1690029F2D08847F8BD0348082228
:10C560000C300831FEF7E8FDE7E70000B4200020BA
:10C57000C02700208434020010B503490A7D091D3C
:10C5800005F091FD10BD0000DC270020034B10B525
:10C590000246D97D181D05F073FD10BDDC27002073
:10C5A000034B10B50246197E181D05F069FD10BD3C
:10C5B000DC270020F0B5044602883A488DB00146D9
:10C5C00015310191102A09D0112A50D01A2A4AD1C6
:10C5D000217A090901294ED901234DE0027D417DCF
:10C5E00005468A43011D07A805F05DFD142207A931
:10C5F00002A8FEF7A1FD00262A483746143008900D
:10C600000AE0710002A8081883881D220097281DDF
:10C61000089905F0F5FC761C0298B042F1D8287D07
:10C62000A688C043C0B205F00FFD1F49884217D04D
:10C6300040004019868001233246281D019905F0EB
:10C6400055FD01233246281D089905F04FFDA07DB8
:10C6500002280AD000231349A2881631281D1DE0A4
:10C660000420FFF7C1F90DB0F0BD0123F3E700236B
:10C67000A288001D12E000230A490546A28817314E
:10C68000001D05F033FD207A0009022801D901239D
:10C6900000E000230349A2881831281D05F026FD7B
:10C6A000E1E70000DC270020FFFF000070B50B4E23
:10C6B00005460024317D2A46301D05F0E1FC0028A6
:10C6C00009D0B17D2A46301D05F0DAFC002801D0E2
:10C6D000022400E00124204670BD0000DC27002079
:10C6E00010B50024204606F081FC002805D0641C0B
:10C6F000E4B2182CF6D3182010BD044801220168BA
:10C70000A24011430160204610BD0000DC2700203C
:10C7100010B5044606F06AFC002802D00148001952
:10C72000407E10BDDC27002070B505460C4608464B
:10C7300006F05CFC002806D003482A460119497E11
:10C74000001D05F09DFC70BDDC27002070B506467D
:10C7500015460C46084606F049FC002807D0044858
:10C760002B4601193246001D193105F0BFFC70BD82
:10C77000DC2700207CB5054608880C46093090422D
:10C7800001D90C207CBD684671DF0028FAD12188D0
:10C790000820685420881B21401C80B22080295426
:10C7A000208800A9401C80B2208040190622013157
:10C7B000FEF7C2FC20886946801D80B2208009787F
:10C7C000002900D0012129542088401C208000200D
:10C7D0007CBD00007FB504460121684681714A494D
:10C7E00081804A4A01A90120A0DF00287ED1228849
:10C7F00025463C35002A09D044482B46801C009031
:10C800004348616800F05AFE00287BD12289002A43
:10C810000AD03E482B460A3000903D48E168401F50
:10C8200000F04CFE00286DD1228A002A0AD0374839
:10C830002B461230009036486169001F00F03EFE22
:10C8400000285FD1228B002A0AD030482B461A30AC
:10C8500000902F48E169801E00F030FE002851D181
:10C86000228C002A0AD029482B46223000902848E2
:10C87000616AC01E00F022FE002843D1228D002AEA
:10C880000AD022482B462A3000902148E16A401EF7
:10C8900000F014FE002835D1216B00290ED002A82B
:10C8A00006F09AF919482B463230009018480822B1
:10C8B00002A9801F00F002FE002823D1606B00282F
:10C8C0000BD012492B463A31009102790168104889
:10C8D000401C00F0F3FD002814D1A16B002910D0FA
:10C8E00002A804F047FF0948423000E00AE0009047
:10C8F00007482B46072202A9273000F0DFFD002859
:10C9000000D1002004B070BD0A1800002A210020C8
:10C91000292A000010B50446FFF74CFE204604F01B
:10C9200025FD204600F01AFB204603F019FB2046A7
:10C93000FFF7F6FB2046FFF7D7FD2146034800F03E
:10C9400031F921460248FFF775FD10BD98230020FC
:10C950001025002030B5FF300C464130C18E104B01
:10C9600085B0994219D06B461C800021019102913B
:10C9700003910491C5899D8001259D7119810393BF
:10C980000492C08E01A9A6DF002804D16946098857
:10C99000A14200D00C2005B030BD0820FBE700000C
:10C9A000FFFF0000F0B50546FF35413589B016465A
:10C9B000E88E174C0E9AA04228D0D41CA0B26F4625
:10C9C000388008281FD839717E71BB7101AE002AEA
:10C9D00003D0F01C0F99FEF7AFFB002004900590E8
:10C9E00006900790EA8B69460A8201228A7488823F
:10C9F00006910796E88E04A9A6DF002804D16946AF
:10CA00000988A14200D00C2009B0F0BD0820FBE746
:10CA1000FFFF0000FEB50546887A0C460A2805D8B7
:10CA2000207C0A2802D8207E0A2801D90720FEBDD2
:10CA30002068286060686860A07AA874217C7820EB
:10CA40004155217EDE204155FF2000217730C9432A
:10CA50004153012168468171384981802A46083254
:10CA600001A90120A0DF0028E1D1002627462037B8
:10CA700009E0A06B7100415A28896A46A1DF0028AD
:10CA8000D5D1761CF6B2B87DB042F2D8207A002813
:10CA900002D1607A002806D021463C31284604F0B5
:10CAA00085FE0028C3D12146284602F07DFA0028E1
:10CAB000BDD12146284603F0F7FB0028B7D1214617
:10CAC000284601F0DDF90028B1D12146284605F0BD
:10CAD00035F90028ABD1207A002812D02846FF3043
:10CAE0004F3023460090433308221549284600F072
:10CAF000F5F800289BD12146284600F047F9002888
:10CB000095D1607A00280DD02846FF305F300C495F
:10CB100023460090403308221131284600F0DEF809
:10CB2000002884D12146284601F01EFF00289BD111
:10CB300021463E31284601F0D1FEFEBD121800000C
:10CB4000222A000030B51446827C85B08A4225D95D
:10CB50000A2251430A18FF304130C18E104D143261
:10CB6000A94219D069460C800025019502950395CC
:10CB7000049512888A8001228A710D8103910493A1
:10CB8000C08E01A9A6DF002804D169460988A14208
:10CB900000D00C2005B030BD0820FBE70720F9E7E6
:10CBA000FFFF000030B504460A88FF30413087B0EF
:10CBB000102A22D0112A39D0502A3BD0512A1AD11A
:10CBC0000D46881D8979012915D141886A4620467C
:10CBD00005F050F900280ED02168204600290AD01F
:10CBE000072269460A710A880A814A884A8105959E
:10CBF000026801A9904707B030BD8988C186618964
:10CC00000029F8D0012269460A72002300930A80A5
:10CC10004B8002A901916189C08E6A46A4DF002879
:10CC2000E9D061680029E6D08847E4E70021C943DC
:10CC3000C186E0E7204603F075FADCE770B50446EC
:10CC40000D460846FEF79CFA2080656070BD41786D
:10CC5000027808021043C007C00F70470A780270BC
:10CC6000497841700220704700B5174887B0406886
:10CC70000590164B4822164905A805F069FF0028C3
:10CC800001D0FEF7B1FE6A460121002005F034FF15
:10CC9000002801D0FEF7A8FE684605F023FF002813
:10CCA00001D0FEF7A1FE0B4805F012FF002801D0CD
:10CCB000FEF79AFE084805F07DFF002801D0FEF738
:10CCC00093FE07B000BD000048340200352B02007F
:10CCD000A022002015C90100C92B0200FFB50024C5
:10CCE000601C91B000070F46000F69461030029497
:10CCF000087218784872887AF9263040801C887249
:10CD00001D461C2103A8FEF730FA6946087B022164
:10CD1000084369460873A9780A07F721002A02D058
:10CD20000822104300E00840102210436A461073A6
:10CD300002A8049408900694079409940120907125
:10CD40009780009468781070A87850709078304080
:10CD5000801C0840EF2108404008400090701421DA
:10CD60000BA8FEF702FA01A80B9068466A460C90E1
:10CD70009486D4861398108711980F9400890BAA73
:10CD800003A91A9BA2DF15B0F0BD0000F0B58FB06B
:10CD90000D4606461C216846FEF7E7F9684601780D
:10CDA0000E2001436846017000240194039404940A
:10CDB0000594012708A806948770164968460184DF
:10CDC00046200794415D68460177433529794177CC
:10CDD000807FF9210840F721801C0840EF2108409E
:10CDE0004108490068468177142109A8FEF7BDF97A
:10CDF00008A8099007A80A9068468485C485078614
:10CE000033460D94FF333089573309AA6946A2DFB0
:10CE10000FB0F0BD322A00000149085C70470000E5
:10CE2000543402000549095C05480069C840C00740
:10CE3000C00F00D001200121484070475434020047
:10CE40000005005005490B5C05494A6801209840DF
:10CE5000034693438B601040C86070475034020013
:10CE60000005005010B50349085C012102F0DEFF07
:10CE700010BD00005034020010B50349085C0021C9
:10CE800002F0D4FF10BD0000503402000549095CD7
:10CE900005484068C840C007C00F00D001200121EC
:10CEA0004840704750340200000500507CB5002413
:10CEB000074E2546305D012200950023114601955D
:10CEC00002F06AFF641C042CF4D300F003F87CBD6C
:10CED0005034020010B500242046FFF7C3FF641C45
:10CEE000042CF9D310BD10B500242046FFF7C4FF71
:10CEF000641C042CF9D310BD0246002010B5C043B9
:10CF0000054B00215C5C944201D1084610BD491CD0
:10CF10000429F7D310BD00005434020070B50E4E42
:10CF200000250C46306000290DD0012000F0AEF83D
:10CF3000002801D0022005E0002000F0A7F800281A
:10CF400000D00B2020707068002802D1FEF72AFC68
:10CF50000546284670BD00007C20002010B51C4C02
:10CF60000188606810290DD011290AD1401E606027
:10CF700007D1FEF717FC002803D02168002900D054
:10CF8000884710BD00281ED100210122084600F06C
:10CF9000EDF8002801D0072811D107220221012035
:10CFA00000F0E4F8002801D0072808D1042202216B
:10CFB000002000F0DBF8002805D0072803D0216806
:10CFC000002900D088476068401C606010BD0000E8
:10CFD0007C20002010B5002000F006FA002801D0C7
:10CFE000062807D1012000F0FFF9002801D006280B
:10CFF00000D1002010BD0000F3B581B00D460198AE
:10D00000FFF77AFF0446042813D21D481D4F1E4E19
:10D01000002D27D0012D0DD0022D0AD1600020183F
:10D02000C0194578002D04D0F168002901D02846A8
:10D030008847FEBD610061187D5CCF1979780029B1
:10D040000BD071680A2251430F4A8068921CFEF788
:10D05000C1FD002801D10198B0700B48B97810309B
:10D060000155DFE78068FEF7F9FD074861006118A8
:10D070001030C919005D8D78A842D3D0FEBD0000E4
:10D0800058340200C82500206820002010B5FFF7A2
:10D09000C9FE10BD7CB5011F304C2F4AA0880B0083
:10D0A000FEF746FA0E0B0A0A130A0A080A0A0A1AB7
:10D0B0004B4D550A05F0BAFA7CBD132176DF08E026
:10D0C0000028F9D0FEF790FC7CBD9042FCD1FFF720
:10D0D0007FF80828F4D17CBD9042FCD0256901A8D6
:10D0E000012600900023324629461D4805F0F4F839
:10D0F0001C49884209D168468388012B0ED83246E4
:10D100002946174800F078F908E0002806D00828DA
:10D1100004D01549884201D0FEF766FC2069401C06
:10D1200020616078401CC0B260700E28D3D10B48DB
:10D1300020302061002060707CBD0F2008E090420C
:10D14000FAD000221146142002F09CFB7CBD112075
:10D1500005F038FE7CBD0000FFFF0000E81F002046
:10D1600098230020043000000134000070B5002333
:10D17000042811D2440004190D4D012A02D10129BD
:10D180000DD0002246008019094E801900290CD0CC
:10D19000012906D0022906D00723184670BD0E309B
:10D1A000C2B22A55F9E74270F7E78270F5E700004E
:10D1B000C825002010B5054A0146127A0020D20782
:10D1C00002D0084600F050F810BD00006820002092
:10D1D000F8B506461F4800248660C26041600F46CD
:10D1E000B00720D50025012211462846FFF7BEFFD3
:10D1F0006D1C0446042D02D2002CF4D013E0002C48
:10D2000011D17A0804211448FEF7A6FB04000AD1C4
:10D21000FEF790FB040006D10F48104A0021001FC2
:10D22000FEF770FC0446F00701D0FFF73FFE002C2C
:10D230000ED109480A4A00210C38FEF763FC0400AD
:10D2400006D10548074A01210838FEF75BFC044671
:10D250002046F8BD68200020643402003DD401005F
:10D260002DF101002BB90100F8B55D4C0546607841
:10D270000026002803D000206070FFF72BFE01205D
:10D28000584F2B00FEF754F918970D0D2E3D4A5FAD
:10D2900064686F686FA97777777777979A9DA0A969
:10D2A000A9950020FFF7F2FD00280AD00020FFF723
:10D2B000D9FD022D02D1E120C0000BE07D2040010C
:10D2C00008E00020FFF7D8FD022D01D1C82001E0C1
:10D2D000FF20913025706421FDF718FF61684143FC
:10D2E00000222BE00020FFF7D1FD002805D0002010
:10D2F000FFF7B8FD19204001ECE70020FFF7BCFD67
:10D30000E4E70020FFF7C2FD002803D00020FFF76C
:10D31000A9FDD3E70020FFF7AFFDD9E70020FFF715
:10D32000B5FD002803D00020FFF79CFD02E000209F
:10D33000FFF7A2FD25706068410000223868FEF703
:10D3400049FC064635E00020FFF77CFD257007E02C
:10D3500000203FE025702CE060700120FFF772FD97
:10D3600000226168EAE760700120FFF76BFD6068EA
:10D3700081004118E1E77868FEF770FC064611204D
:10D38000401B01D0002E03D00220FFF76BFD10E000
:10D3900001280BD9C82148436421FDF7B7FE616815
:10D3A000002241437868FEF715FC06460220FFF78D
:10D3B00063FD3046F8BDFFF78DFDCBE7FFF78AFD33
:10D3C000C6E7FFF787FD04E0FFF784FD0020FFF7C5
:10D3D00053FD0120FFF750FDBCE7FFF784FDB9E7DF
:10D3E000682000205834020010B5FFF715FD032116
:10D3F00002F0FAFC002010BDF0B50F4C0646A57FE8
:10D400000020062D15D0657F0C277D432746203F41
:10D41000ED19AE6069602B706A70A17F491CA1771D
:10D42000617F491CC9B26177052901D1002161776B
:10D43000F0BD0420F0BD00006825002010B5007884
:10D440000221FFF7D9FD10BD0022D2438300044919
:10D450000428CA5002D30818203002777047000011
:10D46000502C0020F0B50025ED43002A02D0002307
:10D47000042601E0042308260B4C04E09F00E75932
:10D480007F1C04D05B1CB342F8D32846F0BD26189D
:10D490005DB2203635709E00A151002AF5D1E11809
:10D4A00020310877F1E70000502C002002490918CC
:10D4B0002020085670470000502C0020FFB58FB088
:10D4C0001E4615460F0002D10020FEF78DFA002DF2
:10D4D00002D10020FEF788FA1C216846FDF745FEC0
:10D4E00068460178022001436846017000240194D7
:10D4F000039404940594012108A806948170684659
:10D500000F99018407943178017771784177807F92
:10D51000F9210840F721801C0840EF21084041080C
:10D52000490068468177142109A8FDF71EFE08A866
:10D53000099007A80A9068468585C4850586044831
:10D540000D9709AA69460088189BA2DF13B0F0BDA9
:10D550002A210020002807D00449814204D8044928
:10D56000814201D90120704700207047F821002036
:10D5700008220020044A0168914201D0083101E0EC
:10D580000149383901607047B02D002070B50D4D4C
:10D5900004460A462846AC4208D1FF2401342146FD
:10D5A000104603F093FEA0420AD070BDFF2CFCD8B9
:10D5B0002146104603F07CFE002801D0204670BDB5
:10D5C000284670BDFFFF000070B5084C050009D06B
:10D5D00010342168002907D008682060496828466F
:10D5E0008847F6E70834F4E770BD00003C2C0020C3
:10D5F000F8B52348416800293ED00E6821494C689F
:10D6000087688078E11B0D022D0AED1C002814D1DB
:10D6100001201D4A000450601B4A403A50601B49DB
:10D62000400008601A4908601A49012008602F204C
:10D6300002F046FA124901208870B54200D2354600
:10D64000E81900020F4B000A403318600D4A516878
:10D65000001B091B0902090A0002000AC91C8142B9
:10D6600009D9506818602F2002F02AFA01200749D2
:10D67000400480390860F8BD04F040FCF8BD0000AB
:10D6800098210020001501404013014080E200E095
:10D6900000E100E000100140F8B50646108814468D
:10D6A0008446801D0D46984201D90C20F8BD328871
:10D6B0000720062AFAD31927FF01184BBA4201D9CD
:10D6C0009A42F3D171880629F0D3B94201D999421F
:10D6D000ECD19A4203D0994201D08A42E6D8052182
:10D6E0006046295420881221401C80B22080295491
:10D6F0002088401C80B220804119308805F03FFC12
:10D700002188401880B220804119708805F037FCCC
:10D710002188401820800020F8BD0000FFFF000095
:10D7200010B5FEF761F910BDF8B5164801F0BAFC66
:10D73000144D00260C3D144C002807D061690029C7
:10D740001CD001206A461070684616E02878002830
:10D7500005D06169002911D0684606700DE068782F
:10D7600000280DD0A168094800220068FEF732FAAF
:10D77000002803D0A169002900D088472E70F8BD89
:10D780006168F0E7C0200020C02700208434020038
:10D79000F0B585B00C46002802D0012005B0F0BDE0
:10D7A000207900270126002806D01F4D012820D00F
:10D7B00002282CD00F20F1E702970397E068019030
:10D7C000694601A804F058F900280ED00298818813
:10D7D000E18000882081029804F0C8F96946098830
:10D7E0000A01124951188E7300E00A2002212171AA
:10D7F000D4E70F4B6A460021A01D04F0FBF8002877
:10D8000007D00B4908398F60CF600A28C6D1284657
:10D81000C4E7019804F0AAF9054989880A01034977
:10D8200051188E73F1E700001D1D0000C02D00206F
:10D83000CC210020F8B500260124154D23E06968AD
:10D84000F0004718387821462A698140114218D0E3
:10D850008A432A6102F060FA3A782146EB689140E7
:10D8600019400346934099420BD17978012901D0A0
:10D87000012100E000217B684140002B01D01046CF
:10D880009847761CF6B228788642D8D3F8BD0000B7
:10D890007421002000B593B002216846017011493F
:10D8A0004180114981800121C180402102A8FDF7FA
:10D8B0005CFC0EA102A8FFF7C1F968461090012098
:10D8C000014610A8203101710020014610A84171C5
:10D8D00002A8FEF77FFF002801D0FEF785F813B0FD
:10D8E00000BD000015190000EEEE00004E6F7264DE
:10D8F000696353656D69636F6E647563746F7200FD
:10D9000010B50E4900230A784C78A24212D0521C5E
:10D91000D2B20A70022A00D10B700A78074B92002B
:10D9200018339A580260886810180002000A88604C
:10D93000012010BD0360002010BD000098210020D0
:10D940003EB5094D38CD0093029501946B46588041
:10D9500099809A71054900220978FEF7F7FE68461A
:10D9600000F08EF83EBD0000F834020010210020C7
:10D9700010B5047800222300FDF7DAFD070605073D
:10D980000D1D262C06000A7010BD01220A700289A6
:10D990008A81828814E002220A7002898A81828840
:10D9A000CA81C2688A60007C062802D00020087400
:10D9B00010BD0120FBE703220A70C2888A81028918
:10D9C000CA81C068886010BD04230B70C08888813C
:10D9D000CA8110BD0520087010BD000070B5064D4D
:10D9E00006460024A0002958002901D03046884767
:10D9F000641C082CF6D370BDE02C00200EB5002965
:10DA000010D011290ED00022009202926A46508056
:10DA100001910D2907D0862907D0092010701046E2
:10DA200000F03CF80EBD0B20F8E70A20F6E70000F6
:10DA30000149096808470000D020002070B5054D55
:10DA400006460024A000295830468847641C022C52
:10DA5000F8D370BDA0340200F8B507460024064E86
:10DA6000064D04E0A000315838468847641CE87829
:10DA70008442F7DBF8BD0000F02B002000210020DD
:10DA800070B5054D06460024A00029583046884749
:10DA9000641C022CF8D370BDC0340200014909682F
:10DAA00008470000043502007FB50446406800289E
:10DAB0000BD00020039020780026414D0300FDF795
:10DAC00037FD066D0606304E7B6D0120F2E7A0891A
:10DAD00000F00CFA002804D1E08904F05FF8002877
:10DAE0005CD0A08900F0FDF9014668464180E089DC
:10DAF00004F04EF8014668460171207801286068FC
:10DB000007D0002809D00420694608706068039097
:10DB100020E00028F8D00320F6E70120F4E70846CB
:10DB20003AE0A08900F0E2F9002804D1E08904F08D
:10DB300035F8002832D0A08900F0D3F96946488032
:10DB4000E08904F025F8694608716068002804D06F
:10DB500005200870A0680290E1E70220F9E7A0899B
:10DB600000F0C4F9002819D0E089002816D1A08956
:10DB700000F0B7F969464880E08904F009F8FF2011
:10DB800069460871606800280FD0072008706E7021
:10DB9000AE7003F061F8684602F01CFF6878002858
:10DBA00002D06E7003F058F87FBD06216846017000
:10DBB000408803F0DFF8EAE7082069460870AEE71E
:10DBC000EC20002000B5104987B00978890702D4FD
:10DBD000022007B000BD0D49884201D10420F8E7BA
:10DBE000052269460A7001220A71C8800022114686
:10DBF000684602F01DFB002803D003F0DFFE002082
:10DC0000E7E70820E5E70000C4210020FFFF00004F
:10DC100000B50F4887B00078800702D4022007B013
:10DC200000BD06206946087000221146684602F0D1
:10DC3000FFFA002809D007480178002901D0012106
:10DC4000017303F0BBFE0020E9E70820E7E70000CE
:10DC5000C4210020E02D002000B58DB014216846BD
:10DC6000FDF783FA1E480078810703D56846FFF761
:10DC7000B5FE32E0C00730D1012000F05DF900F0C0
:10DC8000D5F902F097FB00280ED006280FD001210D
:10DC90006A4611750300FDF74BFC0C191119111997
:10DCA00018191819131613190B200DB000BD0220F6
:10DCB00000F042F9012000F025F9D7E7002000E04C
:10DCC0000320107602E00220FBE7117600221146C5
:10DCD00005A802F0ADFA03F071FE0020E5E70000B0
:10DCE000C421002038B5040014D0694603F0C4FEF6
:10DCF000002813D06846008801010948091888895E
:10DD0000002809D0A27A002A06D0401E888100206F
:10DD1000A07238BD052038BD062038BD0A2038BDA8
:10DD2000C02D00201FB501A9684603F063FE04B0B2
:10DD300010BD07B513460A466946002003F05AFE97
:10DD40000EBD07B513460A460021684603F052FE91
:10DD50000EBD002805D0002903D00068086000200F
:10DD6000704705207047000038B50D46040017D0F5
:10DD7000002D15D0694603F07FFE002812D06846BA
:10DD8000008861680201084812189089401C90813F
:10DD9000296060680C3068600120A072002038BDE6
:10DDA000052038BD0A2038BDC02D002010B5002840
:10DDB00004D00323002205F015FA10BD052010BD84
:10DDC00010B50223002205F00DFA10BD10B5002A8F
:10DDD00003D0022305F006FA10BD052010BD000097
:10DDE00010B5064A5178082906D08B00044C491C0E
:10DDF000E0505170002010BD0C2010BDC421002047
:10DE0000E02C002038B504460A480D46007880070B
:10DE100001D4022038BD002C0AD06946284605F0FE
:10DE2000EDFA0028F6D1694609882180658038BD61
:10DE3000052038BDC421002010B504460E480078E6
:10DE4000800701D4022010BD002C10D021880229A7
:10DE50000FD80A4A0801801842896088121A032ADA
:10DE600007D405F0C1FA00202080608010BD052095
:10DE700010BD042010BD0000C4210020C02D0020D2
:10DE80007FB50646087E0D46002827D0E8690028A1
:10DE900024D000241FE0E869E1004318002069460F
:10DEA0000390087B0A21084369460873D9790A2040
:10DEB00060438019C907C90FE0301A1D0191029013
:10DEC00000921A8803A930469B1C03F0ABFE002881
:10DED00005D1641CE4B2287EA042DCD8002004B046
:10DEE00070BD03218903401A80B270470321890362
:10DEF000401A0349884201D801207047002070472A
:10DF0000FE3F000002490A7882430A707047000011
:10DF1000C421002010B504460078182802D1FEF76D
:10DF2000DFFB207010BD10B504460078182802D120
:10DF3000FEF7D6FB207010BD02490A7802430A7032
:10DF400070470000C421002070B506460020054639
:10DF5000862906D0112902D0002903D070BD0125E1
:10DF600000E001200E4C002A02460FD061793046B5
:10DF7000FEF7ECFB2A4621793046FEF7E7FB00224C
:10DF800061783046FEF7E2FB002204E0617830461B
:10DF9000FEF7DCFB2A4621783046FEF7D7FB70BD42
:10DFA00014210020F8B506461C481F460078154687
:10DFB0000C46C0070AD03046FFF7CCFA002807D03D
:10DFC000002C07D0A00507D00620F8BD0120F8BD21
:10DFD0000220F8BD0320F8BD3068A04204D8A80292
:10DFE00071680019884201D90520F8BD002D10D0B4
:10DFF000684603F035FC00280DD000980221C0C00F
:10E000000170A101090C8180058103F0E5FC00206D
:10E01000F8BD0420F8BD0720F8BD0000DC21002079
:10E0200010B5084603F038FC10BD0000F0B52648D6
:10E03000264C001B0309264819464069421C03D19F
:10E040000120000740698002224A12789646D207D2
:10E050000CD00020F0BD1D4C15012C192568002D99
:10E0600003D06468002C00D0491E521C9A42F2D39F
:10E07000002420E0E2B2002594462A460FE0134E29
:10E080001701BE193768002F02D07768002F05D11D
:10E09000767BAE4202D93546D6B2B446521C9A427D
:10E0A000EDD362461501094AAA185060157BAD02EE
:10E0B000401B641C10608C42DCD306487146012270
:10E0C00011430170C5E7000008220020F82100205C
:10E0D00000100010DC210020002804D00349496E04
:10E0E000016000207047032070470000F02D0020E1
:10E0F000F8B507461E481E46007815460C46C00770
:10E100000ED03846FFF726FA00280BD0002D0BD092
:10E11000002C09D028462043800707D00620F8BDF0
:10E120000120F8BD0220F8BD0320F8BD3868A042E8
:10E1300004D8B10078680919884201D20520F8BDD9
:10E14000002E11D0684603F08BFB00280ED00098FB
:10E1500006990760416001210172C56004618682F1
:10E1600003F03AFC0020F8BD0420F8BD0720F8BDFC
:10E17000DC21002070B5174B0446186E1821484367
:10E180001549C0180A78950715D5022C02D0032C22
:10E190001CD102E001F064FF18E04A78521CD2B2B0
:10E1A0004A70032A12D900224A70082104F070F83C
:10E1B00003F040FB0AE0500708D5FB2002400A703C
:10E1C000586E002802D0022002430A7003F0C0FB00
:10E1D00070BD0000F02D0020DC2100200EB51120C4
:10E1E000694608720F2210A102A87CDF002801D026
:10E1F000FDF7FAFB104878DF002801D0FDF7F4FBAB
:10E200000020009001900621684601800C21418089
:10E2100014218180FF212D31C1807ADF002801D0B7
:10E22000FDF7E2FB0EBD000068715F4E6F7264691E
:10E23000635F4D6F75736500C203000070B5002801
:10E2400001D0012070BD164C0025207B002801D094
:10E25000257301E000F09CF820780300FDF768F9D1
:10E26000081E05080B0E1E111A1E00F01BF870BDCB
:10E2700000F07EF870BD00F061F870BD00F038F875
:10E2800070BD60880649000120394018406802F0DE
:10E2900071F870BD656002F07BF870BD0F2070BD35
:10E2A000E02D002070B5104900208A1C0D46034661
:10E2B000203D0C18A67A002E08D0A3720401641920
:10E2C000A689002E02D1A47B012C08D0401C80B26C
:10E2D0000228EED30B704B8004484B6070BD108059
:10E2E00000F046F870BD0000E02D00201D1D00006C
:10E2F00010B50F4C6088010120462038081881892C
:10E3000000290BD0052020700A4802218180016875
:10E31000002301220848FFF745FE10BD4168002395
:10E3200001220548FFF73EFE0421217010BD0000C8
:10E33000E02D0020D4210020F821002038B50A4922
:10E3400008480B6889884268890059185388032453
:10E3500004700020DB1C00909BB20448FFF7C8FE4D
:10E3600038BD0000E02D0020D4210020F82100203D
:10E3700010B506494888091D03F0CEFB002802D0DD
:10E38000FFF7DCFF10BDFFF7B3FF10BDE02D00204D
:10E39000F0B51D481D4907780246012502268C88E4
:10E3A000203A3B00FDF7C4F8080517171A212C2C5A
:10E3B00016170189491C01810021418001730B015D
:10E3C000D35C002B08D000234418491C89B2A372E7
:10E3D0000229F4D30570F0BD0123F5E742685288A5
:10E3E000D21CA2188A800670F0BD45880B682D01EA
:10E3F000AA1855680D60536014818E80062100E0D4
:10E4000007210170F0BD0000E02D0020D421002084
:10E41000F0B504460088384D8DB050281DD05228E4
:10E4200002D0542826D103E0A08801F0C5F821E0ED
:10E43000062069460870A08800F0ECFC6946488018
:10E44000A2888A8000F054F9A0880022E978FEF7BB
:10E450007DF96846FFF7ECFA0CE0207B012809D132
:10E46000A07A012806D120892449884202D1A088B7
:10E4700001F0DEF8A878FEF74BF9002819D008A8BB
:10E48000FEF77AF8142208A903A8FCF755FE002429
:10E4900003AE0BE060008719B888A978FEF744F94D
:10E4A000002802D0B88801F087F8641C0398A042C5
:10E4B000F0D86878FEF72CF9002819D008A8FEF7E4
:10E4C0005BF8142208A903A8FCF736FE002403AE6B
:10E4D0000BE060008719B8886978FEF725F90028F5
:10E4E00002D0B88801F0A4F8641C0398A042F0D8C8
:10E4F00003F060FF0DB0F0BDC8200020022900002D
:10E500003EB504464088694648802078002814D0EB
:10E5100001281DD002280FD1207900280CD0608856
:10E5200000F0AAFB0E49884206D00E490122C978A4
:10E53000FEF70CF903F03EFF3EBD002008700846D0
:10E54000FFF776FA608800F097FB01F035F83EBDE2
:10E55000012168460170A1888180FFF769FA3EBDFC
:10E56000FFFF0000C820002010B5044600780128F5
:10E570000DD1608801F020F8608800F07DF9002856
:10E5800005D0034960880122C978FEF7DFF810BD85
:10E59000C820002010B5104C00202070FEF7A0F815
:10E5A0006070FEF79DF8A070FEF79AF8E070FEF735
:10E5B00097F82071617818290BD0A178182908D014
:10E5C000E178182905D0182803D0012020700020F8
:10E5D00010BD032010BD0000C8200020F0B585B09C
:10E5E00000F09EF86846FDF7C7FF00246D460C4F0B
:10E5F0000EE060004619B08800F00CFCB84205D16E
:10E600000849B0880122C978FEF7A0F8641CA4B2BA
:10E610000098A042EDD803F0CDFE05B0F0BD00009B
:10E62000FFFF0000C820002010B50178072902D1A3
:10E63000408800F0FDFF10BD10B504460A4841783F
:10E640002046FEF771F800280CD0084800210C2263
:10E650004A4312185288A24201D1C8B210BD491CC7
:10E660000829F4D3FF2010BDE0200020102800204E
:10E6700070B5094D094E00240C20604340194088B4
:10E680007178FEF751F8002804D0641C082CF3D3ED
:10E69000FF2070BDE0B270BD10280020E0200020F7
:10E6A000F8B50746104E0125BD403068FDF7D6FA93
:10E6B00000280DD10D4C2069284207D1384601F0C1
:10E6C0002BFB0028E06804D0284303E0A843206126
:10E6D000F8BDA843E0602069002228432061A168BA
:10E6E0003068FDF777FAF8BD0C3502007421002080
:10E6F0001CB5054A9168D2680192009100226946D2
:10E7000002F030F81CBD00008C34020003480021E8
:10E71000C94381800121017000207047D42000206E
:10E7200010B5044801F04AFF0349888003F06EFEEB
:10E7300010BD0000FFFF0000D4200020F1B582B022
:10E74000029800F067FB002416490325012726469E
:10E75000884209D06A46082101F0DAFF002803D177
:10E76000019886880568841D2B463246214602980A
:10E77000A9DF042804D0082804D00B2807D002E021
:10E78000112000E00020002F00D10B20FEBD00274B
:10E79000A80701D50125E7E73443F6D00024264633
:10E7A0000325E1E7FFFF0000F1B582B0029800F019
:10E7B00031FB07461B48874201D11B48FEBD01259E
:10E7C0002A466D1C0026ADB26B460821384601F082
:10E7D000CFFF040002D0072C21D021E001990323B0
:10E7E0000B600A1D891D0298AADF040004D00C2CBE
:10E7F00008D0052C08D008E00821384602F052F86D
:10E8000004460DE0012600E000240821384602F00D
:10E8100033F8002800D00324002ED1D100E00C24CE
:10E820002046FEBDFFFF0000023000001FB5044679
:10E830000078012813D12079012810D1608802AA1C
:10E84000012101F065FF002809D10221684601700D
:10E8500061884180012101710549096888470448A0
:10E86000044908388088884201D003F0CFFD1FBDDD
:10E87000DC200020FFFF00001CB500F0CBFA6A4648
:10E88000012101F045FF002801D000201CBD0198A6
:10E8900000781CBDF8B5074E074C084D07463246B8
:10E8A00061883846A7DFA84203D16088401C608099
:10E8B000F5E7F8BDFFFF0000D42000200330000082
:10E8C0008188054A914204D00088002801D00120A7
:10E8D0007047002070470000FFFF0000F0B58FB0C8
:10E8E0000F4605461C216846FCF73FFC6846017848
:10E8F00004200143684601700024019403940494A9
:10E900000594012608A80694867016496846018475
:10E9100007943978017779784177807FF921084029
:10E92000F721801C0840EF21084041084900684653
:10E93000817708A8047114210AA8FCF716FC08A81E
:10E940000A9007A80B90684606864486868609A822
:10E950002B460E90FF3328896F330AAA6946A2DF3F
:10E960000FB0F0BD4C2A000070B590B00C460646C2
:10E970001C216846FCF7F9FB6A461078022108431F
:10E98000107000250195039504950595012008AAAE
:10E99000069590711B486A46908434200795005D67
:10E9A00010773520005D5077907FF9210840F721DE
:10E9B000801C0840EF210840400840009077208EDE
:10E9C00008AA1070000A50703034A0789070E07877
:10E9D000D070042414210AA8FCF7C7FB09A80A90E8
:10E9E00007A80B906A4614865586948608A8334675
:10E9F0000E90FF33308967330AAA6946A2DF10B050
:10EA000070BD00004A2A000070B598B0182112A805
:10EA1000FCF7ABFB072110A80181002484720126BA
:10EA2000C672601C0107090F10A820310173601C19
:10EA30000107090F10A820314173601C0107090F5D
:10EA400010A8203181730621018202218174C674CD
:10EA50000120014610A8203101750120014610A8AF
:10EA6000203141750120014610A8203181750C210B
:10EA7000018303258576C6760120014610A8203142
:10EA800001770120014610A820314177012001467D
:10EA900010A82031817748216846FCF766FB2D4895
:10EAA00000902D480190684604724672857212A843
:10EAB000039068460474059404764F21079481847A
:10EAC0002648FF21089002316846018608A8847410
:10EAD000C57484750120014608A820310E94017385
:10EAE0000020014608A841730120014608A82031F2
:10EAF00001750020014608A841750120014610A8B3
:10EB0000203101700120014610A820314170012000
:10EB1000014610A8203181700120014608A820314B
:10EB200001770120014608A82031417700200146E5
:10EB300008A881770120014608A82031C1776946DD
:10EB40000748FDF767FF002801D0FCF74DFF18B01C
:10EB500070BD000041000200772502001620002051
:10EB6000982300203EB5044600780D46022815D1B2
:10EB70000322611C6846FCF7DFFA0322211D02A86C
:10EB8000FCF7DAFA01AA02A92846FCF7A7FE03223D
:10EB900001A96846FCF7FBFA002801D000203EBD21
:10EBA00001203EBD10B50C46FFF746FDFF280AD0F8
:10EBB0000C2148430549072241182046091DFCF74E
:10EBC000BBFA002010BD052010BD00001028002059
:10EBD00070B5018890B0102949D1011D2C2202A8DE
:10EBE000FCF7AAFA6846234E007B344602AD0328A0
:10EBF0002AD001F05FFF6846007B00280ED0012874
:10EC00000CD0022820D118E00E99281D1131FCF7F4
:10EC1000B9FC002802D06846048815E00DAA6946B0
:10EC2000072001F01DFF0028EED10DE00E99281DF0
:10EC3000491CFFF797FF0028EDD10DAA6946072070
:10EC400001F00EFF0028F1D168460089291D00F06F
:10EC5000DFFEB4420BD068460089214600F088F8F8
:10EC600068460189418001210170FEF7E7FE10B07E
:10EC700070BD0000FFFF0000084A00210C234B4339
:10EC8000D35A834204D10C204143881840887047EE
:10EC9000491C0829F2D302487047000010280020C0
:10ECA000FFFF00000620704710B50E4C1820607062
:10ECB0000D4A0E4900200C2343435B18401C5A8028
:10ECC0000828F8D3FDF70CFD6070182804D005481B
:10ECD000C01C71DF002801D0032010BD012020706E
:10ECE000002010BDE0200020FFFF000010280020C1
:10ECF00070B504460D46401C00F006FA002810D0FE
:10ED00001022691C601CFCF742FA00280AD0002679
:10ED10002946204611311130FCF734FC01463046BB
:10ED2000084370BD0126F3E70188002903D142188A
:10ED30009278002A01D001207047491C0829F6D397
:10ED40000020704710B50C460346FFF7EDFF002882
:10ED50000BD018882188884206D10822A11C981C53
:10ED6000FCF715FA002801D0002010BD012010BDCD
:10ED700010B502F05BF810BD10B50446007888B0FD
:10ED8000002826D12079072823D1608801AA0721ED
:10ED900001F0BEFC00281CD101F08CFE1BE069468E
:10EDA00060880988884216D004990298FFF7A0FF6E
:10EDB000002810D06088FFF75FFF01466846C182D7
:10EDC00000210175618801830188418305A8FEF750
:10EDD00035FE08B010BD03AA6946072001F040FEC9
:10EDE0000028DCD1F5E7000070B50446FFF744FFCA
:10EDF0000546204601F091FC054904468D4204D0A9
:10EE0000002C02D1284602F011F8204670BD000007
:10EE1000FFFF000010B5FFF70FFCFF2804D00C2106
:10EE200048430249085A10BD014810BD102800206F
:10EE3000FFFF00003EB5044601F03CFE10E00199E2
:10EE400020464631FFF77EFF002806D10199204673
:10EE50002A31FFF777FF002802D0684600893EBDBF
:10EE60006A4602A9072001F0FBFD0028E7D101480E
:10EE70003EBD0000FFFF00007CB514460A000A49B1
:10EE8000897802D015688D4204D3002B04D01D6808
:10EE90008D4201D204207CBD0193134602460094AA
:10EEA000024802F013F87CBDE0200020702800200A
:10EEB00070B50C46054610210948FCF756F909487B
:10EEC000002D09D0002C07D0847062002946044828
:10EED000FCF732F9002070BD00218170FAE70000D4
:10EEE00070280020E0200020F8B50F46002804D04C
:10EEF0000120FFF707F80120F8BD397900290AD071
:10EF00000026254D01290BD0244C022920681FD052
:10EF100003293BD125E001F03BFA0121397133E0AF
:10EF200000200101695C02290BD0401C80B202283C
:10EF3000F7D30220FFF700F80120FEF7E3FF18489F
:10EF4000F8BD04016019406801F014FA2E551BE069
:10EF50000146002301221348FFF724F80221A18073
:10EF600011E001F007FA0C492368203149880A01B1
:10EF7000094951184D6825604B60A3880B81022117
:10EF8000A18005498E543E710028D9D00120FEF79A
:10EF9000B9FF0E20F8BD0000C02D0020D4210020B4
:10EFA0001D1D0000F82100207FB50646887A0D4619
:10EFB000002833D0E868002830D000242BE0E8682F
:10EFC000E1004318002069460390087B02210843B2
:10EFD000694608739979090702D00821084301E0BE
:10EFE000F721084010210843694608730A2060434E
:10EFF0008119D8791431C007C00F1A1D02910190F0
:10F0000000921A8803A930469B1C02F00BFE0028D0
:10F0100005D1641CE4B2A87AA042D0D8002004B084
:10F0200070BD0000F8B51E4C2078002836D0E0688E
:10F03000002600280CD00025607800282ED16846D4
:10F0400052DF052806D0002806D0FCF7CDFC0BE0E7
:10F050000125F1E7012607E0009800F087FD21690E
:10F06000002901D000988847002D13D1607800282E
:10F0700014D1608869460880A06861DF052804D043
:10F08000002804D0FCF7B0FC04E0012502E0E168B0
:10F09000A0688847002ECFD0002DE5D0F8BD000035
:10F0A000E0210020418805480288914204D340882D
:10F0B000814201D80120704700207047B82000200D
:10F0C0001048018CC9B2012917D1818C090714D1CC
:10F0D000018D09060A0F03D1828D1206120F0ED080
:10F0E000090F012903D1828D1206120F07D00329BF
:10F0F00003D1808D0006000F01D000207047012051
:10F1000070470000C00F00F00021425C002A01D0CF
:10F1100001207047491C1029F7D300207047800751
:10F1200001D00020704701207047000010B504484E
:10F13000017AC90702D00078FEF796F810BD0000EA
:10F1400068200020FFB5244D81B0287A1F460E4666
:10F15000084304D0039A002E04D0002104E00520C7
:10F1600005B0F0BD1C491031019803F0B3FB044613
:10F17000014600220198FEF7E7FE002F03D021464A
:10F180000198FEF73BFC112C0FD006DC002C0AD0B6
:10F19000082C08D00D2C05D105E0862C11D00F4885
:10F1A000C44200D003242046DAE73246E9780198C9
:10F1B000FDF7CCFAA978039A0198FDF7C7FA002465
:10F1C000F1E73246E9780198FDF7C0FAA978039A89
:10F1D0000198FDF7BBFAE6E714210020FECFFFFF00
:10F1E000FEB517460C00064604D02078C00704D0B0
:10F1F000012003E000217EDFFEBD02206946087188
:10F200003046FFF707FE17490546884208D001A897
:10F2100000902B463A462146304600F025F806E09D
:10F2200020782146C007304603D000F081F804461C
:10F230000BE07EDF044600200090002C08D0002266
:10F2400001232946304602F0EFFF002C02D006E0F1
:10F250000122F5E768460179304603F00BF82046B5
:10F26000FEBD0000FFFF0000FFB585B000252E4663
:10F2700001AA07210E9F089801F04AFA040008D15C
:10F28000029D4420405D1835C607F60F01D0029D4F
:10F2900034350798204312D1002D10D0002E05D10F
:10F2A00028461230FFF740FD002808D029462A469C
:10F2B0001231059885DF04460020387023E0002CC9
:10F2C00001D0052C1FD106980078C0070DD003ABE4
:10F2D00001220721089801F04BFA04000AD1072106
:10F2E000089801F043FB040004D1069905987EDFDD
:10F2F000040008D00721089801F0BEFA002802D0C7
:10F30000052800D00324002000903878002801D080
:10F31000012300E00023002C07D000220899059863
:10F3200002F082FF204609B0F0BD0122F6E700009E
:10F33000FEB50F46064601F0DFF90546184885423E
:10F3400020D001AB01220721284601F011FA040068
:10F350000AD10721284601F009FB040004D13946EF
:10F3600030467EDF040008D00721284601F084FAE9
:10F37000002802D0052800D0032401200090002C92
:10F380000BD002E003240020009000220123294634
:10F39000304602F049FF2046FEBD0122F6E700009C
:10F3A000FFFF0000F7B5114D0F461646297800986B
:10F3B000FDF7BAF9002812D00098FFF72BFD04469C
:10F3C0000B4884420BD069780098FDF7ADF900280E
:10F3D00006D033463A462146009801F063F8FEBD58
:10F3E000324639460098FEF7ABFAFEBD10210020E8
:10F3F000FFFF0000F1B586B00698FDF789F90028F7
:10F4000021D06846FDF7B8F800246E4618E0600089
:10F410008519A8880699FDF787F900280FD00B4FAA
:10F42000A888B978FDF780F90590A888F978FDF7E4
:10F430007BF90146A8880123059AFFF783FE641C27
:10F440000098A042E3D807B0F0BD000014210020CE
:10F45000F0B5284C2146103948688B6822788646DA
:10F460009C46CF78667836E0182353436168521C77
:10F47000C918A378D2B2934200D100220B78022B94
:10F4800002D0032B27D123E003464D68194603E041
:10F49000A94204D00B46C96900291CD0F8E700290D
:10F4A00019D08B4208D1C069002805D1124F01251F
:10F4B000BD600025AC4601270D68C969D9610029E6
:10F4C00009D00B685B190B6005E00174C06900E0AE
:10F4D00000210028F9D19642C6D10649624610396A
:10F4E0008A604860CF70704501D00120F0BD0020D7
:10F4F000F0BD0000A821002000100140F8B52C4EFE
:10F50000044670680025009041E0002C02D020469F
:10F51000E46920E0264818231030017842684B4304
:10F52000491CC9B2D21801708378994200D1057084
:10F530001178506801292CD1017C002929D19168CA
:10F540004160D16881601169C16051698161F17860
:10F55000002900D045604368B268164F991A090225
:10F56000090AB94202D28268891806E0D11A090252
:10F570008268090A8A4202D9511A016000E00560D6
:10F580004560012185600174C56103F097FB002C83
:10F59000BBD107481030017840788142BAD17168F8
:10F5A0000098814201D00120F8BD0020F8BD000084
:10F5B00098210020FFFF7F00FEB504461948002671
:10F5C00084422DD02046FFF7B9F8050012D00B2D4C
:10F5D00014D0112D10D01448C5421BD00921684603
:10F5E00001702046FFF716FC014668464180848082
:10F5F00002950DE0022102E001260BE0032168469E
:10F6000001702046FFF706FC014668464180848071
:10F61000FEF70EFA0548324681782046FDF796F847
:10F62000FEBD0000FFFF0000FECFFFFFC82000204E
:10F63000FEB504460026FFF7B7F80546112818D096
:10F6400004DC002D13D00C2D05D114E0862D25D01F
:10F650001348C5421BD00921684601702046FFF7B8
:10F66000D9FB014668464180848002950DE0012166
:10F6700002E001260BE007216846017084802046E5
:10F68000FFF7C8FB014668464180FEF7D1F90548FF
:10F69000324641782046FDF759F8FEBD0821EBE7D8
:10F6A000FECFFFFFC8200020F8B5054600780C46C5
:10F6B000002620420FD10020694608706846FCF7FA
:10F6C000E1FA2878204202D12043287001266846BA
:10F6D0000078FCF7F5FA3046F8BD000088B0414BE1
:10F6E000414A05210020FCF73BFA002801D0FCF735
:10F6F0007BF93E4A01213E48FCF704FA002801D07C
:10F70000FCF772F93B4A3C490320FDF761FD0028F4
:10F7100001D0FCF769F901A90020FDF7FFFB0028E3
:10F7200001D0FCF761F968460079022858D0002022
:10F7300069460870FDF798FA2B4A0A21C032082062
:10F74000FCF7CAF9002801D0FCF74EF969460878A1
:10F7500001F080FBFEF742FDFCF742F8FEF79AF855
:10F76000FCF714FBFFF750F9244851210160642194
:10F7700041600121816001730146214802F000FED1
:10F780001C216846FBF7F1FC0521C90301910F21FB
:10F790000904002002910090032269460A73C8817F
:10F7A00008740590174806906846FCF773FE002819
:10F7B00001D0FCF719F90E48012100220904006864
:10F7C000FCF708FA002801D0FCF70EF9FCF742F824
:10F7D000FCF764F948DF0028FAD0FCF705F9F7E7F1
:10F7E0000120A5E749BB01002822002015BF010028
:10F7F0004834020095D00100CD0C000028250020DF
:10F800000020002021D7010008B5002300936B469B
:10F8100018809970DA70009808BD70B51446828817
:10F820000E4605462088111D4118921C994201D8A8
:10F83000FE2A01D90C2070BD521C32542088FF21B1
:10F84000401C80B2208031542088401C80B220802F
:10F850008119288803F093FB2188401880B220800A
:10F86000AA88002A09D0A968002908D08019FBF7C6
:10F8700063FC2088A98840182080002070BD0720E4
:10F8800070BD00001CB51E4B1C780023002C0ED050
:10F89000FF2800DBFF20FF2900DBFF2100930193FD
:10F8A0004BB242B200211748FDF77CF81AE00093F2
:10F8B0000193154B984200DB1846994200DB19462C
:10F8C0006B46587000050C01000F044308099C703A
:10F8D000D87010051A71000F5871062201210948CD
:10F8E000FDF730F9002809D0082807D007498842D9
:10F8F00004D00749884201D0FCF776F81CBD00000F
:10F90000E81F002098230020FF0F000004300000B3
:10F91000013400001CB5124B994200D319469A429B
:10F9200000D31A4601246B461C705C709870D97025
:10F93000080A18715A71100A9871072200210948A3
:10F94000FDF700F9002809D0082807D006498842A9
:10F9500004D00649884201D0FCF746F81CBD0000DF
:10F96000102700009823002004300000013400001C
:10F97000F8B50F46017814460546012902D168788A
:10F98000002806D02088821C9A422DD8012902D056
:10F9900006E00720F8BD69784118891C994223D8F0
:10F9A000181A801E86B2684606802188B81C08187E
:10F9B00069467DDF0028EDD12878022805D1694607
:10F9C0000988B14201D809210AE00821012805D19E
:10F9D0006878B04202D86A46108001E06846068026
:10F9E00068460088FE2801D90C20F8BD2288401CFA
:10F9F000B8542088401C80B2208039542088694641
:10FA0000401C20800988401820800020F8BD00009C
:10FA1000F8B5FF240F46054600291FD0104EB54209
:10FA20001CD01048012241782846FCF78FFE28465A
:10FA3000FEF702FE0446FF2804D1FEF719FE044635
:10FA4000FF280BD00C214843074902464018458047
:10FA50008E5207223946001DFBF76EFB2046F8BD8B
:10FA6000FFFF0000E02000201028002070B50B4DA3
:10FA70000E46A84201D1002000E0401C84B209E0FB
:10FA80002146304601F03CFC002801D0204670BDE4
:10FA9000641CA4B2FF2CF3D9284670BDFFFF000000
:10FAA000C20843075B0F0120895C984008407047FB
:10FAB0000121890740180068002800D00120704704
:10FAC00000280FD00849094A096800BF00BF00BFDD
:10FAD00000BF00BF00BF00BF00BF914200D000BF09
:10FAE000401EF2D170470000F42100200024F400F1
:10FAF00070B50E4C00252078002801D0852513E034
:10FB00000021A16061602161E1600948006801266F
:10FB1000304002D1032100F02FF803F045F800280F
:10FB200001D1044886612670284670BD3C2C002017
:10FB300000E100E00005004038B50020694608708B
:10FB40006846FCF79FF8084C2078002801D1FFF7A1
:10FB5000CFFFE068401CE0600120A070684600789C
:10FB6000FCF7AEF838BD00003C2C002010B5002892
:10FB700001D1FDF729FD10BD8207D30EFF229A4067
:10FB80008907090E10B5994000280BDA03071B0FEF
:10FB9000083B9C080C4BA400E318DC6994430C431D
:10FBA000DC6107E08408094BA400E4182368934350
:10FBB0000B432360C106C90E012088400449086038
:10FBC0000449086010BD000000ED00E000E400E022
:10FBD00080E200E000E100E0F3B581B0054601F00D
:10FBE000D1F91F4F0028284617D0FDF75FFCC01938
:10FBF0002030007F8009032802D001280BD005E0C7
:10FC000018480069E840C007C00F04D00321284607
:10FC100000F0FBF8FEBD0221F9E701F0BFF9002872
:10FC2000F8D02846FDF742FC04468000C11D0E4A6C
:10FC3000F9318018026989B201263243026108460F
:10FC400000F014F902980028E4D02846FDF72EFCB5
:10FC5000800038580028DDD00448A6404660FEBD2C
:10FC6000502C00200005005000650040006300405B
:10FC7000FEB5044625480E460019202141560027AE
:10FC8000C8171346401C01D008273CE0F2781946FB
:10FC90002046FDF7E7FB0546401C33D0B07800282E
:10FCA0000BD005200007A100091807200002091841
:10FCB000086802229043086007E00021737820461C
:10FCC00000910A46019100F07BF8F078002810D0EE
:10FCD0000F48AA001018317802690E4B1A400261D1
:10FCE000E206D20C8907890B0A4301690A430261C3
:10FCF00009E00648327840192030017F9201114313
:10FD0000017700E004273846FEBD0000502C00209B
:10FD100000650040FFE0FCFF03490969C140C807D6
:10FD2000C00F00D0012070470005005070B5144D81
:10FD30002879002801D0082070BD114900204039E1
:10FD4000421E0B182033401CC0B21A702028F8D372
:10FD500000242046FDF778FB641CE4B2082CF8D39D
:10FD600003210620FFF708FFFF207D3000F07EF81A
:10FD700001200449C007486001202871002070BD9F
:10FD8000902C00200063004002480079002800D039
:10FD900001207047902C002070B552000A43990052
:10FDA000049D0A432902059E0A43310405240A439F
:10FDB000240780000721001909024018026070BD65
:10FDC00070B552000A439900049D0A432902059E1A
:10FDD0000A43310405240A4324078000072100193F
:10FDE00009024018026070BD0522120780008218C7
:10FDF000072000021018026803231B049A430260C4
:10FE0000026809040A430260704705221207800055
:10FE10008218072000021018026803231B049A436B
:10FE20000260026809040A430260704701228240AE
:10FE30000348002901D082607047C260704700000B
:10FE40000005005038B5084B05241B6800932402B8
:10FE50006B46411805E085005D592D192D69401C40
:10FE600020C28142F7D838BD083502000249401847
:10FE70000021016070470000006000400349401805
:10FE80000068012800D0002070470000006000409A
:10FE90004058002800D00120704703221202801829
:10FEA0004068084000D001207047000000B5B1B0A4
:10FEB0000300FBF73DFB0920060A0C1214162A3E2C
:10FEC0000A00052004E0FBF78FFD31B000BD0220E1
:10FED000FDF770F90028F6D1F7E70420F8E70320D2
:10FEE000F6E70320FDF766F9002801D0FBF77CFD5B
:10FEF000FCF76EF9EEE70020FDF75CF9002801D071
:10FF0000FBF772FD02F092FBDFE708200090019002
:10FF100001AB02AA694622A801F006FC002801D024
:10FF2000FBF762FD02AA22A8019B0099FCF7F2F9F7
:10FF3000D0E70948094900898842C6D0694601F0DE
:10FF4000C5FA0528C1D0002801D0FBF74DFD04A853
:10FF50000130FCF729F9BDE7E81F0020FFFF000092
:10FF600030B50546008889B03A2840D029DC324CAB
:10FF7000022840D0102830D0112820D10020FDF7D1
:10FF800019F9002801D0FBF72FFD0020C043A08005
:10FF9000A078002813D02948616901F0DFFB002810
:10FFA00001D0FBF721FD2548616901F083F806289F
:10FFB00003D0002801D0FBF717FD0020A07009B086
:10FFC00030BD51281BD05528F9D1A888132176DFE0
:10FFD0000028F4D0FBF708FDF1E70720FDF7EAF869
:10FFE000002801D0FBF700FDA888A080E7E7A888DB
:10FFF000132176DFECE70021A08867DFE8E7102215
:020000040002F8
:10000000A91D04A8FBF798F86846017C0029D6D002
:10001000007E042803D0062801D00528CFD102296C
:1000200008D0012069460870FF2083308880A888A6
:10003000A8DFCDE70220F5E7E81F002038250020E3
:100040000978022906D00548052904D0062901D1DE
:100050000021017070470121FBE70000E81F00202C
:1000600010B5134A00215170017A012911D00229DB
:100070000ED18189491C8181C189491C89B2C18104
:10008000028A914204D1002102F002F901F0D2FB70
:1000900010BD838AC28A991AFF2901DC89B201E066
:1000A000FF210131511889B2C1829942EBD010BDB4
:1000B000DC21002030B50446508985B00D46022869
:1000C00016D12068002813D010460C30FCF7BFFD75
:1000D000002801D0022000E003206946087029882A
:1000E000684681806988C1802268694620469047B9
:1000F00005B030BD10B5036886B0002B0FD00424C6
:100100006B461C7014889C805288DA80CA891A81D8
:100110000A8A5A811231039102686946904706B0F3
:1001200010BD0000F0B50446FF300F468D1D413074
:10013000C988C68D0022012389B0B14215D16989D1
:10014000204601290CD10168002909D0297B00290A
:1001500008D0012904D169460B73026803A99047AE
:1001600009B0F0BD69460A73F7E76289914211D17F
:10017000698920460129F3D101680029F0D0297B43
:10018000002905D00129EBD106216A461173E4E765
:100190000521FAE7428A254B914206D100221146F9
:1001A0001846FFF731FB029029E0C289914206D13F
:1001B000002211461846FFF727FB02902FE01B4B49
:1001C000428C11339142E9D0C08B8142F0D002A819
:1001D00001900022A07C1AE00A2353431B191B8BB9
:1001E0008B4212D1114801212B30FFF70DFB0090FB
:1001F00069460198098801806946498841802A46F4
:1002000002A92046FFF756FFAAE7521CD2B290423D
:10021000E2D802AA204601F02DFE0028A0D002AAB2
:1002200039462046FFF766FF9AE70000222A0000C1
:10023000F7B51C4D0E4601466A6F002082B0032AB6
:100240002DD82C4678340827636CBF1BBB4226D8B8
:10025000286F10188007800F1C2250434019FAF7AE
:100260006BFF686F401C6867002E17D0216C606CB4
:1002700040184007800E00190023009009E0049800
:10028000D9000A1806CA009806C06846FDF772F938
:100290005B1CB342F3D3606C80196064012005B02D
:1002A000F0BD0000002D00207FB50646087C0D46FD
:1002B000002827D06869002824D000241FE068693E
:1002C000E1004318002069460390087B0E21084393
:1002D00069460873D9790A2060438019C907C90F94
:1002E0007A301A1D0191029000921A8803A93046B3
:1002F0009B1C01F097FC002805D1641CE4B2287C0B
:10030000A042DCD8002004B070BD0389CA1C9A1832
:1003100002814289511AC91E41817047F7B50D46C5
:10032000012189024718044600260834022028804B
:1003300012E02046FEF7C4FA002817D00C48A16846
:100340004268914200D94160608881000C19298877
:100350000818C01C28800C34BC4202D22068401C03
:10036000E7D10298002800D00670FEBD0126EBE719
:10037000C421002008B50021009101460223024A51
:100380000248FDF7B5FE08BD20350200F821002027
:1003900008B500200090044802230168034A04487D
:1003A000FDF7A6FE08BD0000D4210020183502008C
:1003B000F8210020F8B50025354F2C462E46009533
:1003C0003448B102006840180168B94205D1324A88
:1003D0004168891830D001290CD000218A00825848
:1003E0000346521C36D003202C4922018854641C39
:1003F000A4B21BE0009900290CD0284B0222210155
:100400005A54274A1368254A891802224B60641CF3
:100410000A81A4B2224900220860091DFFF77EFF6D
:100420001F488088022831D008200543761CB6B2C8
:10043000032EC5D3E8B2F8BD1849002322018B541E
:1004400051180A4648600E320831FFF767FF022054
:100450000543CCE7491CFF29C0D911490A68002A85
:100460000CD00E4A02212301D1549A1850600B4837
:10047000118120304480641CA4B204E002200B608F
:1004800088800120009001200543CFE70420CCE7BD
:10049000DEC0ADDEF821002002FEE10EC02D0020FE
:1004A000D421002070B5184D0E46044623CD86B0E9
:1004B0000295009001916846448082808371134DBB
:1004C0002046A978FCF730F9002803D03046FEF723
:1004D0008BFC0FE00721304600F0CEF9002809D050
:1004E000052807D1092269460A73CC81049003A824
:1004F000FDF7C6FA002229782046FCF727F968465E
:10050000FDF7BEFA06B070BDEC34020010210020E9
:10051000F0B585B00746FCF7FBF8002814D0684614
:10052000FCF72AF800246D460BE060004619B088FD
:100530003946FCF7F9F8002802D0B08802F06AFAD0
:10054000641C0098A042F0D805B0F0BD70B5054D10
:1005500006460024A000295830468847641C052C14
:10056000F8D370BDAC3402003EB50F4D002414200A
:100570006043401902F010FE641C082CF7D30821D8
:10058000502001910A490124C2000290074B0094B7
:10059000881800F03EFD002801D003203EBD03482E
:1005A000447000203EBD0000102B0020F8200020E9
:1005B0008028002010B500F04BFA10BD10B500F0F7
:1005C0004BFA10BDF0B5002585B000950195029558
:1005D00003950446418868464180217901712E4681
:1005E0002179608802F0B2FD22780421404F130087
:1005F000FAF79EFF0A0606361C1C383E43484B4D50
:1006000000280DD0417CC9070AD002F0D7FD68460A
:1006100006702078012800D00020694608722AE080
:10062000012069460870A068029024E000280ED0DE
:100630008268A3689A420AD1427CD30707D07B68BC
:1006400052085B1C52000A437B6042741FE0022088
:1006500069460870E06803900DE0FFF777FF16E049
:10066000032006E068460170E06802906846F4E7FF
:100670000520694608700846EFE7062069460870BD
:10068000E068D1E701250720F3E7E0680290786889
:10069000002824D0174E0024142027464743B819B9
:1006A000417C4A0703D48907C90F29421CD08178AD
:1006B000F05B00F0F7F8002816D014214C43325BB1
:1006C00069464A80B9198A7869460A71862808D02D
:1006D00009216A46117002906846FFF737FF05B09E
:1006E000F0BD08200870F7E7641C082CD4D3F6E7A7
:1006F000F8200020102B002010B500F071FA10BD7A
:1007000008B513889B0000936B4600F0DBF908BD29
:1007100010B5002300F0D6F910BD38B50546002409
:1007200020460AE08178284600F0A6F8002802D08A
:10073000052800D003240098401C009069462846F4
:1007400002F016FD0028EDD1002C07D1284600F05C
:100750004FFA002802D0072802D00324204638BDD3
:100760000724FBE710B51346002200F0E3F910BDA3
:10077000FFB581B0049815460E46002804D0072E18
:1007800005D0082E19D102E00E2005B0F0BD002DD5
:1007900013D0082D11D8019800F035FA00280CD09C
:1007A000002000903146019802F0D0FC041E26D0B3
:1007B000E068A84212D2002709E00720E5E7207C84
:1007C000C019C1B22A4800F05CFC7F1CFFB2E0688F
:1007D000B842F4D8204602F0DFFC10E0A84217D956
:1007E000EFB207E0207CC019C1B2214800F049FCFB
:1007F0007F1CFFB2E068B842F4D8002C08D1FF217A
:100800001C48019F02F0A2FC041E05D00780A670C0
:10081000207CFF2802D00AE01120B6E729461448C0
:1008200000F0C8FB2074FF2813D001200090E56081
:10083000217C0F4800F00EFC02000ED0ABB2314616
:10084000049800F071FA009800280FD0082E06D006
:100850000CE0204602F0A0FCDEE7032095E70498B8
:100860000499008849688000801F888000208CE7F8
:10087000002B0020FFFF000070B5002402F066FC92
:1008800005000CD06868002804D000F0D8F90400F6
:1008900000D00324284602F091FC204670BD0520BC
:1008A00070BD00007CB50D460646072903D0082D13
:1008B00001D007207CBD0020009001906846857023
:1008C0002946304602F042FC040004D0607CC00798
:1008D00003D000207CBD05207CBD217C214800F098
:1008E000B9FB020025D029466846E36800F0AFF95D
:1008F000684602F019FC23460833694630466268B0
:1009000000F018F90246607C1749430704D58307B5
:1009100002D54B685B1E4B60FB25FD23002A0AD0E5
:10092000112A0DD0862A14D0072A00D0032210469F
:100930007CBD03207CBD01210843284018400EE007
:100940004A68521C4A60042108431840607400221F
:10095000EDE74B6828405B1C4B6002210843607444
:10096000E5E70000002B0020F82000207CB50D46B4
:10097000072903D0082D01D007207CBD002602F0F6
:10098000E5FB040003D06068002802D01BE00520CE
:100990007CBD217C0E4800F05DFB024600200090EB
:1009A000019068468570002A0FD02946E36800F060
:1009B0004EF9684602F0B8FB211D684600F027F9A1
:1009C0000646092801D030467CBD03207CBD0000CE
:1009D000002B00200149096808470000A8340200E4
:1009E00070B588B01748FDF7FBF9002802D0032046
:1009F00008B070BDFDF730F9002801D08620F7E778
:100A000000F0E8F90020104C0290E61F03900DE082
:100A1000694604A8FDF7A8F900988088801B85B274
:100A200004A8FDF75FF9284600F088F902AA04A996
:100A30002046FDF77EF90028EAD00449012008701D
:100A40000020D5E7A9DA010007C00000EC20002053
:100A500010B500F09DF910BD10B500F0A1F910BD62
:100A600070B505460320800386B014460E4628184C
:100A700080B20F4A6946FDF75CF9002805D103A949
:100A80006846FDF771F9002802D0002006B070BD5D
:100A9000A57003984088208004986060039880883F
:100AA000FDF71FFA30806846FDF71CF90120EDE7DD
:100AB000F020002002480021416081607047000062
:100AC000EC200020F0B587B01D46144607460E46C0
